:020000040800F2
:1000000058C10020A97600089D0300089F0300083E
:10001000A1030008A3030008A503000800000000D6
:10002000000000000000000000000000A70300081E
:10003000A9030008000000008B6301089974000800
:10004000C3760008C3760008C3760008C3760008AC
:10005000C3760008C3760008C3760008C37600089C
:10006000C3760008C3760008C3760008C37600088C
:10007000C3760008C3760008C3760008C37600087C
:10008000C3760008C3760008C3760008C37600086C
:10009000C3760008C3760008C3760008C37600085C
:1000A000C3760008C3760008C3760008C37600084C
:1000B000B1310108136C0008C3760008C37600084C
:1000C000C3760008C3760008C3760008C37600082C
:1000D000C376000841760008C3760008C37600089E
:1000E000C3760008C3760008C3760008C37600080C
:1000F000C3760008C3760008C3760008C3760008FC
:10010000C3760008C3760008C3760008C3760008EB
:10011000C3760008C3760008856C0008C376000823
:10012000C3760008C3760008C3760008C3760008CB
:10013000DFF80CD015F020FF004800477D020008D2
:1001400058C100200EB57D4C02AD08264FF4FA7759
:10015000D4F8A00158B10020C4F8A0010022CDE9D4
:1001600000653B46114610460EF0BDF8F0E7012051
:10017000F2E70EB502AD082419F07CFE002205233B
:1001800011461046CDE900450EF0ADF8F4E714F045
:1001900099BE2DE9F0438BB009F07FFE09A80CF061
:1001A00056FD012109AA08460AF0F8F8012140206D
:1001B00007F0C8FD18F064FE09F04CFE604D297888
:1001C000491C297009F04AFE00240327CDE906479F
:1001D00009AE4FF4806066210896CDE90210594AB5
:1001E00005940520CDE9000204942346AFF2610294
:1001F000544855A1C4380CF0C5FFCDE9064704208A
:100200004FF00C09544A089605948DE805024FF00A
:1002100080080023AFF2A5024F48CDE903844FA127
:10022000C4380CF0AFFFCDE9064736204E4A089699
:1002300005948DE805020023AFF2F7024A48CDE9A4
:1002400003844AA1C4380CF09DFF09A94A480DF067
:1002500096FD09F0FFFD2978491E11F0FF01297074
:1002600009D14649098831B109F0F8FD0AF010FCBE
:100270000BB0BDE8F08309F0F1FDF9E78AB007F0B3
:1002800019F94FF4A06007F0CDFA4FF4E13007F010
:1002900089F900F035F901F0F0FB00F05BF907F0A7
:1002A00024FA11F0B7FA364C012236A120680FF07B
:1002B0004FFD012234A160680FF04AFD11F0A9FC46
:1002C00006F00FFC314841684820884709A809F02A
:1002D000F5FE09F0BFFD1A4C2178491C217009F088
:1002E000BDFD002006AB09AA0321059083E80700A5
:1002F00080220C23CDE902321F4D0490C435034601
:10030000AFF27112CDE9001521A11B480CF03AFFA4
:1003100009F0A0FD2178491E11F0FF01217007D1DD
:100320001649098821B109F099FD0AF0B1FB01E0F5
:1003300009F094FD09A80AF0F0F8FEE70000214258
:1003400008010020C8100020456D77696E64656D56
:100350006F207461736B0000040E0020546F75638E
:1003600068207461736B00008C2100204C65643040
:10037000207461736B0000007C0A0020CC00002018
:1003800088010020303A0000313A00008C03002040
:100390007374617274207461736B00007047FEE7C0
:1003A000FEE7FEE7FEE77047704700000CB500214E
:1003B0004B4801910091026842F4803202604FF490
:1003C000A063026802F400320092019A521C01926A
:1003D000009A12B9019A9A42F3D10268920333D576
:1003E000012100913F490A6842F010020A600A6840
:1003F00022F003020A600A6842F002020A604168C1
:10040000416041684160416841F4806141604168F8
:1004100021F47C114160416841F4E81141600168B8
:1004200041F08071016001688901FCD5416821F0CB
:1004300003014160416841F0020141604168C1F33C
:1004400081010229FAD10CBD00910CBD244810B5E0
:10045000016841F0010101604168234A1140416097
:100460000168224A11400160016821F48021016085
:10047000416821F4FE0141604FF41F018160FFF7E4
:1004800095FF1B494FF00060086010BD144910B57E
:100490004868184A10F00C03174803D0042B01D009
:1004A000082B0AD002604968134AC1F30311121DD8
:1004B000515C0268CA40026010BD4A684B6802F491
:1004C00070124FF0020413F4803F04EB924202D00A
:1004D0004B689B0301D5094B00E0064B5A43E1E70B
:1004E00000100240002002400000FFF8FFFFF6FE6F
:1004F00008ED00E000127A000000002000093D0035
:1005000038B50121242007F026FC4FF48074ADF8A3
:10051000004010208DF8030003200C4D8DF80200E0
:100520006946284607F02DFA2146284607F097FA33
:100530000420074CADF800006946204607F021FA78
:100540000421204607F08BFA38BD00000008014066
:100550000014014008B50121442007F0FCFB1C20D9
:10056000ADF8000048208DF803006946364807F0D2
:1005700008FA0120ADF8000028208DF80300694634
:10058000324807F0FEF908BD2DE9F041304D2F4FFC
:100590002D4C012608B12E7001E02878A0B1102161
:1005A000204607F048FAB0B10821204607F043FA88
:1005B00088B10421204607F03EFA60B10121384697
:1005C00007F039FA012806D01021204607F033FA47
:1005D000012824D035E00A2006F0B1FF0020287061
:1005E0001021204607F027FA80B10821204607F0A5
:1005F00022FA70B10421204607F01DFA58B10121FA
:10060000384607F018FA012807D01AE00120BDE8A3
:10061000F0810220FBE70320F9E70420F7E7082137
:10062000204607F008FA01280BD10421204607F0E4
:1006300002FA012805D10121384607F0FCF900B97A
:100640002E700020E3E70000001801400008014080
:100650001400002070B504464FF48071FE4D28460A
:1006600007F0FFF96E153146284607F0FAF92146E2
:10067000FA4807F0FDF98021284607F0F2F98021B9
:10068000284607F0ECF931462846BDE8704007F0EF
:10069000E6B970B5F04D04464FF48071284607F076
:1006A000DEF96E153146284607F0DBF92146EB48A6
:1006B00007F0DEF98021284607F0D3F9802128468B
:1006C00007F0CDF931462846BDE8704007F0C7B9BC
:1006D0002DE9F047E14C4FF088302060261D306056
:1006E000DE4F00200C373860DB4DA115284607F09F
:1006F000B6F94FF400794946284607F0B2F940218F
:10070000284607F0AEF9D6488088A0F50941893916
:1007100002D1022006F0F4FE204607F093F980464D
:100720004021284607F09BF94946284607F097F9EB
:100730004FF03330206030604FF6FF703860404635
:10074000BDE8F08770B50D46FFF784FFC24C4FF44B
:100750008071204607F083F966153146204607F080
:1007600080F92946BD4807F083F98021204607F02B
:1007700078F98021204607F072F931462046BDE81D
:10078000704007F06CB910B5FFF764FFBDE810408A
:100790009EE7B34800895DE770B5AF4D04464FF45E
:1007A0008071284607F05BF96E153146284607F040
:1007B00058F92146A94807F05BF98021284607F03F
:1007C00050F98021284607F04AF931462846BDE80D
:1007D000704007F044B9C0F34511C20AC00200EBF3
:1007E0004110104480B270472DE9F84F9C4C0546EB
:1007F0000E46A088090A00912146DFF85C82DFF8E6
:100800005CA24A89A0F513434FF480774FF4007936
:100810004FEA152B413B15D0A0F5A641103911D058
:100820002346A0F5D04C99791B885B1B5B1EBCF15D
:10083000040C76D0A0F5A04CBCF5A26C6FD00129B9
:100840006ED042E11046FFF705FF4FF48071444639
:10085000404607F004F94946204607F002F9594698
:100860005746504607F004F98021204607F0F9F872
:100870008021204607F0F3F84946204607F0EFF8BC
:100880004FF48071204607F0EAF84946204607F009
:10089000E8F8E9B2384607F0EBF88021204607F087
:1008A000E0F88021204607F0DAF84946204607F0B4
:1008B000D6F86B488089FFF7CDFE4FF48071204653
:1008C00007F0CDF84946204607F0CBF838460099A6
:1008D00007F0CEF88021204607F0C3F8802120469B
:1008E00007F0BDF84946204607F0B9F84FF480718B
:1008F000204607F0B4F84946204607F0B2F8F1B2B6
:10090000384607F0B5F88021204607F0AAF8802184
:10091000204607F0A4F849462046D1E001E055E022
:10092000D2E0012900D19DB21046FFF793FEBB46ED
:100930003946404607F093F84946404607F091F89B
:10094000290A5746504607F093F88021404607F0A1
:1009500088F88021404607F082F84946404607F073
:100960007EF85946404607F07AF84946404607F077
:1009700078F8E9B2384607F07BF88021404607F066
:1009800070F88021404607F06AF84946404607F073
:1009900066F8A089FFF75EFE5946404607F05FF80B
:1009A0004946404607F05DF83846009907F060F880
:1009B0008021404607F055F88021404607F04FF867
:1009C0004946404607F04BF8594664E01046FFF7A9
:1009D00041FE4FF48071404607F041F849464046D9
:1009E00007F03FF859465746504607F041F8802136
:1009F000404607F036F88021404607F030F8494677
:100A0000404607F02CF86089401C80B2FFF722FEB8
:100A10004FF48071404607F022F84946404607F0FF
:100A200020F8E9B2384607F023F88021404607F065
:100A300018F88021404607F012F84946404607F072
:100A40000EF8A089FFF706FE4FF48071404607F0CC
:100A500006F84946404605E000100140000C014000
:100A60008C23002006F0FDFF3846009907F000F8BF
:100A70008021404606F0F5FF8021404606F0EFFF5A
:100A80004946404606F0EBFFA089401C80B2FFF7C4
:100A9000E1FD4FF48071404606F0E1FF49464046D3
:100AA00006F0DFFFF1B2384606F0E2FF8021404653
:100AB00006F0D7FF8021404606F0D1FF4946404668
:100AC000BDE8F84F06F0CBBF9DB229461046FFF7B0
:100AD00039FEA0893146BDE8F84F33E62DE9F84FDD
:100AE000FE4C2288824202D962888A4202D80020C3
:100AF000BDE8F88FFFF778FEA08849F2413BA24697
:100B000045F2103545F21056584505D0A0F5D041B4
:100B1000043901D0A84201D12E2005E0B04202D113
:100B20004FF4385000E02220FFF794FDDFF8B08347
:100B30004FF08830C8F8000008F104010860E84868
:100B40004FF6FF770C300760E64C8115204606F023
:100B500086FF6115204606F084FF4021204606F0FE
:100B600080FF012006F0CCFC4021204606F077FFF4
:100B70004021204606F075FF012006F0C1FC4046EA
:100B800006F060FF80464021204606F068FFBAF874
:100B90000400584503D0A84201D0B04210D14021F2
:100BA000204606F05EFFCE4806F04CFF0090402144
:100BB000204606F054FF08F0FF0007EA00290FE086
:100BC000A0F5D04104390BD14021204606F049FF61
:100BD0004021204606F043FFC14806F033FF80461F
:100BE0004FF40071204606F03AFFBD494FF0333014
:100BF0000860091D0860BA480C300760BAF80400A4
:100C0000A0F51341253921D0A0F58A4135391DD0F1
:100C1000A0F58A41313919D0A0F50941893915D09B
:100C2000A0F53541053911D0584503D0A84201D06F
:100C3000B0420DD14FEAD8214FEAC1214FEA9920A5
:100C400041EA4011009841EAD02051E740464FE781
:100C50004046BDE8F84FBEE5A0488088A0F51341A6
:100C600041390FD0A0F5D04104390BD0A0F5A641F1
:100C7000103907D0A0F5AA41103905D040F2731100
:100C800007205FE5292001E04FF42450E2E4934877
:100C90008088A0F5134141390ED0A0F5D041043928
:100CA0000AD0A0F5A641103906D0A0F5AA41103906
:100CB00004D00021072045E5282001E04FF4205012
:100CC000C8E42DE9F047854C00252146A3798988A1
:100CD00046F60402012B18D1914216D0082814D2EE
:100CE000DFE800F00406080A0C0E101206200CE0E3
:100CF00007200AE0042008E0052006E0012004E0C7
:100D0000002002E0032000E00220A1F5134645F296
:100D1000103345F21058413E05D0914203D099421C
:100D200001D041457DD1082812D2DFE800F011043E
:100D300006080A0C0E1080250AE0402508E0C025B0
:100D400006E0202504E0602502E0A02500E0E02583
:100D5000414502D14FF4585000E03620994203D06B
:100D6000414501D045F00805914201D145F0020509
:100D70002946FFF7E7FCA8062088618802D588424B
:100D800002D303E0884201D921806080A0884FF41B
:100D900080756E004045534FDFF8449160897DD1E6
:100DA000FFF758FC2946B846384606F058FE31464B
:100DB000404606F056FE00214F46484606F058FED3
:100DC0008021404606F04DFE8021404606F047FE59
:100DD0003146404606F043FE6089401C80B2FFF772
:100DE00039FC2946404606F03AFE3146404606F0B8
:100DF00038FE0021384606F03BFE8021404606F0D2
:100E000030FE8021404606F02AFE3146404606F07C
:100E100026FE6089801C80B2FFF71CFC29464046F4
:100E200000E071E106F01BFE3146404606F019FE77
:100E30002088401EC0F30F21384606F019FE80219D
:100E4000404606F00EFE8021404606F008FE314680
:100E5000404606F004FE6089C01C80B2FFF7FAFB32
:100E60002946404606F0FBFD3146404606F0F9FDB6
:100E70002078401EC1B2384606F0FAFD8021404677
:100E800006F0EFFD8021404606F0E9FD3146404680
:100E900006F0E5FDA089FFF7DDFB00E061E02946F3
:100EA000404606F0DCFD3146404606F0DAFD002102
:100EB000384606F0DDFD8021404606F0D2FD802157
:100EC000404606F0CCFD3146404606F0C8FDA089FC
:100ED000401C80B2FFF7BEFB294605E08C230020B2
:100EE000000C014000100140404606F0B8FD3146BC
:100EF000404606F0B6FD0021384606F0B9FD8021D7
:100F0000404606F0AEFD8021404606F0A8FD314681
:100F1000404606F0A4FDA089801C80B2FFF79AFB32
:100F20002946404606F09BFD3146404606F099FDB5
:100F30006088401EC0F30F21384606F099FD8021DD
:100F4000404606F08EFD8021404606F088FD314681
:100F5000404606F084FDA089C01C80B2FFF77AFBF2
:100F6000B6E0FFF777FB2946B846384606F077FD2E
:100F70003146404606F075FD00214F46484606F0D2
:100F800077FD8021404606F06CFD8021404606F04A
:100F900066FD3146404606F062FD2946404606F0B1
:100FA0005EFD3146404606F05CFD0021384606F005
:100FB0005FFD8021404606F054FD8021404606F04A
:100FC0004EFD3146404606F04AFD2946404606F0B1
:100FD00046FD3146404606F044FD2088401EC0F3E1
:100FE0000F21384606F044FD8021404606F039FDC9
:100FF0008021404606F033FD3146404606F02FFD85
:101000002946404606F02BFD3146404606F029FDB4
:101010002078401EC1B2384606F02AFD80214046A5
:1010200006F01FFD8021404606F019FD314640467E
:1010300006F015FDA089FFF70DFB2946404606F096
:101040000EFD3146404606F00CFD0021384606F004
:101050000FFD8021404606F004FD8021404606F049
:10106000FEFC3146404606F0FAFC2946404606F0B2
:10107000F6FC3146404606F0F4FC0021384606F006
:10108000F7FC8021404606F0ECFC8021404606F04B
:10109000E6FC3146404606F0E2FC2946404606F0B2
:1010A000DEFC3146404606F0DCFC6088401EC0F3A2
:1010B0000F21384606F0DCFC8021404606F0D1FCCA
:1010C0008021404606F0CBFC3146404606F0C7FC86
:1010D0002946404606F0C3FC3146404606F0C1FCB6
:1010E000A078401EC1B2384606F0C2FC80214046BE
:1010F00006F0B7FC8021404606F0B1FC3146404680
:10110000BDE8F04706F0ABBC082812D2DFE800F0DB
:10111000040608110A0C0E1030250AE0102508E01C
:10112000202506E0382504E0282502E0182500E007
:101130000825A1F50940893806D0032045F48051DF
:10114000BDE8F047FFF7FEBA112046F240012943FF
:10115000F6E770B5FFF748FBFFF71BFBFF4C4FF4BA
:101160008071204606F07BFC65152946204606F076
:1011700078FCFB480188FB4806F07AFC8021204679
:1011800006F06FFC8021204606F069FC29462046C7
:10119000BDE8704006F063BC2DE9F74FF24C054600
:1011A00082B00E46A088090A00912146DFF8AC8380
:1011B000DFF8B0A34A89A0F513434FF480774FF4CA
:1011C00000794FEA152B413B14D0A0F5A641103908
:1011D00010D0A0F5AA41103919D02346A0F5D04C63
:1011E00099791B885B1B5B1EBCF1040C68D001293C
:1011F0007ED0D2E01046FFF72DFA3946404606F081
:101200002EFC4946404606F02CFC594667E0104645
:10121000FFF720FA3946404606F021FC4946404691
:1012200006F01FFC5946504606F022FC802140463D
:1012300006F017FC8021404606F011FC4946404666
:1012400006F00DFC6089401C80B2FFF703FA3946B6
:10125000404606F004FC4946404606F002FCE9B26E
:10126000504606F005FC8021404606F0FAFB80213E
:10127000404606F0F4FB4946404606F0F0FBA089E4
:10128000FFF7E8F93946404606F0E9FB4946404693
:1012900006F0E7FB5046009906F0EAFB8021404645
:1012A00006F0DFFB8021404606F0D9FB4946404668
:1012B00006F0D5FBA089401C80B2FFF7CBF952E0C5
:1012C000012900D19DB21046FFF7C4F939464046C6
:1012D00006F0C5FB4946404606F0C3FB290A5046C6
:1012E00006F0C6FB8021404606F0BBFB802100E0F3
:1012F00052E0404606F0B3FB4946404606F0AFFBDD
:101300003946404606F0ABFB4946404606F0A9FB8D
:10131000E9B2504606F0ACFB8021404606F0A1FB46
:101320008021404606F09BFB4946404606F097FB6D
:10133000A089FFF78FF93946404606F090FB4946F1
:10134000404606F08EFB5046009906F091FB802146
:10135000404606F086FB8021404606F080FB494669
:10136000404606F07CFB3946404606F078FB49468D
:10137000404606F076FBF1B2504606F079FB80213C
:10138000404606F06EFB8021404606F068FB494669
:10139000404606F064FB08E09DB229461046FFF780
:1013A000D1F9A0893146FFF7CDF939464546404687
:1013B00006F057FB4E464946284606F052FB218967
:1013C0005446504606F054FB8021284606F049FB5F
:1013D0008021284606F043FB3146284606F03FFBB5
:1013E0003946284606F03BFB3146284606F039FBD5
:1013F0002046049906F03CFB8021284606F031FB8C
:101400008021284606F02BFB05B031462846BDE872
:10141000F04F06F024BB2DE9F05F53492C232A241A
:101420002B2522222126898848F689194FF04E0A59
:101430004FF04F0B45F2105EF02749F24138F8B1FA
:1014400049484FF0010C414580F806C04FF4A07C9C
:10145000A0F800C047800FD0A1F5A647103F0BD0E1
:10146000A1F5D047043F4ED0494550D10281A0F8A4
:101470000AB0A0F80CA060E00381448185815CE0A3
:1014800039484FF0000C414580F806C007804FF402
:10149000A077478011D0A1F5D04CBCF1040C0CD042
:1014A000A1F5A04CBCF5447C07D0494514D102817C
:1014B000A0F80AA0A0F80CB04CE003814481A1F58B
:1014C000D0428581043A03D0A1F5A642103A41D119
:1014D00007804FF4F0710FE071450FD14FF4305198
:1014E00001814FF4285141814FF42C5181814FF4F7
:1014F000F07101804FF4487141802BE0028120217E
:101500004181868126E003814581848115E0714512
:101510000FD14FF4305202814FF4285242814FF4E0
:101520002C5282814FF4487202804FF4F072428054
:1015300003E00281468120228281A1F5D042043A53
:1015400003D0A1F5A642103A04D14FF4F071018006
:10155000A0F802C0BDE8F05F002007E000100140E5
:1015600016000020000C01408C230020FFF7A9BBCF
:101570002DE9F05F05461044401E87B2C818401E92
:101580000C4686B2FE4A4FEA112A114690884989D4
:10159000A0F513434FF4807B4FEA1529413B30D02F
:1015A000A0F5A643103B2CD0A0F5D043043B28D097
:1015B000A0F5AA43103B7DD0917901297BD0B84694
:1015C00029462746A0F50942893A75D050204FF0A8
:1015D000510B4FF0520A53229146FFF7B3F84146A0
:1015E0005846FFF7AFF839465046FFF7ABF831469B
:1015F0004846FFF7A7F821462846BDE8F05FFFF709
:10160000F3B80846FFF726F84FF48071DD4806F07E
:1016100026FA4FF4007B5946DA4806F022FADFF842
:1016200068834946404606F023FA8021D54806F0F3
:1016300018FA8021D34806F012FA5946D14806F02C
:101640000EFA4FF48071CF4806F009FA5946CD489A
:1016500006F007FAE9B2404606F00AFA8021C948C6
:1016600006F0FFF98021C74806F0F9F95946C54848
:1016700006F0F5F94FF48071C24806F0F0F95946CA
:10168000C04806F0EEF9390A404606F0F1F980212B
:10169000BC4806F0E6F98021BA4806F0E0F9594660
:1016A000B84806F0DCF94FF48071B64806F0D7F977
:1016B000594602E07AE08BE180E1B24806F0D1F9C8
:1016C000F9B2404606F0D4F98021AE4806F0C9F9D7
:1016D0008021AC4806F0C3F95946AA4806F0BFF984
:1016E000A7488089FEF7B6FF4FF48071A54806F041
:1016F000B6F95946A34806F0B4F95146404606F0FB
:10170000B7F980219F4806F0ACF980219D4806F08A
:10171000A6F959469B4806F0A2F94FF48071994802
:1017200006F09DF95946974806F09BF9E1B240460C
:1017300006F09EF98021934806F093F980219148A4
:1017400006F08DF959468F4806F089F94FF48071FB
:101750008C4806F084F959468A4806F082F9310A25
:10176000404606F085F98021864806F07AF9802106
:10177000844806F074F95946824806F070F94FF42F
:101780008071804806F06BF959467E4806F069F989
:10179000F1B2404606F06CF980217A4806F061F912
:1017A0008021784806F05BF9594602E190460846E8
:1017B000FEF750FF5946734806F051F94FF4007197
:1017C000704806F04EF94946DFF8BC91484606F0ED
:1017D0004FF980216B4806F044F98021694806F0F2
:1017E0003EF94FF40071674806F039F9B8F80A007D
:1017F000401C80B2FEF72EFF5946624806F02FF9D2
:101800004FF400715F4806F02CF9E9B2484606F043
:101810002FF980215B4806F024F98021594806F011
:101820001EF94FF40071574806F019F9B8F80A008C
:10183000801C80B2FEF70EFF5946524806F00FF9A1
:101840004FF400714F4806F00CF9390A484606F08B
:101850000FF980214B4806F004F98021494806F031
:10186000FEF84FF40071474806F0F9F8B8F80A009E
:10187000C01C80B2FEF7EEFE5946424806F0EFF873
:101880004FF400713F4806F0ECF8F9B2484606F014
:10189000EFF880213B4806F0E4F88021394806F053
:1018A000DEF84FF40071374806F0D9F8B8F80C00AC
:1018B000FEF7D0FE5946334806F0D1F84FF40071D8
:1018C000304806F0CEF85146484606F0D1F880215F
:1018D0002C4806F0C6F880212A4806F0C0F84FF4DC
:1018E0000071284806F0BBF8B8F80C00401C80B224
:1018F000FEF7B0FE5946234806F0B1F84FF40071E8
:10190000204806F0AEF8E1B2484606F0B1F8802172
:101910001C4806F0A6F880211A4806F0A0F84FF4FB
:101920000071184806F09BF8B8F80C00801C80B2D3
:10193000FEF790FE5946134806F091F84FF40071F7
:10194000104806F08EF8310A484606F091F88021DA
:101950000C4806F086F880210A4806F080F84FF41B
:101960000071084806F07BF8B8F80C00C01C80B283
:10197000FEF770FE5946034806F071F806E00000D5
:101980008C23002000100140000C01404FF4007136
:10199000FE4806F066F8F1B2484606F069F8802184
:1019A000FA4806F05EF88021F84806F058F84FF43F
:1019B0000071BDE8F05FF54806F051B8442041EAF7
:1019C000082189B2834688464FF0450A462203E63D
:1019D0001288B046D31B5B1E521B521E21469FB27B
:1019E00096B2EFE52DE9F047E94E824600243088B3
:1019F00075884543B088A0F5D041043902D1B0794B
:101A000001280CD000210846FEF7EEFEFEF7C1FECD
:101A1000DE4F4FF480787E15DFF8789329E00020C0
:101A2000B0712A2777814FF02B08A6F80C80014669
:101A3000FEF7DAFE0120B071A6F80A80B781E5E76B
:101A40004146384606F00BF83146384606F009F8AC
:101A50005146484606F00CF88021384606F001F859
:101A60008021384605F0FBFF3146384605F0F7FF88
:101A7000641CAC42E4D3BDE8F0872DE9F84F0121A6
:101A8000192006F068F90121C34806F009F84FF45F
:101A9000F864ADF8004010208DF803000320BB4D22
:101AA0008DF802006946284605F06BFF214628465E
:101AB00005F0D5FFB74C4FF6FF75ADF800506946FD
:101AC000204605F05EFF2946204605F0C8FF32207B
:101AD00005F035FD01210020FEF734FE322005F02F
:101AE0002EFD0020FEF74FFEA94C49F2413646F686
:101AF0000408A08045F2103945F21057FF2804D39E
:101B0000A84202D0B0F5134F56D1D320FEF7A2FD64
:101B1000FEF7DEFDFEF7DCFDFEF7DAFD05EA00204C
:101B2000A080FEF7D5FDA1880843A080B04243D035
:101B3000BF20FEF78FFDFEF7CBFDFEF7C9FDFEF7D8
:101B4000C7FDFEF7C5FD05EA0020A080FEF7C0FD39
:101B5000A1880843A08040452ED0D420FEF77AFD0E
:101B6000FEF7B6FDFEF7B4FDFEF7B2FD05EA002074
:101B7000A080FEF7ADFDA1880843A08048451BD09A
:101B80004FF45A40FEF766FDFEF7A2FD4FF45B40AE
:101B9000FEF760FDFEF79CFD05EA0020A0804FF4F3
:101BA0005C40FEF757FDFEF793FDA1880843A08037
:101BB000B0F5004F00D1A780A18878A025F0CCFE19
:101BC000A088B0427ED1CF20FEF744FD0020FEF772
:101BD00060FDC120FEF75DFD3020FEF75AFDED20CF
:101BE000FEF738FD6420FEF754FD0320FEF751FD9B
:101BF0001220FEF74EFD8120FEF74BFDE820FEF798
:101C000029FD8520FEF745FD1020FEF742FD7A20D4
:101C1000FEF73FFDCB20FEF71DFD3920FEF739FD15
:101C20002C20FEF736FD0020FEF733FD3420FEF7B2
:101C300030FD0220FEF72DFDF720FEF70BFD2020E2
:101C4000FEF727FDEA20FEF705FD0020FEF721FD47
:101C50000020FEF71EFDC020FEF7FCFC1B20FEF757
:101C600018FDC120FEF7F6FC0120FEF712FDC5208D
:101C7000FEF7F0FC3020FEF70CFD3020FEF709FDEA
:101C8000C720FEF7E7FCB720FEF703FD3620FEF77E
:101C9000E1FC4820FEF7FDFC3A20FEF7DBFC552076
:101CA000FEF7F7FCB120FEF7D5FC0020FEF7F1FCB3
:101CB0001A20FEF7EEFCB620FEF7CCFC0A20FEF759
:101CC000E8FC00E0A2E0A220FEF7E3FCF220FEF731
:101CD000C1FC0020FEF7DDFC2620FEF7BBFC012046
:101CE000FEF7D7FCE020FEF7B5FC0F20FEF7D1FC95
:101CF0002A20FEF7CEFC2820FEF7CBFC0820FEF7BA
:101D0000C8FC0E20FEF7C5FC0820FEF7C2FC5420DC
:101D1000FEF7BFFCA920FEF7BCFC4320FEF7B9FC90
:101D20000A20FEF7B6FC0F20FEF7B3FC0020FEF7FA
:101D3000B0FC0020FEF7ADFC0020FEF7AAFC00205E
:101D4000FEF7A7FCE120FEF785FC0020FEF7A1FCD2
:101D50001520FEF79EFC1720FEF79BFC0720FEF7E0
:101D600098FC1120FEF795FC0620FEF792FC2B2034
:101D7000FEF78FFC5620FEF78CFC3C20FEF789FC1A
:101D80000520FEF786FC102010E000000010014046
:101D90008C230020000C014000023000204C434402
:101DA0002049443A25780D0A00000000FEF771FC36
:101DB0000F20FEF76EFC3F20FEF76BFC3F20FEF786
:101DC00068FC0F20FEF765FC2B20FEF743FC00208B
:101DD000FEF75FFC0020FEF75CFC0120FEF759FCDB
:101DE0003F20FEF756FC2A20FEF734FC0020FEF7C9
:101DF00050FC0020FEF74DFC0020FEF74AFCEF20CF
:101E0000FEF747FC1120FEF725FCA5E040457CD1FC
:101E10001120FEF71FFC142005F091FBD020FEF7E7
:101E200019FC0720FEF735FC4220FEF732FC1D208E
:101E3000FEF72FFCD120FEF70DFC0020FEF729FC59
:101E40001A20FEF726FC0920FEF723FCD220FEF71D
:101E500001FC0120FEF71DFC2220FEF71AFCC02029
:101E6000FEF7F8FB1020FEF714FC3B20FEF711FCF8
:101E70000020FEF70EFC0220FEF70BFC1120FEF7FF
:101E800008FCC520FEF7E6FB0320FEF702FCC82095
:101E9000FEF7E0FB0020FEF7FCFB2520FEF7F9FB38
:101EA0002120FEF7F6FB0520FEF7F3FB0020FEF7EE
:101EB000F0FB0A20FEF7EDFB6520FEF7EAFB25208C
:101EC000FEF7E7FB7720FEF7E4FB5020FEF7E1FB8F
:101ED0000F20FEF7DEFB0020FEF7DBFBF820FEF70D
:101EE000B9FB0120FEF7D5FBFE20FEF7B3FB002077
:101EF000FEF7CFFB0220FEF7CCFB2020FEF7AAFB6B
:101F00003620FEF7A7FB082000E02BE0FEF7C1FB20
:101F10003A20FEF79FFB5520FEF7BBFB2B20FEF778
:101F200099FB0020FEF7B5FB0020FEF7B2FB012075
:101F3000FEF7AFFB3F20FEF7ACFB2A20FEF78AFB43
:101F40000020FEF7A6FB0020FEF7A3FB0120FEF712
:101F5000A0FBDF20FEF79DFB782005F0F0FA29209A
:101F600001F0FCBE48457CD1ED20FEF773FB01205B
:101F7000FEF78FFBFE20FEF78CFBEE20FEF76AFBE0
:101F8000DE20FEF786FB2120FEF783FBF120FEF723
:101F900061FB0120FEF77DFBDF20FEF75BFB1020DD
:101FA000FEF777FBC420FEF755FB8F20FEF771FB91
:101FB000C620FEF74FFB0020FEF76BFBE220FEF78A
:101FC00068FBE220FEF765FBE220FEF762FBBF2024
:101FD000FEF740FBAA20FEF75CFBB020FEF73AFBC1
:101FE0000D20FEF756FB0020FEF753FB0D20FEF7F9
:101FF00050FB0020FEF74DFB1120FEF74AFB0020AE
:10200000FEF747FB1920FEF744FB0020FEF741FBDB
:102010002120FEF73EFB0020FEF73BFB2D20FEF7C4
:1020200038FB0020FEF735FB3D20FEF732FB002099
:10203000FEF72FFB5D20FEF72CFB0020FEF729FBAF
:102040005D20FEF726FB0020FEF723FBB120FEF704
:1020500001FB8020FEF71DFB0020FEF71AFB8B2002
:1020600000E0FCE3FEF715FB0020FEF712FB9620D4
:10207000FEF70FFB0020FEF70CFBB220FEF7EAFA9A
:102080000020FEF706FB0020FEF703FB0220FEF710
:1020900000FB0020FEF7FDFA0320FEF7FAFA00200D
:1020A000FEF7F7FAB320FEF7D5FA0020FEF7F1FAB3
:1020B0000020FEF7EEFA0020FEF7EBFA0020FEF714
:1020C000E8FA0020FEF7E5FA0020FEF7E2FA002029
:1020D000FEF7DFFA0020FEF7DCFA0020FEF7D9FA5F
:1020E0000020FEF7D6FA0020FEF7D3FA0020FEF714
:1020F000D0FA0020FEF7CDFA0020FEF7CAFA002041
:10210000FEF7C7FA0020FEF7C4FA0020FEF7C1FA76
:102110000020FEF7BEFA0020FEF7BBFA0020FEF713
:10212000B8FA0020FEF7B5FA0020FEF7B2FA002058
:10213000FEF7AFFA0020FEF7ACFAB420FEF78AFAF9
:102140008B20FEF7A6FA0020FEF7A3FA9620FEF7F2
:10215000A0FA0020FEF79DFAA120FEF79AFA0020CF
:10216000FEF797FAB520FEF775FA0220FEF791FA0E
:102170000020FEF78EFA0320FEF78BFA0020FEF710
:1021800088FA0420FEF785FA0020FEF782FAB620CE
:10219000FEF760FA0020FEF77CFA0020FEF779FADD
:1021A000B720FEF757FA0020FEF773FA0020FEF77B
:1021B00070FA3F20FEF76DFA0020FEF76AFA5E2003
:1021C000FEF767FA0020FEF764FA6420FEF761FA72
:1021D0000020FEF75EFA8C20FEF75BFA0020FEF787
:1021E00058FAAC20FEF755FA0020FEF752FADC2030
:1021F000FEF74FFA0020FEF74CFA7020FEF749FA7E
:102200000020FEF746FA9020FEF743FA0020FEF782
:1022100040FAEB20FEF73DFA0020FEF73AFADC2008
:10222000FEF737FA0020FEF734FAB820FEF712FA6C
:102230000020FEF72EFA0020FEF72BFA0020FEF712
:1022400028FA0020FEF725FA0020FEF722FA0020E7
:10225000FEF71FFA0020FEF71CFA0020FEF719FA1D
:10226000BA20FEF7F7F92420FEF713FA0020FEF754
:1022700010FA0020FEF70DFA0020FEF70AFAC1203E
:10228000FEF7E8F92020FEF704FA0020FEF701FA35
:102290005420FEF7FEF90020FEF7FBF9FF20FEF7C1
:1022A000F8F90020FEF7F5F9C220FEF7D3F90A206D
:1022B000FEF7EFF90020FEF7ECF90420FEF7E9F94C
:1022C0000020FEF7E6F9C320FEF7C4F93C20FEF734
:1022D000E0F90020FEF7DDF93A20FEF7DAF90020F8
:1022E000FEF7D7F93920FEF7D4F90020FEF7D1F92F
:1022F0003720FEF7CEF90020FEF7CBF93C20FEF7A1
:10230000C8F90020FEF7C5F93620FEF7C2F9002013
:10231000FEF7BFF93220FEF7BCF90020FEF7B9F94D
:102320002F20FEF7B6F90020FEF7B3F92C20FEF7B8
:10233000B0F90020FEF7ADF92920FEF7AAF9002038
:10234000FEF7A7F92620FEF7A4F90020FEF7A1F971
:102350002420FEF79EF90020FEF79BF92420FEF7CB
:1023600098F90020FEF795F92320FEF792F9002056
:10237000FEF78FF93C20FEF78CF90020FEF789F973
:102380003620FEF786F90020FEF783F93220FEF7AB
:1023900080F90020FEF77DF92F20FEF77AF9002062
:1023A000FEF777F92C20FEF774F90020FEF771F99B
:1023B0002920FEF76EF90020FEF76BF92620FEF7C4
:1023C00068F90020FEF765F92420FEF762F9002085
:1023D000FEF75FF92420FEF75CF90020FEF759F9BB
:1023E0002320FEF756F90020FEF753F9C420FEF72C
:1023F00031F96220FEF74DF90020FEF74AF9052079
:10240000FEF747F90020FEF744F98420FEF741F972
:102410000020FEF73EF9F020FEF73BF90020FEF722
:1024200038F91820FEF735F90020FEF732F9A4201C
:10243000FEF72FF90020FEF72CF91820FEF729F9F6
:102440000020FEF726F95020FEF723F90020FEF7C2
:1024500020F90C20FEF71DF90020FEF71AF91720CD
:10246000FEF717F90020FEF714F99520FEF711F991
:102470000020FEF70EF9F320FEF70BF90020FEF71F
:1024800008F9E620FEF705F90020FEF702F9C5205D
:10249000FEF7E0F83220FEF7FCF80020FEF7F9F82E
:1024A0004420FEF7F6F80020FEF7F3F86520FEF76B
:1024B000F0F80020FEF7EDF87620FEF7EAF80020AD
:1024C000FEF7E7F88820FEF7E4F80020FEF7E1F8D1
:1024D000C620FEF7BFF82020FEF7DBF80020FEF74D
:1024E000D8F81720FEF7D5F80020FEF7D2F8012023
:1024F000FEF7CFF80020FEF7CCF8C720FEF7AAF8C9
:102500000020FEF7C6F80020FEF7C3F80020FEF713
:10251000C0F80020FEF7BDF8C820FEF79BF80020A9
:10252000FEF7B7F80020FEF7B4F80020FEF7B1F888
:102530000020FEF7AEF8C920FEF78CF80020FEF769
:10254000A8F80020FEF7A5F80020FEF7A2F800206A
:10255000FEF79FF80020FEF79CF80020FEF799F8A0
:102560000020FEF796F80020FEF793F80020FEF713
:1025700090F80020FEF78DF80020FEF78AF8002082
:10258000FEF787F80020FEF784F80020FEF781F8B8
:102590000020FEF77EF80020FEF77BF8E020FEF733
:1025A00059F81620FEF775F80020FEF772F81C2087
:1025B000FEF76FF80020FEF76CF82120FEF769F8AF
:1025C0000020FEF766F83620FEF763F80020FEF7DD
:1025D00060F84620FEF75DF80020FEF75AF852201A
:1025E000FEF757F80020FEF754F86420FEF751F884
:1025F0000020FEF74EF87A20FEF74BF80020FEF799
:1026000048F88B20FEF745F80020FEF742F89920A5
:10261000FEF73FF80020FEF73CF8A820FEF739F857
:102620000020FEF736F8B920FEF733F80020FEF759
:1026300030F8C420FEF72DF80020FEF72AF8CA2053
:10264000FEF727F80020FEF724F8D220FEF721F845
:102650000020FEF71EF8D920FEF71BF80020FEF739
:1026600018F8E020FEF715F80020FEF712F8F32026
:10267000FEF70FF80020FEF70CF8E120FDF7EAFF67
:102680001620FEF706F80020FEF703F81C20FEF7E0
:1026900000F80020FDF7FDFF2220FDF7FAFF0020E3
:1026A000FDF7F7FF3620FDF7F4FF0020FDF7F1FFFF
:1026B0004520FDF7EEFF0020FDF7EBFF5220FDF770
:1026C000E8FF0020FDF7E5FF6420FDF7E2FF0020B2
:1026D000FDF7DFFF7A20FDF7DCFF0020FDF7D9FFD3
:1026E0008B20FDF7D6FF0020FDF7D3FF9920FDF7E3
:1026F000D0FF0020FDF7CDFFA820FDF7CAFF002086
:10270000FDF7C7FFB920FDF7C4FF0020FDF7C1FFAB
:10271000C420FDF7BEFF0020FDF7BBFFCA20FDF778
:10272000B8FF0020FDF7B5FFD220FDF7B2FF002073
:10273000FDF7AFFFD820FDF7ACFF0020FDF7A9FFA4
:10274000E020FDF7A6FF0020FDF7A3FFF320FDF733
:10275000A0FF0020FDF79DFFE220FDF77BFF052095
:10276000FDF797FF0020FDF794FF0B20FDF791FF89
:102770000020FDF78EFF1B20FDF78BFF0020FDF7EB
:1027800088FF3420FDF785FF0020FDF782FF4420FD
:10279000FDF77FFF0020FDF77CFF4F20FDF779FF5D
:1027A0000020FDF776FF6120FDF773FF0020FDF7A5
:1027B00070FF7920FDF76DFF0020FDF76AFF88208C
:1027C000FDF767FF0020FDF764FF9720FDF761FF2D
:1027D0000020FDF75EFFA620FDF75BFF0020FDF760
:1027E00058FFB720FDF755FF0020FDF752FFC2202C
:1027F000FDF74FFF0020FDF74CFFC720FDF749FF15
:102800000020FDF746FFD120FDF743FF0020FDF734
:1028100040FFD620FDF73DFF0020FDF73AFFDD2009
:10282000FDF737FF0020FDF734FFF320FDF731FF00
:102830000020FDF72EFFE320FDF70CFF0520FDF73C
:1028400028FF0020FDF725FF0A20FDF722FF0020CA
:10285000FDF71FFF1C20FDF71CFF002000E0FDE23C
:10286000FDF717FF3320FDF714FF0020FDF711FFE0
:102870004420FDF70EFF0020FDF70BFF5020FDF771
:1028800008FF0020FDF705FF6220FDF702FF002092
:10289000FDF7FFFE7820FDF7FCFE0020FDF7F9FEB6
:1028A0008820FDF7F6FE0020FDF7F3FE9720FDF7E8
:1028B000F0FE0020FDF7EDFEA620FDF7EAFE002069
:1028C000FDF7E7FEB720FDF7E4FE0020FDF7E1FE8F
:1028D000C220FDF7DEFE0020FDF7DBFEC720FDF77E
:1028E000D8FE0020FDF7D5FED120FDF7D2FE002056
:1028F000FDF7CFFED520FDF7CCFE0020FDF7C9FE89
:10290000DD20FDF7C6FE0020FDF7C3FEF320FDF736
:10291000C0FE0020FDF7BDFEE420FDF79BFE012078
:10292000FDF7B7FE0020FDF7B4FE0120FDF7B1FE74
:102930000020FDF7AEFE0220FDF7ABFE0020FDF704
:10294000A8FE2A20FDF7A5FE0020FDF7A2FE3C20F0
:10295000FDF79FFE0020FDF79CFE4B20FDF799FE42
:102960000020FDF796FE5D20FDF793FE0020FDF7A9
:1029700090FE7420FDF78DFE0020FDF78AFE842076
:10298000FDF787FE0020FDF784FE9320FDF781FE12
:102990000020FDF77EFEA220FDF77BFE0020FDF764
:1029A00078FEB320FDF775FE0020FDF772FEBE2015
:1029B000FDF76FFE0020FDF76CFEC420FDF769FEF9
:1029C0000020FDF766FECD20FDF763FE0020FDF739
:1029D00060FED320FDF75DFE0020FDF75AFEDD20EE
:1029E000FDF757FE0020FDF754FEF320FDF751FEE2
:1029F0000020FDF74EFEE520FDF72CFE0020FDF740
:102A000048FE0020FDF745FE0020FDF742FE0020B5
:102A1000FDF73FFE0220FDF73CFE0020FDF739FEEA
:102A20002920FDF736FE0020FDF733FE3C20FDF7A0
:102A300030FE0020FDF72DFE4B20FDF72AFE002082
:102A4000FDF727FE5D20FDF724FE0020FDF721FEA7
:102A50007420FDF71EFE0020FDF71BFE8420FDF70D
:102A600018FE0020FDF715FE9320FDF712FE002052
:102A7000FDF70FFEA220FDF70CFE0020FDF709FE7A
:102A8000B320FDF706FE0020FDF703FEBE20FDF794
:102A900000FE0020FDF7FDFDC420FDF7FAFD00203B
:102AA000FDF7F7FDCD20FDF7F4FD0020FDF7F1FD6A
:102AB000D320FDF7EEFD0020FDF7EBFDDC20FDF758
:102AC000E8FD0020FDF7E5FDF320FDF7E2FD002025
:102AD000FDF7DFFDE620FDF7BDFD1120FDF7D9FD77
:102AE0000020FDF7D6FD3420FDF7D3FD0020FDF7D3
:102AF000D0FD5620FDF7CDFD0020FDF7CAFD762064
:102B0000FDF7C7FD0020FDF7C4FD7720FDF7C1FDEF
:102B10000020FDF7BEFD6620FDF7BBFD0020FDF7A0
:102B2000B8FD8820FDF7B5FD0020FDF7B2FD992026
:102B3000FDF7AFFD0020FDF7ACFDBB20FDF7A9FDC3
:102B40000020FDF7A6FD9920FDF7A3FD0020FDF76D
:102B5000A0FD6620FDF79DFD0020FDF79AFD5520A4
:102B6000FDF797FD0020FDF794FD5520FDF791FD41
:102B70000020FDF78EFD4520FDF78BFD0020FDF7C1
:102B800088FD4320FDF785FD0020FDF782FD4420F0
:102B9000FDF77FFD0020FDF77CFDE720FDF75AFDE6
:102BA0003220FDF776FD0020FDF773FD5520FDF77F
:102BB00070FD0020FDF76DFD7620FDF76AFD002019
:102BC000FDF767FD6620FDF764FD0020FDF761FD60
:102BD0006720FDF75EFD0020FDF75BFD6720FDF738
:102BE00058FD0020FDF755FD8720FDF752FD002020
:102BF000FDF74FFD9920FDF74CFD0020FDF749FD45
:102C0000BB20FDF746FD0020FDF743FD9920FDF7B1
:102C100040FD0020FDF73DFD7720FDF73AFD002047
:102C2000FDF737FD4420FDF734FD0020FDF731FDB1
:102C30005620FDF72EFD0020FDF72BFD2320FDF78C
:102C400028FD0020FDF725FD3320FDF722FD0020A3
:102C5000FDF71FFD4520FDF71CFD0020FDF719FDC8
:102C6000E820FDF7F7FC0020FDF713FD0020FDF73D
:102C700010FD9920FDF70DFD0020FDF70AFD8720CE
:102C8000FDF707FD0020FDF704FD8820FDF701FD9D
:102C90000020FDF7FEFC7720FDF7FBFC0020FDF790
:102CA000F8FC6620FDF7F5FC0020FDF7F2FC88201B
:102CB000FDF7EFFC0020FDF7ECFCAA20FDF7E9FC96
:102CC0000020FDF7E6FCBB20FDF7E3FC0020FDF74C
:102CD000E0FC9920FDF7DDFC0020FDF7DAFC662022
:102CE000FDF7D7FC0020FDF7D4FC5520FDF7D1FC03
:102CF0000020FDF7CEFC5520FDF7CBFC0020FDF7B2
:102D0000C8FC4420FDF7C5FC0020FDF7C2FC4420B0
:102D1000FDF7BFFC0020FDF7BCFC5520FDF7B9FC1A
:102D20000020FDF7B6FCE920FDF794FCAA20FDF792
:102D3000B0FC0020FDF7ADFC0020FDF7AAFC002050
:102D4000FDF7A7FC0020FDF785FCAA20FDF7A1FCFC
:102D5000CF20FDF77FFC0020FDF79BFC0020FDF756
:102D600098FC0020FDF795FC0020FDF792FC002068
:102D7000FDF78FFC0020FDF78CFC0020FDF789FC9F
:102D80000020FDF786FC0020FDF783FC0020FDF706
:102D900080FC0020FDF77DFC0020FDF77AFC002080
:102DA000FDF777FC0020FDF774FC0020FDF771FCB7
:102DB0000020FDF76EFC0020FDF76BFCF020FDF716
:102DC00049FC0020FDF765FC5020FDF762FC002067
:102DD000FDF75FFC0020FDF75CFC0020FDF759FCCF
:102DE000F320FDF737FC0020FDF753FCF920FDF739
:102DF00031FC0620FDF74DFC1020FDF74AFC292090
:102E0000FDF747FC0020FDF744FC3A20FDF722FCCB
:102E10005520FDF73EFC1120FDF71CFC642004F05A
:102E20008EFB2920FDF716FC3520FDF713FC002052
:102E3000FDF72FFC5120FDF70DFCFF20FDF729FCCD
:102E40005320FDF707FC2C20FDF723FC5520FDF750
:102E500001FC8220FDF71DFC2C20FCE3B8427DD153
:102E60004FF4704455212046FDF76CFC661CAA21E6
:102E70003046FDF767FCA71C52213846FDF762FC7F
:102E80004FF2030808214046FDF75CFC4FF20409AD
:102E900001214846FDF756FC0D214FF43040FDF767
:102EA00051FC0D214BF20100FDF74CFC0D214BF2C2
:102EB0000200FDF747FC4FF4364A34215046FDF737
:102EC00041FC34214BF20160FDF73CFC34214BF214
:102ED0000260FDF737FC4FF4314B0D215846FDF7EA
:102EE00031FC0D214BF20110FDF72CFC0D214BF2B2
:102EF0000210FDF727FC34214FF43740FDF722FC88
:102F000034214BF20170FDF71DFC34214BF20270AD
:102F1000FDF718FC00214FF43240FDF713FC0021AF
:102F20004BF20120FDF70EFC00214BF20220FDF7D1
:102F300009FC24214FF43840FDF704FC24214BF612
:102F40000100FDF7FFFB24214BF60200FDF7FAFB21
:102F500001214FF43F40FDF7F5FB00E0FEE30F21B8
:102F60004FF43340FDF7EEFB0F214BF20130FDF73C
:102F7000E9FB0F214BF20230FDF7E4FB34214FF463
:102F80003940FDF7DFFB34214BF60110FDF7DAFB8A
:102F900034214BF60210FDF7D5FB08214FF43540E4
:102FA000FDF7D0FB08214BF20150FDF7CBFB0821C8
:102FB0004BF20250FDF7C6FB03214FF44240FDF7F0
:102FC000C1FB24214FF43A40FDF7BCFB24214BF612
:102FD0000120FDF7B7FB24214BF60220FDF7B2FBE1
:102FE00000214FF43C40FDF7ADFB78214BF601404A
:102FF000FDF7A8FB00214BF60240FDF7A3FB0021E3
:103000004FF43D40FDF79EFB78214BF60150FDF754
:1030100099FB00214BF60250FDF794FB00214FF481
:103020003E40FDF78FFB64214BF60160FDF78AFB04
:1030300000214FF45140FDF785FB33214DF2011083
:10304000FDF780FB00214DF20210FDF77BFB3421E0
:103050004DF20310FDF776FB00214DF20410FDF751
:1030600071FB3A214DF20510FDF76CFB00214DF28A
:103070000610FDF767FB4A214DF20710FDF762FBD2
:1030800000214DF20810FDF75DFB5C214DF20910A7
:10309000FDF758FB00214DF20A10FDF753FB81218B
:1030A0004DF20B10FDF74EFB00214DF20C10FDF719
:1030B00049FBA6214DF20D10FDF744FB00214DF216
:1030C0000E10FDF73FFBE5214DF20F10FDF73AFB27
:1030D00001214DF21010FDF735FB13214DF21110B7
:1030E000FDF730FB01214DF21210FDF72BFB5421AF
:1030F0004DF21310FDF726FB01214DF21410FDF7E0
:1031000021FB82214DF21510FDF71CFB01214DF230
:103110001610FDF717FBCA214DF21710FDF712FB31
:1031200002214DF21810FDF70DFB00214DF2191090
:10313000FDF708FB02214DF21A10FDF703FB0121F8
:103140004DF21B10FDF7FEFA02214DF21C10FDF7A7
:10315000F9FA34214DF21D10FDF7F4FA02214DF277
:103160001E10FDF7EFFA67214DF21F10FDF7EAFA86
:1031700002214DF22010FDF7E5FA84214DF22110D5
:10318000FDF7E0FA02214DF22210FDF7DBFAA4214F
:103190004DF22310FDF7D6FA02214DF22410FDF76F
:1031A000D1FAB7214DF22510FDF7CCFA02214DF2EC
:1031B0002610FDF7C7FACF214DF22710FDF7C2FA0E
:1031C00002214DF22810FDF7BDFADE214DF2291043
:1031D000FDF7B8FA02214DF22A10FDF7B3FAF221F9
:1031E0004DF22B10FDF7AEFA02214DF22C10FDF737
:1031F000A9FAFE214DF22D10FDF7A4FA03214DF29C
:103200002E10FDF79FFA10214DF22F10FDF79AFABC
:1032100003214DF23010FDF795FA33214DF23110B4
:10322000FDF790FA03214DF23210FDF78BFA6D2174
:103230004DF23310FDF786FA00214FF45240FDF7AE
:1032400081FA33214DF20120FDF77CFA00214DF285
:103250000220FDF777FA34214DF20320FDF772FAD0
:1032600000214DF20420FDF76DFA3A214DF20520C0
:10327000FDF768FA00214DF20620FDF763FA4A21B6
:103280004DF20720FDF75EFA00214DF20820FDF710
:1032900059FA5C214DF20920FDF754FA00214DF254
:1032A0000A20FDF74FFA81214DF20B20FDF74AFA73
:1032B00000214DF20C20FDF745FAA6214DF20D201C
:1032C000FDF740FA00214DF20E20FDF73BFAE52113
:1032D0004DF20F20FDF736FA01214DF21020FDF7D7
:1032E00031FA13214DF21120FDF72CFA01214DF294
:1032F0001220FDF727FA54214DF21320FDF722FA90
:1033000001214DF21420FDF71DFA82214DF2152006
:10331000FDF718FA01214DF21620FDF713FACA2124
:103320004DF21720FDF70EFA02214DF21820FDF79D
:1033300009FA00214DF21920FDF704FA02214DF29D
:103340001A20FDF7FFF901214DF21B20FDF7FAF9D4
:1033500002214DF21C20FDF7F5F934214DF21D201C
:10336000FDF7F0F902214DF21E20FDF7EBF9672180
:103370004DF21F20FDF7E6F902214DF22020FDF766
:10338000E1F984214DF22120FDF7DCF902214DF213
:103390002220FDF7D7F9A4214DF22320FDF7D2F921
:1033A00002214DF22420FDF7CDF9B7214DF2252061
:1033B000FDF7C8F902214DF22620FDF7C3F9CF2110
:1033C0004DF22720FDF7BEF902214DF22820FDF72E
:1033D000B9F9DE214DF22920FDF7B4F902214DF2B1
:1033E0002A20FDF7AFF9F2214DF22B20FDF7AAF9C3
:1033F00002214DF22C20FDF7A5F9FE214DF22D20E2
:10340000FDF7A0F903214DF22E20FDF79BF91021C5
:103410004DF22F20FDF796F903214DF23020FDF7F4
:1034200091F933214DF23120FDF78CF903214DF252
:103430003220FDF787F96D214DF23320FDF782F937
:1034400000214FF45340FDF77DF933214DF2013057
:10345000FDF778F900214DF20230FDF773F93421C0
:103460004DF20330FDF76EF900214DF20430FDF707
:1034700069F93A214DF20530FDF764F900214DF26A
:103480000630FDF75FF94A214DF20730FDF75AF992
:1034900000214DF20830FDF755F95C214DF209305D
:1034A000FDF750F900214DF20A30FDF74BF981216B
:1034B0004DF20B30FDF746F900214DF20C30FDF7CF
:1034C00041F9A6214DF20D30FDF73CF900214DF2F6
:1034D0000E30FDF737F9E5214DF20F30FDF732F9E7
:1034E00001214DF21030FDF72DF913214DF211306D
:1034F000FDF728F901214DF21230FDF723F954218F
:103500004DF21330FDF71EF901214DF21430FDF795
:1035100019F982214DF21530FDF714F901214DF210
:103520001630FDF70FF9CA214DF21730FDF70AF9F1
:1035300002214DF21830FDF705F900214DF2193046
:10354000FDF700F902214DF21A30FDF7FBF80121D9
:103550004DF21B30FDF7F6F802214DF21C30FDF75D
:10356000F1F834214DF21D30FDF7ECF802214DF257
:103570001E30FDF7E7F867214DF21F30FDF7E2F846
:1035800002214DF22030FDF7DDF884214DF221308B
:10359000FDF7D8F802214DF22230FDF7D3F8A4212F
:1035A0004DF22330FDF7CEF802214DF22430FDF725
:1035B000C9F8B7214DF22530FDF7C4F802214DF2CC
:1035C0002630FDF7BFF8CF214DF22730FDF7BAF8CE
:1035D00002214DF22830FDF7B5F8DE214DF22930F9
:1035E000FDF7B0F802214DF22A30FDF7ABF8F221D9
:1035F0004DF22B30FDF7A6F802214DF22C30FDF7ED
:10360000A1F8FE214DF22D30FDF79CF803214DF27B
:103610002E30FDF797F810214DF22F30FDF792F87C
:1036200003214DF23030FDF78DF833214DF231306A
:10363000FDF788F803214DF23230FDF783F86D2154
:103640004DF23330FDF77EF800214FF45440FDF782
:1036500079F8332100E081E34DF20140FDF772F883
:1036600000214DF20240FDF76DF834214DF2034088
:10367000FDF768F800214DF20440FDF763F83A21A8
:103680004DF20540FDF75EF800214DF20640FDF7D2
:1036900059F84A214DF20740FDF754F800214DF248
:1036A0000840FDF74FF85C214DF20940FDF74AF85C
:1036B00000214DF20A40FDF745F881214DF20B4003
:1036C000FDF740F800214DF20C40FDF73BF8A62134
:1036D0004DF20D40FDF736F800214DF20E40FDF79A
:1036E00031F8E5214DF20F40FDF72CF801214DF2A4
:1036F0001040FDF727F813214DF21140FDF722F895
:1037000001214DF21240FDF71DF854214DF21340F6
:10371000FDF718F801214DF21440FDF713F882214E
:103720004DF21540FDF70EF801214DF21640FDF760
:1037300009F8CA214DF21740FDF704F802214DF2B5
:103740001840FCF7FFFF00214DF21940FCF7FAFF8B
:1037500002214DF21A40FCF7F5FF00E001E30121E0
:103760004DF21B40FCF7EEFF02214DF21C40FCF72E
:10377000E9FF34214DF21D40FCF7E4FF02214DF238
:103780001E40FCF7DFFF67214DF21F40FCF7DAFF18
:1037900002214DF22040FCF7D5FF84214DF221405B
:1037A000FCF7D0FF02214DF22240FCF7CBFFA42111
:1037B0004DF22340FCF7C6FF02214DF22440FCF7F6
:1037C000C1FFB7214DF22540FCF7BCFF02214DF2AD
:1037D0002640FCF7B7FFCF214DF22740FCF7B2FFA0
:1037E00002214DF22840FCF7ADFFDE214DF22940C9
:1037F000FCF7A8FF02214DF22A40FCF7A3FFF221BB
:103800004DF22B40FCF79EFF02214DF22C40FCF7BD
:1038100099FFFE214DF22D40FCF794FF03214DF25C
:103820002E40FCF78FFF10214DF22F40FCF78AFF4E
:1038300003214DF23040FCF785FF33214DF231403A
:10384000FCF780FF03214DF23240FCF77BFF6D2136
:103850004DF23340FCF776FF00214FF45540FCF762
:1038600071FF33214DF20150FCF76CFF00214DF246
:103870000250FCF767FF34214DF20350FCF762FF62
:1038800000214DF20450FCF75DFF3A214DF2055046
:10389000FCF758FF00214DF20650FCF753FF4A2178
:1038A0004DF20750FCF74EFF00214DF20850FCF797
:1038B00049FF5C214DF20950FCF744FF00214DF215
:1038C0000A50FCF73FFF81214DF20B50FCF73AFF05
:1038D00000214DF20C50FCF735FFA6214DF20D50A2
:1038E000FCF730FF00214DF20E50FCF72BFFE521D5
:1038F0004DF20F50FCF726FF01214DF21050FCF75E
:1039000021FF13214DF21150FCF71CFF01214DF254
:103910001250FCF717FF54214DF21350FCF712FF21
:1039200001214DF21450FCF70DFF82214DF215508C
:10393000FCF708FF01214DF21650FCF703FFCA21E6
:103940004DF21750FCF7FEFE02214DF21850FCF725
:10395000F9FE00214DF21950FCF7F4FE02214DF260
:103960001A50FCF7EFFE01214DF21B50FCF7EAFE66
:1039700002214DF21C50FCF7E5FE34214DF21D50A2
:10398000FCF7E0FE02214DF21E50FCF7DBFE672142
:103990004DF21F50FCF7D6FE02214DF22050FCF7ED
:1039A000D1FE84214DF22150FCF7CCFE02214DF2D4
:1039B0002250FCF7C7FEA4214DF22350FCF7C2FEB3
:1039C00002214DF22450FCF7BDFEB7214DF22550E7
:1039D000FCF7B8FE02214DF22650FCF7B3FECF21D2
:1039E0004DF22750FCF7AEFE02214DF22850FCF7B5
:1039F000A9FEDE214DF22950FCF7A4FE02214DF272
:103A00002A50FCF79FFEF2214DF22B50FCF79AFE54
:103A100002214DF22C50FCF795FEFE214DF22D5067
:103A2000FCF790FE03214DF22E50FCF78BFE102187
:103A30004DF22F50FCF786FE03214DF23050FCF77B
:103A400081FE33214DF23150FCF77CFE03214DF213
:103A50003250FCF777FE6D214DF23350FCF772FEC9
:103A600000214FF45640FCF76DFE33214DF201600A
:103A7000FCF768FE00214DF20260FCF763FE342182
:103A80004DF20360FCF75EFE00214DF20460FCF78E
:103A900059FE3A214DF20560FCF754FE00214DF22B
:103AA0000660FCF74FFE4A214DF20760FCF74AFE24
:103AB00000214DF20860FCF745FE5C214DF20960E3
:103AC000FCF740FE00214DF20A60FCF73BFE81212D
:103AD0004DF20B60FCF736FE00214DF20C60FCF756
:103AE00031FEA6214DF20D60FCF72CFE00214DF2B7
:103AF0000E60FCF727FEE5214DF20F60FCF722FE79
:103B000001214DF21060FCF71DFE13214DF21160F2
:103B1000FCF718FE01214DF21260FCF713FE542150
:103B20004DF21360FCF70EFE01214DF21460FCF71C
:103B300009FE82214DF21560FCF704FE01214DF2D1
:103B40001660FCF7FFFDCA214DF21760FCF7FAFD85
:103B500002214DF21860FCF7F5FD00214DF21960CD
:103B6000FCF7F0FD02214DF21A60FCF7EBFD01219C
:103B70004DF21B60FCF7E6FD02214DF21C60FCF7E4
:103B8000E1FD34214DF21D60FCF7DCFD02214DF218
:103B90001E60FCF7D7FD67214DF21F60FCF7D2FDD8
:103BA00002214DF22060FCF7CDFD84214DF2216011
:103BB000FCF7C8FD02214DF22260FCF7C3FDA421F1
:103BC0004DF22360FCF7BEFD02214DF22460FCF7AC
:103BD000B9FDB7214DF22560FCF7B4FD02214DF28D
:103BE0002660FCF7AFFDCF214DF22760FCF7AAFD60
:103BF00002214DF22860FCF7A5FDDE214DF229607F
:103C0000FCF7A0FD02214DF22A60FCF79BFDF2219A
:103C10004DF22B60FCF796FD02214DF22C60FCF773
:103C200091FDFE214DF22D60FCF78CFD03214DF23C
:103C30002E60FCF787FD10214DF22F60FCF782FD0E
:103C400003214DF23060FCF77DFD33214DF23160F0
:103C5000FCF778FD03214DF23260FCF773FD6D2116
:103C60004DF23360FCF76EFD55212046FCF76AFDEE
:103C7000AA213046FCF766FD52213846FCF762FD6A
:103C800008214046FCF75EFD00214846FCF75AFD3E
:103C9000CC215846FCF756FD00214BF20110FCF7F1
:103CA00051FD05215046FCF74DFD70214FF4374082
:103CB000FCF748FD70214BF20170FCF743FD012138
:103CC0004FF43840FCF73EFD03214BF60100FCF7B2
:103CD00039FD03214BF60200FCF734FD03214BF6BE
:103CE0000300FCF72FFD02214FF43C40FCF72AFDB6
:103CF00000214BF60140FCF725FD00214BF6024068
:103D0000FCF720FDD0214FF44940FCF71BFD0221B8
:103D10004CF60110FCF716FD50214CF60210FCF792
:103D200011FD50214CF60310FCF70CFD50214CF610
:103D30000410FCF707FD00214FF45450FCF702FD7E
:103D400055214FF46850FCF7FDFC4FF48850FCF708
:103D500081FC782003F0D4FB4FF42450FCF77AFC6C
:103D6000FEE3A0F513414FF480744FF4E06840F295
:103D7000022940F23F164FF4274B25392ED0A0F5EB
:103D800013414FF4017A40F2077728397ED0A0F52D
:103D900013414FF41C5B203979D0A0F51341313920
:103DA00076D0A0F5A841083973D0A0F5A8510539FF
:103DB00070D0A0F5354105396DD0A0F545410539E4
:103DC0006AD0A0F50941893967D0A0F58A41313917
:103DD0007ED0A0F58A4135397BD0C1E747F6F001A6
:103DE000E520FCF7AFFC21460120FCF7ABFC414687
:103DF0000220FCF7A7FC41F230010320FCF7A2FCF3
:103E000000210420FCF79EFC49460820FCF79AFCA0
:103E100000210920FCF796FC00210A20FCF792FC07
:103E200000210C20FCF78EFC00210D20FCF78AFC01
:103E300000210F20FCF786FC00211020FCF782FCFB
:103E400007211120FCF77EFC00211220FCF77AFCF0
:103E500000211320FCF776FC00210720FCF772FC00
:103E600041F290611020FCF76DFC40F227211120F7
:103E7000FCF768FC9D211220FCF764FC4FF4C8514C
:103E80001320FCF75FFC2521292007E07DE026E1D7
:103E9000CAE19CE237E3FDE3FDE3FDE3FCF752FCFE
:103EA0000D212B20FCF74EFC07213020FCF74AFCAB
:103EB00040F203313120FCF745FC03213220FCF7AE
:103EC00041FC40F206213520FCF73CFC082101E0D2
:103ED000FEE3FEE33620FCF735FC40F206413720D6
:103EE000FCF730FC4FF441713820FCF72BFC072124
:103EF0003920FCF727FC40F202613C20FCF722FC51
:103F000008213D20FCF71EFC00215020FCF71AFC84
:103F1000EF215120FCF716FC00215220FCF712FC87
:103F200031465320FCF70EFC59466020FCF70AFC92
:103F300001216120FCF706FC00216A20FCF702FC4D
:103F400000218020FCF7FEFB00218120FCF7FAFB1A
:103F500000218220FCF7F6FB00218320FCF7F2FB16
:103F600000218420FCF7EEFB00218520FCF7EAFB12
:103F700010219020FCF7E6FB4FF4C0619220FCF783
:103F8000E1FB40F233110720FDE341F28F01EC2009
:103F9000FCF7D8FB41F23421EF20FCF7D3FB21469C
:103FA0000120FCF7CFFB41460220FCF7CBFB41F29E
:103FB00030010320FCF7C6FB00210420FCF7C2FB04
:103FC00049460820FCF7BEFB00210920FCF7BAFB9C
:103FD00000210A20FCF7B6FB01210C20FCF7B2FB04
:103FE00000210D20FCF7AEFB00210F20FCF7AAFBFF
:103FF00000211020FCF7A6FB07211120FCF7A2FBF3
:1040000000211220FCF79EFB00211320FCF79AFBF5
:1040100001210720FCF796FB322003F090FA41F2D1
:1040200090411020FCF78EFB40F227211120FCF775
:1040300089FB322003F083FA8A211220FCF782FBED
:10404000322003F07CFA4FF4D0511320FCF77AFBB6
:1040500006212920FCF776FB0D212B20FCF772FBB3
:10406000322003F06CFA00212020FCF76BFB0021CA
:104070002120FCF767FB322003F061FA0021302099
:10408000FCF760FB40F204613120FCF75BFB40F27F
:1040900005313220FCF756FB00213520FCF752FB9E
:1040A00040F609413620FCF74DFB51463720FCF71E
:1040B00049FB40F201313820FCF744FB39463920F6
:1040C000FCF740FB00213C20FCF73CFB40F60A21BA
:1040D0003D20FCF737FB322003F031FA3BE10021B1
:1040E0000846FCF72FFB21460120FCF72BFB41463D
:1040F0000220FCF727FB41F230010320FCF722FBF2
:1041000000210420FCF71EFB49460820FCF71AFB9F
:1041100000210920FCF716FB00210A20FCF712FB06
:1041200001210C20FCF70EFB00210D20FCF70AFBFF
:1041300000210F20FCF706FB322003F000FA40F2CA
:1041400001110720FCF7FEFA322003F0F8F94FF4D2
:1041500086511020FCF7F6FA07211120FCF7F2FA3D
:104160004FF4887421461220FCF7ECFA4FF43061CA
:104170001320FCF7E7FA00212920FCF7E3FA44F2C8
:1041800010012B20FCF7DEFA00215020FCF7DAFAB0
:10419000EF215120FCF7D6FA00215220FCF7D2FA89
:1041A00031465320FCF7CEFA59466020FCF7CAFA94
:1041B00001216120FCF7C6FA00216A20FCF7C2FA4F
:1041C00000218020FCF7BEFA00218120FCF7BAFA1A
:1041D00000218220FCF7B6FA00218320FCF7B2FA16
:1041E00000218420FCF7AEFA00218520FCF7AAFA12
:1041F00010219020FCF7A6FA00219220FCF7A2FAE9
:1042000001219320FCF79EFA21469520FCF79AFAAB
:1042100000219720FCF796FA00219820FCF792FAEB
:1042200040F2731107207EE341F21401E720FCF70E
:1042300089FA21460120FCF785FA4FF4007102202B
:10424000FCF780FA41F238010320FCF77BFA49467B
:104250000820FCF777FA00210920FCF773FA002107
:104260000A20FCF76FFA00210C20FCF76BFA002102
:104270000D20FCF767FA00210F20FCF763FA0021FC
:104280001020FCF75FFA07211120FCF75BFA0021F0
:104290001220FCF757FA00211320FCF753FAC8202C
:1042A00003F04DF941F290611020FCF74BFA40F217
:1042B00027211120FCF746FA322003F040F90C21A7
:1042C0001220FCF73FFA322003F039F94FF4006175
:1042D0001320FCF737FA11212920FCF733FA0B21C0
:1042E0002B20FCF72FFA322003F029F9002120209F
:1042F000FCF728FA31462120FCF724FA002130206F
:10430000FCF720FA4FF4837421463120FCF71AFAA7
:1043100000213220FCF716FA51463520FCF712FA3C
:1043200041F20A613620FCF70DFA39463720FCF7D6
:1043300009FA21463820FCF705FA39463920FCF7FE
:1043400001FA40F202413C20FCF7FCF940F60F4133
:104350003D20FCF7F7F900215020FCF7F3F9EF219D
:104360005120FCF7EFF900215220FCF7EBF9314620
:104370005320FCF7E7F959466020FCF7E3F90121E7
:104380006120FCF7DFF900216A20FCF7DBF900214E
:104390008020FCF7D7F900218120FCF7D3F9002118
:1043A0008220FCF7CFF900218320FCF7CBF9002114
:1043B0008420FCF7C7F900218520FCF7C3F9102100
:1043C0009020FCF7BFF94FF4C0619220FEE3214634
:1043D0000120FCF7B7F941460220FCF7B3F941F29E
:1043E00030010320FCF7AEF900210420FCF7AAF904
:1043F00040F207210820FCF7A5F900210920FCF76D
:10440000A1F900210A20FCF79DF900210C20FCF7FE
:1044100099F900210D20FCF795F900210F20FCF7F8
:1044200091F9142003F08BF841F2B0611020FCF7F1
:1044300089F901211120FCF785F901211720FCF7EA
:1044400081F94FF49C711220FCF77CF94FF4006164
:104450001320FCF777F909212920FCF773F90921CA
:104460002A20FCF76FF90021A420FCF76BF900214A
:104470005020FCF767F9EF215120FCF763F9002188
:104480005220FCF75FF931465320FCF75BF959469F
:104490006020FCF757F901216120FCF753F9002156
:1044A0006A20FCF74FF900218020FCF74BF900212E
:1044B0008120FCF747F900218220FCF743F9002115
:1044C0008320FCF73FF900218420FCF73BF9002111
:1044D0008520FCF737F913219020FCF733F90021F0
:1044E0009220FCF72FF903219320FCF72BF94FF4CE
:1044F00088719520FCF726F940F273110720FCF72C
:1045000021F9322011E100210720FCF71BF93220AC
:1045100003F015F84FF48E711220FCF713F9012106
:10452000A420FCF70FF90F210820FCF70BF9082154
:104530000A20FCF707F908210D20FCF703F9BA4619
:1045400039463020FCF7FEF807213120FCF7FAF855
:1045500040F203613220FCF7F5F84746414600E09F
:10456000FDE33320FCF7EEF849463420FCF7EAF887
:1045700002213520FCF7E6F841F60F713620FCF7F2
:10458000E1F851463720FCF7DDF800213820FCF730
:10459000D9F800213920FCF7D5F851463A20FCF72C
:1045A000D1F800213B20FCF7CDF807213C20FCF797
:1045B000C9F800213D20FCF7C5F8322002F0BFFF0A
:1045C00001210720FCF7BEF801211720FCF7BAF8FB
:1045D000322002F0B4FF4FF4BD511020FCF7B2F8C6
:1045E00040F217211120FCF7ADF84FF48F71122023
:1045F000FCF7A8F84FF470611320FCF7A3F8002132
:104600002A20FCF79FF80A212920FCF79BF84FF499
:104610009F711220FCF796F800215020FCF792F8C9
:10462000EF215120FCF78EF800215220FCF78AF888
:1046300031465320FCF786F859466020FCF782F893
:1046400001216120FCF77EF800216A20FCF77AF84E
:1046500000218020FCF776F800218120FCF772F819
:1046600000218220FCF76EF800218320FCF76AF815
:1046700000218420FCF766F800218520FCF762F811
:1046800013219020FCF75EF84FF440719220FCF764
:1046900059F802E04CE047E10FE205219320FCF7D6
:1046A00051F800219520FCF74DF800219720FCF7E8
:1046B00049F800219820FCF745F821460120FCF735
:1046C00041F839460220FCF73DF841F2380101E09B
:1046D000A7E268E30320FCF735F800210420FCF78B
:1046E00031F800210C20FCF72DF800210F20FCF7F9
:1046F00029F800212020FCF725F800212120FCF7D3
:1047000021F821210720FCF71DF8142002F017FFE3
:1047100061210720FCF716F8142002F010FF40F288
:1047200073110720FCF70EF8142002F008FF2EE3A7
:1047300000210846FCF706F800210846FCF702F8BD
:1047400000210846FBF7FEFF00210846FBF7FAFFB1
:104750000121A420FBF7F6FF142002F0F0FE5946D9
:104760006020FBF7EFFF4F4649460820FBF7EAFFC2
:104770004FF405713020FBF7E5FF43F2157131204E
:10478000FBF7E0FF00E0CAE040F204613220FBF7F3
:10479000D9FF40F616613320FBF7D4FF42F2112116
:1047A0003420FBF7CFFF4FF4A8513520FBF7CAFFA9
:1047B00048F207513620FBF7C5FF41F20741372089
:1047C000FBF7C0FF41F203413820FBF7BBFF20217C
:1047D0003920FBF7B7FF1A219020FBF7B3FF002128
:1047E0001020FBF7AFFF07211120FBF7ABFF0021E3
:1047F0001220FBF7A7FF00211320FBF7A3FF1420D3
:1048000002F09DFE4FF4E6611020FBF79BFF40F2A3
:1048100037111120FBF796FF142002F090FE4FF4A1
:10482000DC711220FBF78EFF142002F088FE4FF49B
:1048300070611320FBF786FF80212A20FBF782FF9F
:1048400048212920FBF77EFF142002F078FE214644
:104850000120FBF777FF41460220FBF773FF41F28F
:1048600038010320FBF76EFF39460820FBF76AFF8B
:1048700000210A20FBF766FF00210C20FBF762FFF6
:1048800000210D20FBF75EFF30210E20FBF75AFFC1
:1048900000215020FBF756FFEF215120FBF752FF7C
:1048A00000215220FBF74EFF31465320FBF74AFF11
:1048B00059466020FBF746FF01216120FBF742FFCC
:1048C00000216A20FBF73EFF11219020FBF73AFF01
:1048D0004FF4C0619220FBF735FF40F20241932074
:1048E000FBF730FF02219420FBF72CFF142002F08D
:1048F00026FE01210720FBF725FF142002F01FFEF2
:1049000061210720FBF71EFF40F273110720FBF720
:1049100019FF00212020FBF715FF00212120FBF7C4
:1049200011FF2221002030E200210846FBF70AFF98
:1049300000210846FBF706FF142002F000FE0021CC
:104940000846FBF7FFFE00210846FBF7FBFE0021AF
:104950000846FBF7F7FE00210846FBF7F3FE0121AE
:10496000A420FBF7EFFE142002F0E9FD5946602079
:10497000FBF7E8FE40F606010820FBF7E3FE40F2F5
:10498000037841463020FBF7DDFE01213120FBF7A3
:10499000D9FE04213220FBF7D5FE4FF4817133207C
:1049A000FBF7D0FE4FF4407739463420FBF7CAFEC0
:1049B00040F203113520FBF7C5FE1F213620FBF71F
:1049C000C1FE41463720FBF7BDFE01213820FBF731
:1049D000B9FE04213920FBF7B5FE15219020FBF725
:1049E000B1FE4FF482611020FBF7ACFE40F247218C
:1049F0001120FBF7A7FE4FF4DE711220FBF7A2FE99
:104A00004FF460611320FBF79DFE782002F097FDC4
:104A100021460120FBF796FE4FF400710220FBF7C0
:104A200091FE41F230010320FBF78CFE08210A20A1
:104A3000FBF788FE00210C20FBF784FE20210E20CE
:104A4000FBF780FE00210F20FBF77CFE00212020D9
:104A5000FBF778FE00212120FBF774FE3D212A2080
:104A6000FBF770FE142002F06AFD2D212920FBF7D0
:104A700069FE00215020FBF765FE4DF2EF01512049
:104A8000FBF760FE00215220FBF75CFE314653200D
:104A9000FBF758FE00216120FBF754FE00216A203D
:104AA000FBF750FE39469220FBF74CFE0521932080
:104AB000FBF748FE2146FFF7B5BB01210020FBF7BD
:104AC00041FE4AF6A4010320FBF73CFE00210C2026
:104AD000FBF738FE40F60C010D20FBF733FE4FF4D8
:104AE0002C510E20FBF72EFEB0211E20FBF72AFED4
:104AF00042F63F310120FBF725FE4FF4C061022052
:104B0000FBF720FE00211020FBF71CFE46F2780187
:104B10001120FBF717FE00210520FBF713FE0021F3
:104B20000620FBF70FFE4EF61C711620FBF70AFE5F
:104B300003211720FBF706FE40F233210720FBF785
:104B400001FE00210B20FBF7FDFD00210F20FBF7EC
:104B5000F9FD00214120FBF7F5FD00214220FBF784
:104B6000F1FD00214820FBF7EDFD31464920FBF720
:104B7000E9FD00214A20FBF7E5FD00214B20FBF772
:104B8000E1FD4FF46F414420FBF7DCFD002145209F
:104B9000FBF7D8FD31464620FBF7D4FD39463020DF
:104BA000FBF7D0FD544651463120FBF7CBFD2146A3
:104BB0003220FBF7C7FD40F2025631463320FBF7A7
:104BC000C1FD711D3420FBF7BDFD00E08EE12146E3
:104BD0003520FBF7B7FD21463620FBF7B3FD314604
:104BE0003720FBF7AFFD40F2023421463A20FBF7B5
:104BF000A9FD21463B20FBF7A5FD00212320FBF763
:104C0000A1FD00212420FBF79DFD4FF4004125204C
:104C1000FBF798FD00214F20FBF794FD00214E206B
:104C2000B3E001210020FBF78DFD0A2002F087FC94
:104C300041F228611020FBF785FD0E211220FBF7C1
:104C400081FD40F639211320FBF77CFD0A2002F09C
:104C500076FC40211120FBF775FD50211520FBF754
:104C600071FD0A2002F06BFC1E211220FBF76AFD89
:104C70000A2002F064FC4FF4B1511020FBF762FDF2
:104C800042F639211320FBF75DFD0A2002F057FCA4
:104C900021460120FBF756FD4FF440710220FBF73F
:104CA00051FD41F238010320FBF74CFD4946082035
:104CB000FBF748FD08210A20FBF744FD00213020C6
:104CC000FBF740FD40F202413120FBF73BFD4FF482
:104CD00083713220FBF736FD40F203513320FBF79E
:104CE00031FD4FF482713420FBF72CFD40F201318D
:104CF0003520FBF727FD39463620FBF723FD40F230
:104D000005313720FBF71EFD4FF402713820FBF709
:104D100019FD40F60B713920FBF714FD02214120EB
:104D2000FBF710FD59466020FBF70CFD01216120C7
:104D3000FBF708FD4FF404719020FBF703FD4FF4DF
:104D400085719220FBF7FEFC04219320FBF7FAFC0F
:104D50002146A020FBF7F6FC0121072000E016E029
:104D6000FBF7F0FC21210720FBF7ECFC23210720B7
:104D7000FBF7E8FC33210720FBF7E4FC40F233119A
:104D80000720FBF7DFFC0021A020FBF7DBFC002065
:104D9000FCF741FBFE490120C1F8A8012846FCF7B9
:104DA00021FEBDE8F88F30211520FBF7CBFC102148
:104DB0009A20FBF7C7FC20211120FBF7C3FC43F22C
:104DC00028411020FBF7BEFC02211220FBF7BAFCA1
:104DD00041F238011320FBF7B5FC282002F0AFFBAD
:104DE00012210846FBF7AEFC282002F0A8FB43F294
:104DF00020411020FBF7A6FC43F238011320FBF7FB
:104E0000A1FC462002F09BFB00213020FBF79AFC1E
:104E100040F202413120FBF795FC40F2073132208D
:104E2000FBF790FC4FF441713320FBF78BFC04211E
:104E30003420FBF787FC40F201413520FBF782FC70
:104E400039463620FBF77EFC40F205313720FBF770
:104E500079FC4FF4C26631463820FBF773FC3146CB
:104E60003920FBF76FFC21460120FBF76BFC4FF468
:104E700040710220FBF766FC41F230010320FBF792
:104E800061FC40F608010820FBF75CFC08210A20C1
:104E9000FBF758FC59466020FBF754FC01216120C8
:104EA000FBF750FC4FF49F719020FBF74BFC214621
:104EB0009220FBF747FC21469320FBF743FC4FF47D
:104EC0004051A020FBF73EFC1021A320FBF73AFC49
:104ED00001210720FBF736FC21210720FBF732FCDC
:104EE00023210720FBF72EFC33210720FBF72AFCA8
:104EF00040F23311DFE52DE9F84FA64C1E468246FD
:104F0000A388A3F5D040043802D1A07901280BD0A2
:104F1000A2EB0A00401C87B20D464FF4807BDFF8FD
:104F200078824FF400793EE025880846A91AA5EB5F
:104F30000A030025A57132462A2565812B26A68104
:104F4000491E5B1E0A9F89B29BB20097FFF7D3FFF1
:104F50000120A0716681A58123E729465046FBF711
:104F600043FCFBF716FC002419E05946404602F0CA
:104F700076FD4946404602F074FD88480A9902F0E1
:104F800077FD8021404602F06CFD8021404602F012
:104F900066FD4946404602F062FD641CA4B2BC4274
:104FA000E3D36D1CADB2B542D7D9FAE62DE9FF5F68
:104FB0008A460098DDF838B0101A401C86B2A3EB80
:104FC0000A00401C87B2002430E000BF0AEB040056
:104FD00081B20098FBF708FCFBF7DBFB0025DFF84C
:104FE000B8814FF400791DE04FF48071404602F023
:104FF00036FD4946404602F034FD04FB0651674841
:105000003BF8111002F034FD8021404602F029FDEA
:105010008021404602F023FD4946404602F01FFD34
:105020006D1CADB2B542DFD3641CA4B2BC42CDD37B
:10503000BDE8FF9F2DE9FE4F161ACDE900104FF095
:1050400000085D1A47464FF0FF30002E02DD4FF09A
:10505000010102E003D14FF000018B4602E08346DC
:10506000C6F10006002D02DD4FF0010002E003D181
:105070004FF00000824602E08246C5F10005AE42D4
:1050800001DD344600E02C46601C4FF00009029020
:1050900018E0009881B2019880B2FCF75AF8B04449
:1050A0002F44A04504DD0198A8EB04085844019062
:1050B000A74203DD00983F1B5044009009F1010016
:1050C0001FFA80F902998945E3DDBDE8FE8F2DE9DD
:1050D000F0411C4615460E4607460B46FFF7AAFF51
:1050E0003A46234631461046FFF7A4FF23462A4698
:1050F00019463846FFF79EFF2A4623463146BDE84B
:10510000F041104696E72DE9FC5F0746002514465E
:1051100003200E46A0EB440862E000BFA6EB0509A1
:10512000A7EB040A1FFA89F11FFA8AF0FCF711F8BD
:10513000381901901FFA89F180B2FCF70AF830198A
:1051400081B2A7EB050B00901FFA8BF0FCF701F87A
:105150001FFA89F11FFA8AF0FBF7FBFFA6EB04099F
:105160001FFA89F11FFA8BF0FBF7F3FF019806EBAA
:10517000050B1FFA8BF180B2FBF7EBFF1FFA89F1E9
:1051800007EB05091FFA89F0FBF7E3FF009807E03A
:10519000000022428C23002000100140000C01403E
:1051A00081B21FFA89F0FBF7D4FF1FFA8BF11FFAC7
:1051B0008AF0FBF7CEFF6D1CB8F1000F04DA08EBA4
:1051C000850000F1060805E0291B08EB810000F1CD
:1051D0000A08641E301981B2781980B2FBF7B9FF52
:1051E000A5429BDDBDE8FC9F2DE9FF5F80461D4683
:1051F0000C468B46580700D0012000EBD50069080B
:105200004843203A00F0FF0AD0B20026029044E062
:105210000C2D11D0102D14D0182D40D102987749A3
:1052200000EBC00001EB80004FF00009875D3806FD
:105230000CD5734802880DE00298724900EB4000DB
:10524000F0E77149029801EB0010EDE70E9828B9DC
:105250006B48428821464046FBF79EFF7806070EC2
:105260006A48641CA4B20188414518D9A4EB0B001C
:10527000A84209D108F101001FFA80F863485C4692
:10528000018841450BD906E009F1010000F0FF0952
:10529000B9F1080FCBD3761CF6B25645B8D3C7E6A2
:1052A0000246012000E05043491EC9B2FBD27047BC
:1052B0002DE9FF4F81B00026DDF838A01D4693464A
:1052C00081463446B0464FEA5A0727E0281B401E65
:1052D000C1B20A20FFF7E4FFBBFBF0F00A21B0FBEC
:1052E000F1F201FB120026B9691E8C4201DA48B1C5
:1052F00001263030C2B207FB049080B25346CDF88D
:10530000008006E007FB049080B253462022CDF8CF
:1053100000800299FFF768FF641CE4B2AC42D5D369
:1053200005B0BDE8F08F2DE9FF4F81B04FF00008C8
:10533000DDE90EBA1E46814644460AF001054FEAF1
:105340005B072CE0301B401EC1B20A20FFF7A8FF0C
:105350000399B1FBF0F00A21B0FBF1F201FB12005E
:10536000B8F1000F05D1711E8C4202DA48B14FF03E
:1053700001083030C2B207FB049080B25B46009552
:1053800008E05FEA0A6007FB049080B25B46009584
:1053900008D530220299FFF727FF641CE4B2B4421B
:1053A000D0D3BDE72022F5E72DE9F84F044600F001
:1053B000FF0910190D46DDE90AB61FFA80F85819E1
:1053C00087B24FF0000A12E0444503D305EB0B000F
:1053D0004C4685B2BD420FD25B4629462046CDF8E9
:1053E00000A0FFF701FF04EB5B0084B2761C32786B
:1053F000A2F120005E28E7D9D3E400001A8F02084A
:1054000016000020B68402082A8902088C23002096
:105410004F48416941F480714161816941F0200147
:105420008161816941F040018161816941F08001C0
:105430008161816941F48071816146480168002180
:105440000160026842F0BB320260001F026802F095
:10545000FF220260026842F0BB1202603E4802680E
:105460000160026842F0BB320260001F02683B4BE1
:105470001A40026002683A4B1A43026039480268D7
:1054800092B202600268384B1A430260001F026841
:1054900002F07F4202600368344A134303603448D9
:1054A000436823F470634360436843F430634360AC
:1054B000036803F07F4303600368134303604FF006
:1054C000204001614161C0F81411016941F480512B
:1054D0000161016941F010010161416941F44071CC
:1054E000416141694161416941616FF07041C0F8BA
:1054F0001411016941F001010161704710B5002AE2
:1055000008D000BF4FF0D04310F8014B5C54491C49
:10551000521EF7D110BD002A08D000BF4FF0D04373
:105520005B5C491C00F8013B521EF7D1704703B584
:105530000146012201A8FFF7E1FF0CBD08B50146B5
:1055400001226846FFF7E7FF9DF8000008BD000054
:1055500000100240041401400418014000FFFF0F36
:10556000BB0000B0041C01400000BBBBBBBBBB00C8
:105570000020014008B50121102002F0ECFB4FF49F
:10558000C050ADF8000010208DF8030003208DF806
:10559000020069467F4802F0F4F97F480121C0F813
:1055A000B011C0F8AC1108BD70B57A48416821F45B
:1055B00070414160416841F440514160764C0120A6
:1055C000C4F8AC01C4F8B001042004F5D67401F0AD
:1055D00097FF00252560042001F092FF656070BDF3
:1055E0006C4810B5416821F470414160416841F454
:1055F00040514160684C0020C4F8B001C4F8AC01CF
:10560000042004F5D67401F07BFF01206060206067
:10561000BDE81040042001F073BF70B55D48002460
:10562000416821F470414160416841F400414160AA
:10563000594D0126C5F8AC61304601F061FFC5F84F
:10564000B061012001F05CFF07E0641CE4B2FA2CB9
:1056500003D9FFF7C5FF012070BDD5F82C01002844
:10566000F3D1C5F8B00170BD70B54B4C0025C4F83E
:10567000B0514848416821F470414160416841F4AB
:1056800040514160C4F8AC51022004F5D67401F0D9
:1056900037FF01206060022001F032FF656070BDBD
:1056A00070B53D4C0025C4F8B0513A48416821F42A
:1056B00070414160416841F4405141600126C4F8A5
:1056C000AC61022004F5D67401F01AFF6660022076
:1056D00001F016FF656070BD2DE9F04106462D48CA
:1056E000416821F470414160416841F4405141609A
:1056F000294C0027C4F8B0713D464FF00108F0096D
:10570000C4F8AC017006060E022001F0F9FEC4F8E0
:10571000B081022001F0F4FEC4F8B071022001F063
:10572000EFFE6D1CEDB2082DE9D3BDE8F0812DE947
:10573000F047814617480024416821F470414160D8
:10574000416841F400414160134E254627464FF021
:10575000010800BFC6F8B071022001F0D1FEC6F802
:10576000B0816006040ED6F82C0108B1641CE4B2C6
:10577000012001F0C5FE6D1CEDB2082DEAD3B9F190
:10578000000F04D0FFF770FF2046BDE8F087FFF759
:1057900087FFF9E70010014000002242FFF7EABE50
:1057A00010B50446FFF700FF200AA02101EB4000DE
:1057B000C0B2FFF791FFFFF730FFE0B2FFF78CFFB9
:1057C000FFF72BFFFFF7F0FEA120FFF785FFFFF7A4
:1057D00024FF0020FFF7ABFF0446FFF701FF204640
:1057E00010BD70B50D460446FFF7DEFE200AA0216D
:1057F00001EB4000C0B2FFF76FFFFFF70EFFE0B212
:10580000FFF76AFFFFF709FF2846FFF765FFFFF77D
:1058100004FFFFF7E5FEBDE870400A2001F08FBEEF
:105820002DE9F04116460D460746002409E0E00048
:1058300025FA00F0C1B2381980B2FFF7D2FF641C1C
:10584000E4B2B442F3D3BDE8F0812DE9F0410D4656
:105850000146002004464E1908E00702301B401E96
:1058600080B2FFF79DFF641C3844E4B2AC42F4D32D
:10587000E9E710B5FF20FFF793FF55280AD055211F
:10588000FF20FFF7AEFFFF20FFF78AFF552801D06A
:10589000012010BD002010BD70B514460D4606460F
:1058A00008E03046711C8EB2FFF77AFF641E05F8DF
:1058B000010BA4B2002CF4D170BD70B516460C4695
:1058C000054606E021782846FFF78BFF6D1CADB238
:1058D000641C761EB6B2F5D270BD000070B50646E7
:1058E0000024334D03E0641CE4B2C82C0FD802211D
:1058F000284602F08CFB0028F5D03146284602F0FD
:1059000042FB002405E0641CE4B2C82C01D900204D
:1059100070BD0121284602F07AFB0028F3D028460A
:1059200002F033FBC0B270BD38B5012141F2040072
:1059300002F011FAE020ADF8000018208DF8030005
:1059400003201C4C8DF802006946204602F019F82D
:10595000E021204602F083F8174800214FF48272BC
:105960000180428081800222C28001220281520293
:10597000428138228281C181072101820C4C01467B
:10598000204602F05BFA0121204602F0D4FAFF2003
:10599000FFF7A4FF38BD10B50749054C88812046A4
:1059A00002F04CFA2046BDE81040012102F0C3BAD3
:1059B00000300140000801409A2300200A2001F035
:1059C0009FBD8448816941F010018161824801686E
:1059D0004FF20F0291430160016843F20302114349
:1059E0000160C16841F00201C160C16841F0080175
:1059F000C160704770B57848016821F4704101605A
:105A0000016841F440510160744C0120C4F88C01DC
:105A1000C4F880010A2004F5C07401F071FD00256E
:105A2000E5600A2001F06CFD256070BD70B56A4824
:105A3000016821F470410160016841F44051016046
:105A4000664C0020C4F88001C4F88C010A2004F5DB
:105A5000C07401F055FD012525600A2001F050FDBC
:105A6000E56070BD70B55C480024016821F47041A8
:105A70000160016841F400410160584D0126C5F8FC
:105A80008C61304601F03CFDC5F88061012001F0D9
:105A900037FD07E0641CE4B2FA2C03D9FFF7C6FF18
:105AA000012070BDD5F80C010028F3D1C5F88001A4
:105AB00070BD70B5494C0025C4F880514648016856
:105AC00021F470410160016841F440510160C4F863
:105AD0008C510A2004F5C07401F012FD01202060F1
