:020000040800F2
:1000000098BE0020C9760008E9030008EB03000849
:10001000ED030008EF030008F103000800000000F2
:10002000000000000000000000000000F3030008D2
:10003000F503000800000000A3500108B97400088F
:10004000E3760008E3760008E3760008E37600082C
:10005000E3760008E3760008E3760008E37600081C
:10006000E3760008E3760008E3760008E37600080C
:10007000E3760008E3760008E3760008E3760008FC
:10008000E3760008E3760008E3760008E3760008EC
:10009000E3760008E3760008E3760008E3760008DC
:1000A000E3760008E3760008E3760008E3760008CC
:1000B0004D310108376C0008E3760008E37600084C
:1000C000E3760008E3760008E3760008E3760008AC
:1000D000E376000861760008E3760008E37600081E
:1000E000E3760008E3760008E3760008E37600088C
:1000F000E3760008E3760008E3760008E37600087C
:10010000E3760008E3760008E3760008E37600086B
:10011000E3760008E3760008A96C0008E37600089F
:10012000E3760008E3760008E3760008E37600084B
:10013000DFF80CD014F05CFF00480047A302000871
:1001400098BE00200EB5874C02AD08264FF4FA7712
:10015000D4F8A00158B10020C4F8A0010022CDE9D4
:1001600000653B46114610460EF0B1F8F0E701205D
:10017000F2E70EB502AD082418F00CFC00220523AE
:1001800011461046CDE900450EF0A1F8F4E700B5A0
:10019000ADF50B7D4FF4706007F02BFB012272A1CF
:1001A00068460FF0C6FD14F071F84FF47A7016F03F
:1001B00097FF0DF50B7D00BD2DE9F0438BB009F0E5
:1001C0008AFE09A80CF041FD012109AA08460AF09F
:1001D00000F90121402007F0BFFD17F0E1FB09F015
:1001E00057FE6A4D2978491C297009F055FE0024F4
:1001F0000327CDE9064709AE4FF4806066210896D3
:10020000CDE90210624A05940520CDE9000204946C
:100210002346AFF285025E485EA1C4380CF0ABFF06
:10022000CDE9064704204FF00C095E4A0896059474
:100230008DE805024FF080080023AFF2C90259484B
:10024000CDE9038458A1C4380CF095FFCDE90647E9
:100250003620584A089605948DE805020023AFF22F
:100260001B125448CDE9038453A1C4380CF083FF1A
:1002700009A954480DF079FD09F00AFE2978491EB4
:1002800011F0FF01297009D14F49098831B109F0F6
:1002900003FE0AF017FC0BB0BDE8F08309F0FCFD8B
:1002A000F9E78AB007F016F94FF4A06007F0C6FA34
:1002B0004FF4E13007F086F900F04AF901F0FDFB58
:1002C00000F070F907F020FA11F052FA3F4C0122C9
:1002D0003FA120680FF008FD01223EA160680FF0E9
:1002E00003FD11F044FC06F00FFC3B484168482038
:1002F000884709A809F0FFFE09F0CAFD234C2178C0
:10030000491C217009F0C8FD002006AB09AA032191
:10031000059083E8070080220C23CDE90232294DA5
:100320000490C4350346AFF26F12CDE900152BA13E
:1003300024480CF020FF09F0ABFD2178491E11F094
:10034000FF01217007D12049098821B109F0A4FDDE
:100350000AF0B8FB01E009F09FFD09A80AF0F7F8E0
:10036000FEE7000000002142303A2F535953544514
:100370004D2F53595349434F2F73797374656D73E0
:10038000657474696E672E62696E00000801002052
:10039000A40E0020456D77696E64656D6F207461F1
:1003A000736B0000E00B0020546F7563682074616C
:1003B000736B0000681F00204C656430207461730B
:1003C0006B00000058080020CC00002088010020AD
:1003D000303A0000313A00008C03002073746172DF
:1003E00074207461736B00007047FEE7FEE7FEE760
:1003F000FEE77047704700000CB500224C480092A1
:100400000192016841F4803101604FF4A0630168FA
:1004100001F4003101910099491C0091019911B931
:1004200000999942F3D10168890333D501210191E3
:1004300040490A6842F010020A600A6822F003028A
:100440000A600A6842F002020A604168416041683D
:100450004160416841F480614160416821F47C1150
:100460004160416841F4E8114160016841F08071E8
:10047000016001688901FCD5416821F003014160F8
:10048000416841F0020141604168C1F381010229E4
:10049000FAD10CBD01920CBD254810B5016841F0A0
:1004A000010101604168244A114041600168234A0A
:1004B00011400160016821F480210160416821F44C
:1004C000FE0141604FF41F018160FFF795FF1C4959
:1004D0004FF00060086010BD154A10B55068194B08
:1004E00010F00C01184803D0042901D0082901D0CC
:1004F000036012E05168536801F470114FF0020478
:1005000013F4803F04EB914102D053689B0301D563
:100510000E4B00E00B4B5943016051680A4AC1F38E
:100520000311121D515C0268CA40026010BD000038
:1005300000100240002002400000FFF8FFFFF6FE1E
:1005400008ED00E000127A000000002000093D00E4
:1005500038B50121242007F008FC4FF48074ADF871
:10056000004010208DF8030003200C4D8DF8020090
:100570006946284607F011FA2146284607F077FA1F
:100580000420074CADF800006946204607F005FA44
:100590000421204607F06BFA38BD00000008014036
:1005A0000014014008B50121442007F0DEFB1C20A7
:1005B000ADF8000048208DF803006946364807F082
:1005C000ECF90120ADF8000028208DF80300694601
:1005D000324807F0E2F908BD2DE9F041304C2F4FC9
:1005E0002D4D012608B1267001E02078A0B1102120
:1005F000284607F028FAB0B10821284607F023FA68
:1006000088B10421284607F01EFA60B1012138465E
:1006100007F019FA012806D01021284607F013FA2E
:10062000012824D035E00A2006F099FF0020207030
:100630001021284607F007FA80B10821284607F064
:1006400002FA70B10421284607F0FDF958B10121E2
:10065000384607F0F8F9012807D01AE00120BDE874
:10066000F0810220FBE70320F9E70420F7E70821E7
:10067000284607F0E8F901280BD10421284607F0A5
:10068000E2F9012805D10121384607F0DCF900B96B
:1006900026700020E3E70000001801400008014038
:1006A0001400002070B506464FF48071FE4C2046C1
:1006B00007F0DFF965152946204607F0DAF93146DB
:1006C000FA4807F0DDF98021204607F0D2F98021B1
:1006D000204607F0CCF929462046BDE8704007F0D7
:1006E000C6B970B5F04C06464FF48071204607F04D
:1006F000BEF965152946204607F0BBF93146EB489F
:1007000007F0BEF98021204607F0B3F9802120468A
:1007100007F0ADF929462046BDE8704007F0A7B9BB
:100720002DE9F047E14F4FF0883038603D1D2860DB
:10073000DE4E00200C363060DB4CA915204607F059
:1007400096F94FF400794946204607F092F9402186
:10075000204607F08EF9D6488088A0F509418939EE
:1007600002D1022006F0DCFE384607F073F980461D
:100770004021204607F07BF94946204607F077F9EB
:100780004FF03330386028604FF6FF7030604046DD
:10079000BDE8F08770B50E46FFF784FFC24C4FF4FA
:1007A0008071204607F063F965152946204607F059
:1007B00060F93146BD4807F063F98021204607F013
:1007C00058F98021204607F052F929462046BDE815
:1007D000704007F04CB910B5FFF764FFBDE810405A
:1007E0009EE7B34800895DE770B5AF4C06464FF40D
:1007F0008071204607F03BF965152946204607F031
:1008000038F93146A94807F03BF98021204607F026
:1008100030F98021204607F02AF929462046BDE814
:10082000704007F024B9C0F34511C20AC00200EBC2
:100830004110104480B270472DE9F84F9C4E0D4690
:100840000446B188280A00903046DFF85C82DFF861
:100850005CA24089A1F513424FF480774FF40079F0
:100860004FEA142B413A15D0A1F5A642103A11D007
:100870003346A1F5D04C9A791B881B1B5B1EBCF13B
:10088000040C75D0A1F5A04CBCF5A26C6ED0012A69
:100890006DD03FE1FFF706FF4FF4807146464046BA
:1008A00007F0E5F84946304607F0E3F85946574661
:1008B000504607F0E5F88021304607F0DAF880214D
:1008C000304607F0D4F84946304607F0D0F84FF4E8
:1008D0008071304607F0CBF84946304607F0C9F83A
:1008E000E1B2384607F0CCF88021304607F0C1F875
:1008F0008021304607F0BBF84946304607F0B7F88C
:100900006B488089FFF7CEFE4FF48071304607F0C8
:10091000AEF84946304607F0ACF83846009907F083
:10092000AFF88021304607F0A4F88021304607F068
:100930009EF84946304607F09AF84FF480713046E9
:1009400007F095F84946304607F093F8E9B2384683
:1009500007F096F88021304607F08BF8802130466A
:1009600007F085F849463046CFE001E054E0D0E09A
:10097000012A00D19CB2FFF795FEBB46394640469E
:1009800007F075F84946404607F073F8210A5746C4
:10099000504607F075F88021404607F06AF880213C
:1009A000404607F064F84946404607F060F859466B
:1009B000404607F05CF84946404607F05AF8E1B275
:1009C000384607F05DF88021404607F052F8802154
:1009D000404607F04CF84946404607F048F8B089D1
:1009E000FFF760FE5946404607F041F84946404649
:1009F00007F03FF83846009907F042F8802140465A
:100A000007F037F88021404607F031F84946404664
:100A100007F02DF8594663E0FFF744FE4FF480716C
:100A2000404607F024F84946404607F022F8594668
:100A30005746504607F024F88021404607F019F841
:100A40008021404607F013F84946404607F00FF86A
:100A50007089401C80B2FFF725FE4FF4807140463C
:100A600007F005F84946404607F003F8E1B238467A
:100A700007F006F88021404606F0FBFF8021404643
:100A800006F0F5FF4946404606F0F1FFB089FFF752
:100A900009FE4FF48071404606F0E9FF49464046A2
:100AA00006F0E7FF384605E000100140000C014069
:100AB00068210020009906F0E3FF8021404606F0FF
:100AC000D8FF8021404606F0D2FF4946404606F056
:100AD000CEFFB089401C80B2FFF7E4FD4FF4807177
:100AE000404606F0C4FF4946404606F0C2FFE9B260
:100AF000384606F0C5FF8021404606F0BAFF802147
:100B0000404606F0B4FF49464046BDE8F84F06F0BF
:100B1000AEBF9CB22146FFF73DFEB0892946BDE835
:100B2000F84F37E62DE9F84FFE4D2A88824202D968
:100B30006A888A4202D80020BDE8F88FFFF77CFE61
:100B4000A888AA4649F2413B45F2103545F21056B5
:100B5000584505D0A0F5D041043901D0A84201D1B3
:100B60002E2005E0B04202D14FF4385000E02220A0
:100B7000FFF798FDDFF8B0934FF08830C9F8000018
:100B800009F104010860E8494FF6FF780C31C1F81B
:100B90000080E64F8915384606F069FF791538461A
:100BA00006F067FF4021384606F063FF012006F09B
:100BB000B7FC4021384606F05AFF4021384606F07F
:100BC00058FF012006F0ACFC484606F043FF814682
:100BD0004021384606F04BFFBAF80400584503D0D0
:100BE000A84201D0B04210D14021384606F041FF62
:100BF000CD4806F02FFF00904021384606F037FF21
:100C000009F0FF0008EA00240FE0A0F5D041043904
:100C10000BD14021384606F02CFF4021384606F023
:100C200026FFC14806F016FF81464FF40071384692
:100C300006F01DFFBC494FF033300860091D086005
:100C4000B9490C31C1F80080BAF80400A0F513418D
:100C5000253920D0A0F58A4135391CD0A0F58A412C
:100C6000313918D0A0F50941893914D0A0F53541A2
:100C7000053910D0584503D0A84201D0B0420CD15C
:100C80004FEAD9204FEAC020A10A40EA411100985A
:100C900041EAD02050E748464EE74846BDE8F84FC5
:100CA000C1E5A0488088A0F5134141390FD0A0F5D7
:100CB000D04104390BD0A0F5A641103907D0A0F5DA
:100CC000AA41103905D040F27311072062E52920AE
:100CD00001E04FF42450E5E492488088A0F51341E8
:100CE00041390ED0A0F5D04104390AD0A0F5A64173
:100CF000103906D0A0F5AA41103904D000210720F0
:100D000048E5282001E04FF42050CBE42DE9F047DE
:100D1000844C00252146A379898846F60402012BDC
:100D200018D1914216D0082814D2DFE800F004064A
:100D3000080A0C0E101206200CE007200AE004201E
:100D400008E0052006E0012004E0002002E0032086
:100D500000E00220A1F5134645F2103345F2105889
:100D6000413E05D0914203D0994201D041457DD109
:100D7000082812D2DFE800F0110406080A0C0E1051
:100D800080250AE0402508E0C02506E0202504E093
:100D9000602502E0A02500E0E025414502D14FF4A6
:100DA000585000E03620994203D0414501D045F02B
:100DB0000805914201D145F002052946FFF7EAFCFA
:100DC000A8062088618802D5884202D303E08842C1
:100DD00001D921806080A0884FF480756E00404565
:100DE000524FDFF8449160897ED1FFF75BFC2946C2
:100DF000B846384606F03BFE3146404606F039FE1E
:100E000000214F46484606F03BFE8021404606F052
:100E100030FE8021404606F02AFE3146404606F06C
:100E200026FE6089401C80B2FFF73CFC2946404604
:100E300006F01DFE3146404606F01BFE00213846F6
:100E400006F01EFE8021404606F013FE802140463B
:100E500006F00DFE3146404606F009FE6089801C12
:100E600080B2FFF71FFC2946404600E071E106F022
:100E7000FEFD3146404606F0FCFD2088401EC0F3D2
:100E80000F21384606F0FCFD8021404606F0F1FDBA
:100E90008021404606F0EBFD3146404606F0E7FD76
:100EA0006089C01C80B2FFF7FDFB2946404606F072
:100EB000DEFD3146404606F0DCFD2078401EC1B222
:100EC000384606F0DDFD8021404606F0D2FD802147
:100ED000404606F0CCFD3146404606F0C8FDA089EC
:100EE000FFF7E0FB294600E060E0404606F0BFFD6A
:100EF0003146404606F0BDFD0021384606F0C0FDF3
:100F00008021404606F0B5FD8021404606F0AFFD49
:100F10003146404606F0ABFDA089401C80B2FFF789
:100F2000C1FB05E068210020000C014000100140D9
:100F30002946404606F09BFD3146404606F099FDA5
:100F40000021384606F09CFD8021404606F091FDC8
:100F50008021404606F08BFD3146404606F087FD75
:100F6000A089801C80B2FFF79DFB2946404606F011
:100F70007EFD3146404606F07CFD6088401EC0F391
:100F80000F21384606F07CFD8021404606F071FDB9
:100F90008021404606F06BFD3146404606F067FD75
:100FA000A089C01C80B2FFF77DFBB6E0FFF77AFB9B
:100FB0002946B846384606F05AFD3146404606F006
:100FC00058FD00214F46484606F05AFD8021404614
:100FD00006F04FFD8021404606F049FD314640466F
:100FE00006F045FD2946404606F041FD31464046A3
:100FF00006F03FFD0021384606F042FD80214046C4
:1010000006F037FD8021404606F031FD314640466E
:1010100006F02DFD2946404606F029FD31464046A2
:1010200006F027FD2088401EC0F30F21384606F049
:1010300027FD8021404606F01CFD8021404606F039
:1010400016FD3146404606F012FD2946404606F0A0
:101050000EFD3146404606F00CFD2078401EC1B220
:10106000384606F00DFD8021404606F002FD802145
:10107000404606F0FCFC3146404606F0F8FCA089EC
:10108000FFF710FB2946404606F0F1FC314640468A
:1010900006F0EFFC0021384606F0F2FC80214046C5
:1010A00006F0E7FC8021404606F0E1FC3146404670
:1010B00006F0DDFC2946404606F0D9FC31464046A4
:1010C00006F0D7FC0021384606F0DAFC80214046C5
:1010D00006F0CFFC8021404606F0C9FC3146404670
:1010E00006F0C5FC2946404606F0C1FC31464046A4
:1010F00006F0BFFC6088401EC0F30F21384606F0A2
:10110000BFFC8021404606F0B4FC8021404606F03A
:10111000AEFC3146404606F0AAFC2946404606F0A1
:10112000A6FC3146404606F0A4FCA078401EC1B2A1
:10113000384606F0A5FC8021404606F09AFC802146
:10114000404606F094FC31464046BDE8F04706F0C4
:101150008EBC082812D2DFE800F0040608110A0C41
:101160000E1030250AE0102508E0202506E038257D
:1011700004E0282502E0182500E00825A1F5094033
:10118000893806D0032045F48051BDE8F047FFF7C9
:1011900001BB112046F240012943F6E770B5FFF785
:1011A0004BFBFFF71EFBFE4C4FF48071204606F010
:1011B0005EFC65152946204606F05BFCF94AFA48B4
:1011C000118806F05DFC8021204606F052FC80214B
:1011D000204606F04CFC29462046BDE8704006F04B
:1011E00046BC2DE9F74FF14E044682B0B388080A99
:1011F000009030460D46DFF8A883DFF8ACA34089A5
:10120000A3F513414FF480774FF400794FEA142B84
:10121000413914D0A3F5A641103910D0A3F5AA4145
:10122000103918D03246A3F5D04C91791288121B90
:10123000521EBCF1040C66D001297CD0CFE0FFF730
:1012400031FA3946404606F012FC4946404606F05F
:1012500010FC594665E0FFF725FA3946404606F08E
:1012600006FC4946404606F004FC5946504606F046
:1012700007FC8021404606F0FCFB8021404606F03A
:10128000F6FB4946404606F0F2FB7089401C80B2EE
:10129000FFF708FA3946404606F0E9FB4946404662
:1012A00006F0E7FBE1B2504606F0EAFB802140463B
:1012B00006F0DFFB8021404606F0D9FB4946404658
:1012C00006F0D5FBB089FFF7EDF93946404606F048
:1012D000CEFB4946404606F0CCFB5046009906F04E
:1012E000CFFB8021404606F0C4FB8021404606F03B
:1012F000BEFB4946404606F0BAFBB089401C80B2AE
:10130000FFF7D0F951E0012900D194B2FFF7CAF9F3
:101310003946404606F0ABFB4946404606F0A9FB7D
:10132000210A504606F0ACFB8021404606F0A1FBA6
:101330008021404600E051E006F099FB49464046D6
:1013400006F095FB3946404606F091FB494640467B
:1013500006F08FFBE1B2504606F092FB802140463A
:1013600006F087FB8021404606F081FB4946404657
:1013700006F07DFBB089FFF795F93946404606F047
:1013800076FB4946404606F074FB5046009906F04D
:1013900077FB8021404606F06CFB8021404606F03A
:1013A00066FB4946404606F062FB3946404606F079
:1013B0005EFB4946404606F05CFBE9B2504606F04B
:1013C0005FFB8021404606F054FB8021404606F03A
:1013D0004EFB4946404606F04AFB07E094B22146E0
:1013E000FFF7D8F9B0892946FFF7D4F939464446C2
:1013F000404606F03EFB4D464946204606F039FB86
:1014000031895646504606F03BFB8021204606F0C7
:1014100030FB8021204606F02AFB2946204606F0B4
:1014200026FB3946204606F022FB2946204606F0D8
:1014300020FB3046049906F023FB8021204606F06D
:1014400018FB8021204606F012FB05B029462046F5
:10145000BDE8F04F06F00BBB2DE9F05F53492C239C
:101460002A242B2522222126898848F689194FF023
:101470004E0A4FF04F0B45F2105EF02749F241380B
:10148000F8B14A484FF0010C414580F806C04FF4CE
:10149000A07CA0F800C047800FD0A1F5A647103F60
:1014A0000BD0A1F5D047043F4ED0494550D1028121
:1014B000A0F80AB0A0F80CA060E003814481858107
:1014C0005CE03A484FF0000C414580F806C00780C8
:1014D0004FF4A077478011D0A1F5D04CBCF1040C9B
:1014E0000CD0A1F5A04CBCF5447C07D0494514D1E3
:1014F0000281A0F80AA0A0F80CB04CE0038144815E
:10150000A1F5D0428581043A03D0A1F5A642103A54
:1015100041D107804FF4F0710FE071450FD14FF4C6
:10152000305101814FF4285141814FF42C51818178
:101530004FF4F07101804FF4487141802BE002813B
:1015400020214181868126E003814581848115E047
:1015500071450FD14FF4305202814FF4285242812D
:101560004FF42C5282814FF4487202804FF4F07293
:10157000428003E00281468120228281A1F5D0428F
:10158000043A03D0A1F5A642103A04D14FF4F07109
:101590000180A0F802C0BDE8F05F0020FFF7B6BBF5
:1015A0000010014016000020000C014068210020BE
:1015B0002DE9F05F07461044401E85B2C818401E52
:1015C0000E4684B2FE4A4FEA112A11469088498994
:1015D000A0F513434FF4807B4FEA1729413B30D0ED
:1015E000A0F5A643103B2CD0A0F5D043043B28D057
:1015F000A0F5AA43103B7DD0917901297BD0A84664
:1016000039463546A0F50942893A75D050204FF049
:10161000510B4FF0520A53229146FFF7BBF8414657
:101620005846FFF7B7F829465046FFF7B3F821466A
:101630004846FFF7AFF831463846BDE8F05FFFF7A0
:10164000FBB80846FFF72EF84FF48071DD4806F02E
:101650000EFA4FF4007B5946DA4806F00AFADFF832
:1016600068834946404606F00BFA8021D54806F0CB
:1016700000FA8021D34806F0FAF95946D14806F01D
:10168000F6F94FF48071CF4806F0F1F95946CD488C
:1016900006F0EFF9F9B2404606F0F2F98021C948A8
:1016A00006F0E7F98021C74806F0E1F95946C54838
:1016B00006F0DDF94FF48071C24806F0D8F95946BA
:1016C000C04806F0D6F9290A404606F0D9F980212B
:1016D000BC4806F0CEF98021BA4806F0C8F9594650
:1016E000B84806F0C4F94FF48071B64806F0BFF967
:1016F000594602E07AE08BE180E1B24806F0B9F9A0
:10170000E9B2404606F0BCF98021AE4806F0B1F9D6
:101710008021AC4806F0ABF95946AA4806F0A7F973
:10172000A7488089FEF7BEFF4FF48071A54806F0F8
:101730009EF95946A34806F09CF95146404606F0EA
:101740009FF980219F4806F094F980219D4806F07A
:101750008EF959469B4806F08AF94FF480719948F2
:1017600006F085F95946974806F083F9F1B24046EC
:1017700006F086F98021934806F07BF98021914894
:1017800006F075F959468F4806F071F94FF48071EB
:101790008C4806F06CF959468A4806F06AF9210A25
:1017A000404606F06DF98021864806F062F98021F6
:1017B000844806F05CF95946824806F058F94FF41F
:1017C0008071804806F053F959467E4806F051F979
:1017D000E1B2404606F054F980217A4806F049F912
:1017E0008021784806F043F9594602E190460846C0
:1017F000FEF758FF5946734806F039F94FF4007167
:10180000704806F036F94946DFF8BC91484606F0C4
:1018100037F980216B4806F02CF98021694806F0E1
:1018200026F94FF40071674806F021F9B8F80A006C
:10183000401C80B2FEF736FF5946624806F017F9A1
:101840004FF400715F4806F014F9F9B2484606F00B
:1018500017F980215B4806F00CF98021594806F001
:1018600006F94FF40071574806F001F9B8F80A007C
:10187000801C80B2FEF716FF5946524806F0F7F872
:101880004FF400714F4806F0F4F8290A484606F074
:10189000F7F880214B4806F0ECF88021494806F023
:1018A000E6F84FF40071474806F0E1F8B8F80A008E
:1018B000C01C80B2FEF7F6FE5946424806F0D7F843
:1018C0004FF400713F4806F0D4F8E9B2484606F0FC
:1018D000D7F880213B4806F0CCF88021394806F043
:1018E000C6F84FF40071374806F0C1F8B8F80C009C
:1018F000FEF7D8FE5946334806F0B9F84FF40071A8
:10190000304806F0B6F85146484606F0B9F880214E
:101910002C4806F0AEF880212A4806F0A8F84FF4CB
:101920000071284806F0A3F8B8F80C00401C80B2FB
:10193000FEF7B8FE5946234806F099F84FF40071B7
:10194000204806F096F8F1B2484606F099F8802152
:101950001C4806F08EF880211A4806F088F84FF4EB
:101960000071184806F083F8B8F80C00801C80B2AB
:10197000FEF798FE5946134806F079F84FF40071C7
:10198000104806F076F8210A484606F079F88021DA
:101990000C4806F06EF880210A4806F068F84FF40B
:1019A0000071084806F063F8B8F80C00C01C80B25B
:1019B000FEF778FE5946034806F059F806E00000A5
:1019C0006821002000100140000C01404FF400711C
:1019D000FE4806F04EF8E1B2484606F051F8802184
:1019E000FA4806F046F88021F84806F040F84FF42F
:1019F0000071BDE8F05FF54806F039B8442041EACF
:101A0000082189B2834688464FF0450A462203E6FC
:101A10001288A046531B5B1ED21B521E31469DB23C
:101A200094B2EFE52DE9F047E94E82460024308874
:101A300075884543B088A0F5D041043902D1B0790A
:101A400001280CD000210846FEF7F6FEFEF7C9FE7D
:101A5000DE4E4FF480787715DFF8789329E0002088
:101A6000B0712A2777814FF02B08A6F80C80014629
:101A7000FEF7E2FE0120B071A6F80A80B781E5E723
:101A80004146304605F0F3FF3946304605F0F1FF98
:101A90005146484605F0F4FF8021304605F0E9FF45
:101AA0008021304605F0E3FF3946304605F0DFFF80
:101AB000641CAC42E4D3BDE8F0872DE9F84F012166
:101AC000192006F052F90121C34805F0F1FF4FF447
:101AD000F864ADF8004010208DF803000320BB4DE2
:101AE0008DF802006946284605F057FF2146284632
:101AF00005F0BDFFB74C4FF6FF75ADF800506946D5
:101B0000204605F04AFF2946204605F0B0FF322066
:101B100005F025FD01210020FEF73CFE322005F0F6
:101B20001EFD0020FEF757FEA94C49F2413646F64D
:101B30000408A08045F2103945F21057FF2804D35D
:101B4000A84202D0B0F5134F56D1D320FEF7AAFD1C
:101B5000FEF7E6FDFEF7E4FDFEF7E2FD05EA0020F4
:101B6000A080FEF7DDFDA1880843A080B04243D0ED
:101B7000BF20FEF797FDFEF7D3FDFEF7D1FDFEF780
:101B8000CFFDFEF7CDFD05EA0020A080FEF7C8FDE1
:101B9000A1880843A08040452ED0D420FEF782FDC6
:101BA000FEF7BEFDFEF7BCFDFEF7BAFD05EA00201C
:101BB000A080FEF7B5FDA1880843A08048451BD052
:101BC0004FF45A40FEF76EFDFEF7AAFD4FF45B405E
:101BD000FEF768FDFEF7A4FD05EA0020A0804FF4A3
:101BE0005C40FEF75FFDFEF79BFDA1880843A080E7
:101BF000B0F5004F00D1A780A18878A024F054FF51
:101C0000A088B0427ED1CF20FEF74CFD0020FEF729
:101C100068FDC120FEF765FD3020FEF762FDED2076
:101C2000FEF740FD6420FEF75CFD0320FEF759FD42
:101C30001220FEF756FD8120FEF753FDE820FEF747
:101C400031FD8520FEF74DFD1020FEF74AFD7A207C
:101C5000FEF747FDCB20FEF725FD3920FEF741FDBD
:101C60002C20FEF73EFD0020FEF73BFD3420FEF762
:101C700038FD0220FEF735FDF720FEF713FD20208A
:101C8000FEF72FFDEA20FEF70DFD0020FEF729FDEF
:101C90000020FEF726FDC020FEF704FD1B20FEF706
:101CA00020FDC120FEF7FEFC0120FEF71AFDC52035
:101CB000FEF7F8FC3020FEF714FD3020FEF711FD92
:101CC000C720FEF7EFFCB720FEF70BFD3620FEF72E
:101CD000E9FC4820FEF705FD3A20FEF7E3FC55201D
:101CE000FEF7FFFCB120FEF7DDFC0020FEF7F9FC5B
:101CF0001A20FEF7F6FCB620FEF7D4FC0A20FEF709
:101D0000F0FC00E0A2E0A220FEF7EBFCF220FEF7E0
:101D1000C9FC0020FEF7E5FC2620FEF7C3FC0120ED
:101D2000FEF7DFFCE020FEF7BDFC0F20FEF7D9FC3C
:101D30002A20FEF7D6FC2820FEF7D3FC0820FEF769
:101D4000D0FC0E20FEF7CDFC0820FEF7CAFC542084
:101D5000FEF7C7FCA920FEF7C4FC4320FEF7C1FC38
:101D60000A20FEF7BEFC0F20FEF7BBFC0020FEF7AA
:101D7000B8FC0020FEF7B5FC0020FEF7B2FC002006
:101D8000FEF7AFFCE120FEF78DFC0020FEF7A9FC7A
:101D90001520FEF7A6FC1720FEF7A3FC0720FEF790
:101DA000A0FC1120FEF79DFC0620FEF79AFC2B20DC
:101DB000FEF797FC5620FEF794FC3C20FEF791FCC2
:101DC0000520FEF78EFC102010E0000000100140FE
:101DD00068210020000C014000023000204C4344E8
:101DE0002049443A25780D0A00000000FEF779FCEE
:101DF0000F20FEF776FC3F20FEF773FC3F20FEF736
:101E000070FC0F20FEF76DFC2B20FEF74BFC002032
:101E1000FEF767FC0020FEF764FC0120FEF761FC82
:101E20003F20FEF75EFC2A20FEF73CFC0020FEF778
:101E300058FC0020FEF755FC0020FEF752FCEF2076
:101E4000FEF74FFC1120FEF72DFCA5E040457CD1AC
:101E50001120FEF727FC142005F081FBD020FEF7AF
:101E600021FC0720FEF73DFC4220FEF73AFC1D2036
:101E7000FEF737FCD120FEF715FC0020FEF731FC01
:101E80001A20FEF72EFC0920FEF72BFCD220FEF7CD
:101E900009FC0120FEF725FC2220FEF722FCC020D1
:101EA000FEF700FC1020FEF71CFC3B20FEF719FC9F
:101EB0000020FEF716FC0220FEF713FC1120FEF7AF
:101EC00010FCC520FEF7EEFB0320FEF70AFCC8203D
:101ED000FEF7E8FB0020FEF704FC2520FEF701FCDE
:101EE0002120FEF7FEFB0520FEF7FBFB0020FEF79E
:101EF000F8FB0A20FEF7F5FB6520FEF7F2FB252034
:101F0000FEF7EFFB7720FEF7ECFB5020FEF7E9FB36
:101F10000F20FEF7E6FB0020FEF7E3FBF820FEF7BC
:101F2000C1FB0120FEF7DDFBFE20FEF7BBFB00201E
:101F3000FEF7D7FB0220FEF7D4FB2020FEF7B2FB12
:101F40003620FEF7AFFB082000E02BE0FEF7C9FBD0
:101F50003A20FEF7A7FB5520FEF7C3FB2B20FEF728
:101F6000A1FB0020FEF7BDFB0020FEF7BAFB01201D
:101F7000FEF7B7FB3F20FEF7B4FB2A20FEF792FBEB
:101F80000020FEF7AEFB0020FEF7ABFB0120FEF7C2
:101F9000A8FBDF20FEF7A5FB782005F0E0FA29205A
:101FA00001F0FCBE48457CD1ED20FEF77BFB012013
:101FB000FEF797FBFE20FEF794FBEE20FEF772FB88
:101FC000DE20FEF78EFB2120FEF78BFBF120FEF7D3
:101FD00069FB0120FEF785FBDF20FEF763FB102085
:101FE000FEF77FFBC420FEF75DFB8F20FEF779FB39
:101FF000C620FEF757FB0020FEF773FBE220FEF73A
:1020000070FBE220FEF76DFBE220FEF76AFBBF20CB
:10201000FEF748FBAA20FEF764FBB020FEF742FB68
:102020000D20FEF75EFB0020FEF75BFB0D20FEF7A8
:1020300058FB0020FEF755FB1120FEF752FB002055
:10204000FEF74FFB1920FEF74CFB0020FEF749FB83
:102050002120FEF746FB0020FEF743FB2D20FEF774
:1020600040FB0020FEF73DFB3D20FEF73AFB002041
:10207000FEF737FB5D20FEF734FB0020FEF731FB57
:102080005D20FEF72EFB0020FEF72BFBB120FEF7B4
:1020900009FB8020FEF725FB0020FEF722FB8B20AA
:1020A00000E0FCE3FEF71DFB0020FEF71AFB962084
:1020B000FEF717FB0020FEF714FBB220FEF7F2FA42
:1020C0000020FEF70EFB0020FEF70BFB0220FEF7C0
:1020D00008FB0020FEF705FB0320FEF702FB0020B3
:1020E000FEF7FFFAB320FEF7DDFA0020FEF7F9FA5B
:1020F0000020FEF7F6FA0020FEF7F3FA0020FEF7C4
:10210000F0FA0020FEF7EDFA0020FEF7EAFA0020D0
:10211000FEF7E7FA0020FEF7E4FA0020FEF7E1FA06
:102120000020FEF7DEFA0020FEF7DBFA0020FEF7C3
:10213000D8FA0020FEF7D5FA0020FEF7D2FA0020E8
:10214000FEF7CFFA0020FEF7CCFA0020FEF7C9FA1E
:102150000020FEF7C6FA0020FEF7C3FA0020FEF7C3
:10216000C0FA0020FEF7BDFA0020FEF7BAFA002000
:10217000FEF7B7FA0020FEF7B4FAB420FEF792FAA1
:102180008B20FEF7AEFA0020FEF7ABFA9620FEF7A2
:10219000A8FA0020FEF7A5FAA120FEF7A2FA002077
:1021A000FEF79FFAB520FEF77DFA0220FEF799FAB6
:1021B0000020FEF796FA0320FEF793FA0020FEF7C0
:1021C00090FA0420FEF78DFA0020FEF78AFAB62076
:1021D000FEF768FA0020FEF784FA0020FEF781FA85
:1021E000B720FEF75FFA0020FEF77BFA0020FEF72B
:1021F00078FA3F20FEF775FA0020FEF772FA5E20AB
:10220000FEF76FFA0020FEF76CFA6420FEF769FA19
:102210000020FEF766FA8C20FEF763FA0020FEF736
:1022200060FAAC20FEF75DFA0020FEF75AFADC20D7
:10223000FEF757FA0020FEF754FA7020FEF751FA25
:102240000020FEF74EFA9020FEF74BFA0020FEF732
:1022500048FAEB20FEF745FA0020FEF742FADC20B0
:10226000FEF73FFA0020FEF73CFAB820FEF71AFA14
:102270000020FEF736FA0020FEF733FA0020FEF7C2
:1022800030FA0020FEF72DFA0020FEF72AFA00208F
:10229000FEF727FA0020FEF724FA0020FEF721FAC5
:1022A000BA20FEF7FFF92420FEF71BFA0020FEF704
:1022B00018FA0020FEF715FA0020FEF712FAC120E6
:1022C000FEF7F0F92020FEF70CFA0020FEF709FADD
:1022D0005420FEF706FA0020FEF703FAFF20FEF76F
:1022E00000FA0020FEF7FDF9C220FEF7DBF90A2014
:1022F000FEF7F7F90020FEF7F4F90420FEF7F1F9F4
:102300000020FEF7EEF9C320FEF7CCF93C20FEF7E3
:10231000E8F90020FEF7E5F93A20FEF7E2F900209F
:10232000FEF7DFF93920FEF7DCF90020FEF7D9F9D6
:102330003720FEF7D6F90020FEF7D3F93C20FEF750
:10234000D0F90020FEF7CDF93620FEF7CAF90020BB
:10235000FEF7C7F93220FEF7C4F90020FEF7C1F9F5
:102360002F20FEF7BEF90020FEF7BBF92C20FEF768
:10237000B8F90020FEF7B5F92920FEF7B2F90020E0
:10238000FEF7AFF92620FEF7ACF90020FEF7A9F919
:102390002420FEF7A6F90020FEF7A3F92420FEF77B
:1023A000A0F90020FEF79DF92320FEF79AF90020FE
:1023B000FEF797F93C20FEF794F90020FEF791F91B
:1023C0003620FEF78EF90020FEF78BF93220FEF75B
:1023D00088F90020FEF785F92F20FEF782F900200A
:1023E000FEF77FF92C20FEF77CF90020FEF779F943
:1023F0002920FEF776F90020FEF773F92620FEF774
:1024000070F90020FEF76DF92420FEF76AF900202C
:10241000FEF767F92420FEF764F90020FEF761F962
:102420002320FEF75EF90020FEF75BF9C420FEF7DB
:1024300039F96220FEF755F90020FEF752F9052020
:10244000FEF74FF90020FEF74CF98420FEF749F91A
:102450000020FEF746F9F020FEF743F90020FEF7D2
:1024600040F91820FEF73DF90020FEF73AF9A420C4
:10247000FEF737F90020FEF734F91820FEF731F99E
:102480000020FEF72EF95020FEF72BF90020FEF772
:1024900028F90C20FEF725F90020FEF722F9172075
:1024A000FEF71FF90020FEF71CF99520FEF719F939
:1024B0000020FEF716F9F320FEF713F90020FEF7CF
:1024C00010F9E620FEF70DF90020FEF70AF9C52005
:1024D000FEF7E8F83220FEF704F90020FEF701F9D4
:1024E0004420FEF7FEF80020FEF7FBF86520FEF71B
:1024F000F8F80020FEF7F5F87620FEF7F2F8002055
:10250000FEF7EFF88820FEF7ECF80020FEF7E9F878
:10251000C620FEF7C7F82020FEF7E3F80020FEF7FC
:10252000E0F81720FEF7DDF80020FEF7DAF80120CA
:10253000FEF7D7F80020FEF7D4F8C720FEF7B2F870
:102540000020FEF7CEF80020FEF7CBF80020FEF7C3
:10255000C8F80020FEF7C5F8C820FEF7A3F8002051
:10256000FEF7BFF80020FEF7BCF80020FEF7B9F830
:102570000020FEF7B6F8C920FEF794F80020FEF719
:10258000B0F80020FEF7ADF80020FEF7AAF8002012
:10259000FEF7A7F80020FEF7A4F80020FEF7A1F848
:1025A0000020FEF79EF80020FEF79BF80020FEF7C3
:1025B00098F80020FEF795F80020FEF792F800202A
:1025C000FEF78FF80020FEF78CF80020FEF789F860
:1025D0000020FEF786F80020FEF783F8E020FEF7E3
:1025E00061F81620FEF77DF80020FEF77AF81C202F
:1025F000FEF777F80020FEF774F82120FEF771F857
:102600000020FEF76EF83620FEF76BF80020FEF78C
:1026100068F84620FEF765F80020FEF762F85220C1
:10262000FEF75FF80020FEF75CF86420FEF759F82B
:102630000020FEF756F87A20FEF753F80020FEF748
:1026400050F88B20FEF74DF80020FEF74AF899204D
:10265000FEF747F80020FEF744F8A820FEF741F8FF
:102660000020FEF73EF8B920FEF73BF80020FEF709
:1026700038F8C420FEF735F80020FEF732F8CA20FB
:10268000FEF72FF80020FEF72CF8D220FEF729F8ED
:102690000020FEF726F8D920FEF723F80020FEF7E9
:1026A00020F8E020FEF71DF80020FEF71AF8F320CE
:1026B000FEF717F80020FEF714F8E120FDF7F2FF0F
:1026C0001620FEF70EF80020FEF70BF81C20FEF790
:1026D00008F80020FEF705F82220FEF702F8002097
:1026E000FDF7FFFF3620FDF7FCFF0020FDF7F9FFA7
:1026F0004520FDF7F6FF0020FDF7F3FF5220FDF720
:10270000F0FF0020FDF7EDFF6420FDF7EAFF002059
:10271000FDF7E7FF7A20FDF7E4FF0020FDF7E1FF7A
:102720008B20FDF7DEFF0020FDF7DBFF9920FDF792
:10273000D8FF0020FDF7D5FFA820FDF7D2FF00202D
:10274000FDF7CFFFB920FDF7CCFF0020FDF7C9FF53
:10275000C420FDF7C6FF0020FDF7C3FFCA20FDF728
:10276000C0FF0020FDF7BDFFD220FDF7BAFF00201B
:10277000FDF7B7FFD820FDF7B4FF0020FDF7B1FF4C
:10278000E020FDF7AEFF0020FDF7ABFFF320FDF7E3
:10279000A8FF0020FDF7A5FFE220FDF783FF05203D
:1027A000FDF79FFF0020FDF79CFF0B20FDF799FF31
:1027B0000020FDF796FF1B20FDF793FF0020FDF79B
:1027C00090FF3420FDF78DFF0020FDF78AFF4420A5
:1027D000FDF787FF0020FDF784FF4F20FDF781FF05
:1027E0000020FDF77EFF6120FDF77BFF0020FDF755
:1027F00078FF7920FDF775FF0020FDF772FF882034
:10280000FDF76FFF0020FDF76CFF9720FDF769FFD4
:102810000020FDF766FFA620FDF763FF0020FDF70F
:1028200060FFB720FDF75DFF0020FDF75AFFC220D3
:10283000FDF757FF0020FDF754FFC720FDF751FFBC
:102840000020FDF74EFFD120FDF74BFF0020FDF7E4
:1028500048FFD620FDF745FF0020FDF742FFDD20B1
:10286000FDF73FFF0020FDF73CFFF320FDF739FFA8
:102870000020FDF736FFE320FDF714FF0520FDF7EC
:1028800030FF0020FDF72DFF0A20FDF72AFF002072
:10289000FDF727FF1C20FDF724FF002000E0FDE2EC
:1028A000FDF71FFF3320FDF71CFF0020FDF719FF88
:1028B0004420FDF716FF0020FDF713FF5020FDF721
:1028C00010FF0020FDF70DFF6220FDF70AFF00203A
:1028D000FDF707FF7820FDF704FF0020FDF701FF5B
:1028E0008820FDF7FEFE0020FDF7FBFE9720FDF798
:1028F000F8FE0020FDF7F5FEA620FDF7F2FE002011
:10290000FDF7EFFEB720FDF7ECFE0020FDF7E9FE36
:10291000C220FDF7E6FE0020FDF7E3FEC720FDF72D
:10292000E0FE0020FDF7DDFED120FDF7DAFE0020FD
:10293000FDF7D7FED520FDF7D4FE0020FDF7D1FE30
:10294000DD20FDF7CEFE0020FDF7CBFEF320FDF7E6
:10295000C8FE0020FDF7C5FEE420FDF7A3FE012020
:10296000FDF7BFFE0020FDF7BCFE0120FDF7B9FE1C
:102970000020FDF7B6FE0220FDF7B3FE0020FDF7B4
:10298000B0FE2A20FDF7ADFE0020FDF7AAFE3C2098
:10299000FDF7A7FE0020FDF7A4FE4B20FDF7A1FEEA
:1029A0000020FDF79EFE5D20FDF79BFE0020FDF759
:1029B00098FE7420FDF795FE0020FDF792FE84201E
:1029C000FDF78FFE0020FDF78CFE9320FDF789FEBA
:1029D0000020FDF786FEA220FDF783FE0020FDF714
:1029E00080FEB320FDF77DFE0020FDF77AFEBE20BD
:1029F000FDF777FE0020FDF774FEC420FDF771FEA1
:102A00000020FDF76EFECD20FDF76BFE0020FDF7E8
:102A100068FED320FDF765FE0020FDF762FEDD2095
:102A2000FDF75FFE0020FDF75CFEF320FDF759FE89
:102A30000020FDF756FEE520FDF734FE0020FDF7EF
:102A400050FE0020FDF74DFE0020FDF74AFE00205D
:102A5000FDF747FE0220FDF744FE0020FDF741FE92
:102A60002920FDF73EFE0020FDF73BFE3C20FDF750
:102A700038FE0020FDF735FE4B20FDF732FE00202A
:102A8000FDF72FFE5D20FDF72CFE0020FDF729FE4F
:102A90007420FDF726FE0020FDF723FE8420FDF7BD
:102AA00020FE0020FDF71DFE9320FDF71AFE0020FA
:102AB000FDF717FEA220FDF714FE0020FDF711FE22
:102AC000B320FDF70EFE0020FDF70BFEBE20FDF744
:102AD00008FE0020FDF705FEC420FDF702FE0020E1
:102AE000FDF7FFFDCD20FDF7FCFD0020FDF7F9FD12
:102AF000D320FDF7F6FD0020FDF7F3FDDC20FDF708
:102B0000F0FD0020FDF7EDFDF320FDF7EAFD0020CC
:102B1000FDF7E7FDE620FDF7C5FD1120FDF7E1FD1E
:102B20000020FDF7DEFD3420FDF7DBFD0020FDF782
:102B3000D8FD5620FDF7D5FD0020FDF7D2FD76200B
:102B4000FDF7CFFD0020FDF7CCFD7720FDF7C9FD97
:102B50000020FDF7C6FD6620FDF7C3FD0020FDF750
:102B6000C0FD8820FDF7BDFD0020FDF7BAFD9920CE
:102B7000FDF7B7FD0020FDF7B4FDBB20FDF7B1FD6B
:102B80000020FDF7AEFD9920FDF7ABFD0020FDF71D
:102B9000A8FD6620FDF7A5FD0020FDF7A2FD55204C
:102BA000FDF79FFD0020FDF79CFD5520FDF799FDE9
:102BB0000020FDF796FD4520FDF793FD0020FDF771
:102BC00090FD4320FDF78DFD0020FDF78AFD442098
:102BD000FDF787FD0020FDF784FDE720FDF762FD8E
:102BE0003220FDF77EFD0020FDF77BFD5520FDF72F
:102BF00078FD0020FDF775FD7620FDF772FD0020C1
:102C0000FDF76FFD6620FDF76CFD0020FDF769FD07
:102C10006720FDF766FD0020FDF763FD6720FDF7E7
:102C200060FD0020FDF75DFD8720FDF75AFD0020C7
:102C3000FDF757FD9920FDF754FD0020FDF751FDEC
:102C4000BB20FDF74EFD0020FDF74BFD9920FDF761
:102C500048FD0020FDF745FD7720FDF742FD0020EF
:102C6000FDF73FFD4420FDF73CFD0020FDF739FD59
:102C70005620FDF736FD0020FDF733FD2320FDF73C
:102C800030FD0020FDF72DFD3320FDF72AFD00204B
:102C9000FDF727FD4520FDF724FD0020FDF721FD70
:102CA000E820FDF7FFFC0020FDF71BFD0020FDF7ED
:102CB00018FD9920FDF715FD0020FDF712FD872076
:102CC000FDF70FFD0020FDF70CFD8820FDF709FD45
:102CD0000020FDF706FD7720FDF703FD0020FDF73E
:102CE00000FD6620FDF7FDFC0020FDF7FAFC8820C2
:102CF000FDF7F7FC0020FDF7F4FCAA20FDF7F1FC3E
:102D00000020FDF7EEFCBB20FDF7EBFC0020FDF7FB
:102D1000E8FC9920FDF7E5FC0020FDF7E2FC6620C9
:102D2000FDF7DFFC0020FDF7DCFC5520FDF7D9FCAA
:102D30000020FDF7D6FC5520FDF7D3FC0020FDF761
:102D4000D0FC4420FDF7CDFC0020FDF7CAFC442058
:102D5000FDF7C7FC0020FDF7C4FC5520FDF7C1FCC2
:102D60000020FDF7BEFCE920FDF79CFCAA20FDF742
:102D7000B8FC0020FDF7B5FC0020FDF7B2FC0020F8
:102D8000FDF7AFFC0020FDF78DFCAA20FDF7A9FCA4
:102D9000CF20FDF787FC0020FDF7A3FC0020FDF706
:102DA000A0FC0020FDF79DFC0020FDF79AFC002010
:102DB000FDF797FC0020FDF794FC0020FDF791FC47
:102DC0000020FDF78EFC0020FDF78BFC0020FDF7B6
:102DD00088FC0020FDF785FC0020FDF782FC002028
:102DE000FDF77FFC0020FDF77CFC0020FDF779FC5F
:102DF0000020FDF776FC0020FDF773FCF020FDF7C6
:102E000051FC0020FDF76DFC5020FDF76AFC00200E
:102E1000FDF767FC0020FDF764FC0020FDF761FC76
:102E2000F320FDF73FFC0020FDF75BFCF920FDF7E8
:102E300039FC0620FDF755FC1020FDF752FC292037
:102E4000FDF74FFC0020FDF74CFC3A20FDF72AFC73
:102E50005520FDF746FC1120FDF724FC642004F00A
:102E60007EFB2920FDF71EFC3520FDF71BFC002012
:102E7000FDF737FC5120FDF715FCFF20FDF731FC75
:102E80005320FDF70FFC2C20FDF72BFC5520FDF700
:102E900009FC8220FDF725FC2C20FCE3B8427DD103
:102EA0004FF4704455212046FDF774FC661CAA219E
:102EB0003046FDF76FFCA71C52213846FDF76AFC2F
:102EC0004FF2030808214046FDF764FC4FF2040965
:102ED00001214846FDF75EFC0D214FF43040FDF71F
:102EE00059FC0D214BF20100FDF754FC0D214BF272
:102EF0000200FDF74FFC4FF4364A34215046FDF7EF
:102F000049FC34214BF20160FDF744FC34214BF2C3
:102F10000260FDF73FFC4FF4314B0D215846FDF7A1
:102F200039FC0D214BF20110FDF734FC0D214BF261
:102F30000210FDF72FFC34214FF43740FDF72AFC37
:102F400034214BF20170FDF725FC34214BF2027065
:102F5000FDF720FC00214FF43240FDF71BFC00215F
:102F60004BF20120FDF716FC00214BF20220FDF789
:102F700011FC24214FF43840FDF70CFC24214BF6C2
:102F80000100FDF707FC24214BF60200FDF702FCCF
:102F900001214FF43F40FDF7FDFB00E0FEE30F2170
:102FA0004FF43340FDF7F6FB0F214BF20130FDF7F4
:102FB000F1FB0F214BF20230FDF7ECFB34214FF413
:102FC0003940FDF7E7FB34214BF60110FDF7E2FB3A
:102FD00034214BF60210FDF7DDFB08214FF435409C
:102FE000FDF7D8FB08214BF20150FDF7D3FB082178
:102FF0004BF20250FDF7CEFB03214FF44240FDF7A8
:10300000C9FB24214FF43A40FDF7C4FB24214BF6C1
:103010000120FDF7BFFB24214BF60220FDF7BAFB90
:1030200000214FF43C40FDF7B5FB78214BF6014001
:10303000FDF7B0FB00214BF60240FDF7ABFB002192
:103040004FF43D40FDF7A6FB78214BF60150FDF70C
:10305000A1FB00214BF60250FDF79CFB00214FF431
:103060003E40FDF797FB64214BF60160FDF792FBB4
:1030700000214FF45140FDF78DFB33214DF201103B
:10308000FDF788FB00214DF20210FDF783FB342190
:103090004DF20310FDF77EFB00214DF20410FDF709
:1030A00079FB3A214DF20510FDF774FB00214DF23A
:1030B0000610FDF76FFB4A214DF20710FDF76AFB82
:1030C00000214DF20810FDF765FB5C214DF209105F
:1030D000FDF760FB00214DF20A10FDF75BFB81213B
:1030E0004DF20B10FDF756FB00214DF20C10FDF7D1
:1030F00051FBA6214DF20D10FDF74CFB00214DF2C6
:103100000E10FDF747FBE5214DF20F10FDF742FBD6
:1031100001214DF21010FDF73DFB13214DF211106E
:10312000FDF738FB01214DF21210FDF733FB54215E
:103130004DF21310FDF72EFB01214DF21410FDF797
:1031400029FB82214DF21510FDF724FB01214DF2E0
:103150001610FDF71FFBCA214DF21710FDF71AFBE1
:1031600002214DF21810FDF715FB00214DF2191048
:10317000FDF710FB02214DF21A10FDF70BFB0121A8
:103180004DF21B10FDF706FB02214DF21C10FDF75E
:1031900001FB34214DF21D10FDF7FCFA02214DF226
:1031A0001E10FDF7F7FA67214DF21F10FDF7F2FA36
:1031B00002214DF22010FDF7EDFA84214DF221108D
:1031C000FDF7E8FA02214DF22210FDF7E3FAA421FF
:1031D0004DF22310FDF7DEFA02214DF22410FDF727
:1031E000D9FAB7214DF22510FDF7D4FA02214DF29C
:1031F0002610FDF7CFFACF214DF22710FDF7CAFABE
:1032000002214DF22810FDF7C5FADE214DF22910FA
:10321000FDF7C0FA02214DF22A10FDF7BBFAF221A8
:103220004DF22B10FDF7B6FA02214DF22C10FDF7EE
:10323000B1FAFE214DF22D10FDF7ACFA03214DF24B
:103240002E10FDF7A7FA10214DF22F10FDF7A2FA6C
:1032500003214DF23010FDF79DFA33214DF231106C
:10326000FDF798FA03214DF23210FDF793FA6D2124
:103270004DF23310FDF78EFA00214FF45240FDF766
:1032800089FA33214DF20120FDF784FA00214DF235
:103290000220FDF77FFA34214DF20320FDF77AFA80
:1032A00000214DF20420FDF775FA3A214DF2052078
:1032B000FDF770FA00214DF20620FDF76BFA4A2166
:1032C0004DF20720FDF766FA00214DF20820FDF7C8
:1032D00061FA5C214DF20920FDF75CFA00214DF204
:1032E0000A20FDF757FA81214DF20B20FDF752FA23
:1032F00000214DF20C20FDF74DFAA6214DF20D20D4
:10330000FDF748FA00214DF20E20FDF743FAE521C2
:103310004DF20F20FDF73EFA01214DF21020FDF78E
:1033200039FA13214DF21120FDF734FA01214DF243
:103330001220FDF72FFA54214DF21320FDF72AFA3F
:1033400001214DF21420FDF725FA82214DF21520BE
:10335000FDF720FA01214DF21620FDF71BFACA21D4
:103360004DF21720FDF716FA02214DF21820FDF755
:1033700011FA00214DF21920FDF70CFA02214DF24D
:103380001A20FDF707FA01214DF21B20FDF702FA82
:1033900002214DF21C20FDF7FDF934214DF21D20D4
:1033A000FDF7F8F902214DF21E20FDF7F3F9672130
:1033B0004DF21F20FDF7EEF902214DF22020FDF71E
:1033C000E9F984214DF22120FDF7E4F902214DF2C3
:1033D0002220FDF7DFF9A4214DF22320FDF7DAF9D1
:1033E00002214DF22420FDF7D5F9B7214DF2252019
:1033F000FDF7D0F902214DF22620FDF7CBF9CF21C0
:103400004DF22720FDF7C6F902214DF22820FDF7E5
:10341000C1F9DE214DF22920FDF7BCF902214DF260
:103420002A20FDF7B7F9F2214DF22B20FDF7B2F972
:1034300002214DF22C20FDF7ADF9FE214DF22D2099
:10344000FDF7A8F903214DF22E20FDF7A3F9102175
:103450004DF22F20FDF79EF903214DF23020FDF7AC
:1034600099F933214DF23120FDF794F903214DF202
:103470003220FDF78FF96D214DF23320FDF78AF9E7
:1034800000214FF45340FDF785F933214DF201300F
:10349000FDF780F900214DF20230FDF77BF9342170
:1034A0004DF20330FDF776F900214DF20430FDF7BF
:1034B00071F93A214DF20530FDF76CF900214DF21A
:1034C0000630FDF767F94A214DF20730FDF762F942
:1034D00000214DF20830FDF75DF95C214DF2093015
:1034E000FDF758F900214DF20A30FDF753F981211B
:1034F0004DF20B30FDF74EF900214DF20C30FDF787
:1035000049F9A6214DF20D30FDF744F900214DF2A5
:103510000E30FDF73FF9E5214DF20F30FDF73AF996
:1035200001214DF21030FDF735F913214DF2113024
:10353000FDF730F901214DF21230FDF72BF954213E
:103540004DF21330FDF726F901214DF21430FDF74D
:1035500021F982214DF21530FDF71CF901214DF2C0
:103560001630FDF717F9CA214DF21730FDF712F9A1
:1035700002214DF21830FDF70DF900214DF21930FE
:10358000FDF708F902214DF21A30FDF703F9012188
:103590004DF21B30FDF7FEF802214DF21C30FDF715
:1035A000F9F834214DF21D30FDF7F4F802214DF207
:1035B0001E30FDF7EFF867214DF21F30FDF7EAF8F6
:1035C00002214DF22030FDF7E5F884214DF2213043
:1035D000FDF7E0F802214DF22230FDF7DBF8A421DF
:1035E0004DF22330FDF7D6F802214DF22430FDF7DD
:1035F000D1F8B7214DF22530FDF7CCF802214DF27C
:103600002630FDF7C7F8CF214DF22730FDF7C2F87D
:1036100002214DF22830FDF7BDF8DE214DF22930B0
:10362000FDF7B8F802214DF22A30FDF7B3F8F22188
:103630004DF22B30FDF7AEF802214DF22C30FDF7A4
:10364000A9F8FE214DF22D30FDF7A4F803214DF22B
:103650002E30FDF79FF810214DF22F30FDF79AF82C
:1036600003214DF23030FDF795F833214DF2313022
:10367000FDF790F803214DF23230FDF78BF86D2104
:103680004DF23330FDF786F800214FF45440FDF73A
:1036900081F8332100E081E34DF20140FDF77AF833
:1036A00000214DF20240FDF775F834214DF2034040
:1036B000FDF770F800214DF20440FDF76BF83A2158
:1036C0004DF20540FDF766F800214DF20640FDF78A
:1036D00061F84A214DF20740FDF75CF800214DF2F8
:1036E0000840FDF757F85C214DF20940FDF752F80C
:1036F00000214DF20A40FDF74DF881214DF20B40BB
:10370000FDF748F800214DF20C40FDF743F8A621E3
:103710004DF20D40FDF73EF800214DF20E40FDF751
:1037200039F8E5214DF20F40FDF734F801214DF253
:103730001040FDF72FF813214DF21140FDF72AF844
:1037400001214DF21240FDF725F854214DF21340AE
:10375000FDF720F801214DF21440FDF71BF88221FE
:103760004DF21540FDF716F801214DF21640FDF718
:1037700011F8CA214DF21740FDF70CF802214DF265
:103780001840FDF707F800214DF21940FDF702F847
:1037900002214DF21A40FCF7FDFF00E001E3012198
:1037A0004DF21B40FCF7F6FF02214DF21C40FCF7E6
:1037B000F1FF34214DF21D40FCF7ECFF02214DF2E8
:1037C0001E40FCF7E7FF67214DF21F40FCF7E2FFC8
:1037D00002214DF22040FCF7DDFF84214DF2214013
:1037E000FCF7D8FF02214DF22240FCF7D3FFA421C1
:1037F0004DF22340FCF7CEFF02214DF22440FCF7AE
:10380000C9FFB7214DF22540FCF7C4FF02214DF25C
:103810002640FCF7BFFFCF214DF22740FCF7BAFF4F
:1038200002214DF22840FCF7B5FFDE214DF2294080
:10383000FCF7B0FF02214DF22A40FCF7ABFFF2216A
:103840004DF22B40FCF7A6FF02214DF22C40FCF775
:10385000A1FFFE214DF22D40FCF79CFF03214DF20C
:103860002E40FCF797FF10214DF22F40FCF792FFFE
:1038700003214DF23040FCF78DFF33214DF23140F2
:10388000FCF788FF03214DF23240FCF783FF6D21E6
:103890004DF23340FCF77EFF00214FF45540FCF71A
:1038A00079FF33214DF20150FCF774FF00214DF2F6
:1038B0000250FCF76FFF34214DF20350FCF76AFF12
:1038C00000214DF20450FCF765FF3A214DF20550FE
:1038D000FCF760FF00214DF20650FCF75BFF4A2128
:1038E0004DF20750FCF756FF00214DF20850FCF74F
:1038F00051FF5C214DF20950FCF74CFF00214DF2C5
:103900000A50FCF747FF81214DF20B50FCF742FFB4
:1039100000214DF20C50FCF73DFFA6214DF20D5059
:10392000FCF738FF00214DF20E50FCF733FFE52184
:103930004DF20F50FCF72EFF01214DF21050FCF715
:1039400029FF13214DF21150FCF724FF01214DF204
:103950001250FCF71FFF54214DF21350FCF71AFFD1
:1039600001214DF21450FCF715FF82214DF2155044
:10397000FCF710FF01214DF21650FCF70BFFCA2196
:103980004DF21750FCF706FF02214DF21850FCF7DC
:1039900001FF00214DF21950FCF7FCFE02214DF20F
:1039A0001A50FCF7F7FE01214DF21B50FCF7F2FE16
:1039B00002214DF21C50FCF7EDFE34214DF21D505A
:1039C000FCF7E8FE02214DF21E50FCF7E3FE6721F2
:1039D0004DF21F50FCF7DEFE02214DF22050FCF7A5
:1039E000D9FE84214DF22150FCF7D4FE02214DF284
:1039F0002250FCF7CFFEA4214DF22350FCF7CAFE63
:103A000002214DF22450FCF7C5FEB7214DF225509E
:103A1000FCF7C0FE02214DF22650FCF7BBFECF2181
:103A20004DF22750FCF7B6FE02214DF22850FCF76C
:103A3000B1FEDE214DF22950FCF7ACFE02214DF221
:103A40002A50FCF7A7FEF2214DF22B50FCF7A2FE04
:103A500002214DF22C50FCF79DFEFE214DF22D501F
:103A6000FCF798FE03214DF22E50FCF793FE102137
:103A70004DF22F50FCF78EFE03214DF23050FCF733
:103A800089FE33214DF23150FCF784FE03214DF2C3
:103A90003250FCF77FFE6D214DF23350FCF77AFE79
:103AA00000214FF45640FCF775FE33214DF20160C2
:103AB000FCF770FE00214DF20260FCF76BFE342132
:103AC0004DF20360FCF766FE00214DF20460FCF746
:103AD00061FE3A214DF20560FCF75CFE00214DF2DB
:103AE0000660FCF757FE4A214DF20760FCF752FED4
:103AF00000214DF20860FCF74DFE5C214DF209609B
:103B0000FCF748FE00214DF20A60FCF743FE8121DC
:103B10004DF20B60FCF73EFE00214DF20C60FCF70D
:103B200039FEA6214DF20D60FCF734FE00214DF266
:103B30000E60FCF72FFEE5214DF20F60FCF72AFE28
:103B400001214DF21060FCF725FE13214DF21160AA
:103B5000FCF720FE01214DF21260FCF71BFE542100
:103B60004DF21360FCF716FE01214DF21460FCF7D4
:103B700011FE82214DF21560FCF70CFE01214DF281
:103B80001660FCF707FECA214DF21760FCF702FE33
:103B900002214DF21860FCF7FDFD00214DF2196085
:103BA000FCF7F8FD02214DF21A60FCF7F3FD01214C
:103BB0004DF21B60FCF7EEFD02214DF21C60FCF79C
:103BC000E9FD34214DF21D60FCF7E4FD02214DF2C8
:103BD0001E60FCF7DFFD67214DF21F60FCF7DAFD88
:103BE00002214DF22060FCF7D5FD84214DF22160C9
:103BF000FCF7D0FD02214DF22260FCF7CBFDA421A1
:103C00004DF22360FCF7C6FD02214DF22460FCF763
:103C1000C1FDB7214DF22560FCF7BCFD02214DF23C
:103C20002660FCF7B7FDCF214DF22760FCF7B2FD0F
:103C300002214DF22860FCF7ADFDDE214DF2296036
:103C4000FCF7A8FD02214DF22A60FCF7A3FDF2214A
:103C50004DF22B60FCF79EFD02214DF22C60FCF72B
:103C600099FDFE214DF22D60FCF794FD03214DF2EC
:103C70002E60FCF78FFD10214DF22F60FCF78AFDBE
:103C800003214DF23060FCF785FD33214DF23160A8
:103C9000FCF780FD03214DF23260FCF77BFD6D21C6
:103CA0004DF23360FCF776FD55212046FCF772FD9E
:103CB000AA213046FCF76EFD52213846FCF76AFD1A
:103CC00008214046FCF766FD00214846FCF762FDEE
:103CD000CC215846FCF75EFD00214BF20110FCF7A9
:103CE00059FD05215046FCF755FD70214FF4374032
:103CF000FCF750FD70214BF20170FCF74BFD0121E8
:103D00004FF43840FCF746FD03214BF60100FCF769
:103D100041FD03214BF60200FCF73CFD03214BF66D
:103D20000300FCF737FD02214FF43C40FCF732FD65
:103D300000214BF60140FCF72DFD00214BF602401F
:103D4000FCF728FDD0214FF44940FCF723FD022168
:103D50004CF60110FCF71EFD50214CF60210FCF74A
:103D600019FD50214CF60310FCF714FD50214CF6C0
:103D70000410FCF70FFD00214FF45450FCF70AFD2E
:103D800055214FF46850FCF705FD4FF48850FCF7BF
:103D900089FC782003F0C4FB4FF42450FCF782FC2C
:103DA000FEE3A0F513414FF480744FF4E06840F255
:103DB000022940F23F164FF4274B25392ED0A0F5AB
:103DC00013414FF4017A40F2077728397ED0A0F5ED
:103DD00013414FF41C5B203979D0A0F513413139E0
:103DE00076D0A0F5A841083973D0A0F5A8510539BF
:103DF00070D0A0F5354105396DD0A0F545410539A4
:103E00006AD0A0F50941893967D0A0F58A413139D6
:103E10007ED0A0F58A4135397BD0C1E747F6F00165
:103E2000E520FCF7B7FC21460120FCF7B3FC414636
:103E30000220FCF7AFFC41F230010320FCF7AAFCA2
:103E400000210420FCF7A6FC49460820FCF7A2FC50
:103E500000210920FCF79EFC00210A20FCF79AFCB7
:103E600000210C20FCF796FC00210D20FCF792FCB1
:103E700000210F20FCF78EFC00211020FCF78AFCAB
:103E800007211120FCF786FC00211220FCF782FCA0
:103E900000211320FCF77EFC00210720FCF77AFCB0
:103EA00041F290611020FCF775FC40F227211120AF
:103EB000FCF770FC9D211220FCF76CFC4FF4C851FC
:103EC0001320FCF767FC2521292007E07DE026E18F
:103ED000CAE19CE237E3FDE3FDE3FDE3FCF75AFCB6
:103EE0000D212B20FCF756FC07213020FCF752FC5B
:103EF00040F203313120FCF74DFC03213220FCF766
:103F000049FC40F206213520FCF744FC082101E081
:103F1000FEE3FEE33620FCF73DFC40F2064137208D
:103F2000FCF738FC4FF441713820FCF733FC0721D3
:103F30003920FCF72FFC40F202613C20FCF72AFC00
:103F400008213D20FCF726FC00215020FCF722FC34
:103F5000EF215120FCF71EFC00215220FCF71AFC37
:103F600031465320FCF716FC59466020FCF712FC42
:103F700001216120FCF70EFC00216A20FCF70AFCFD
:103F800000218020FCF706FC00218120FCF702FCC8
:103F900000218220FCF7FEFB00218320FCF7FAFBC6
:103FA00000218420FCF7F6FB00218520FCF7F2FBC2
:103FB00010219020FCF7EEFB4FF4C0619220FCF73B
:103FC000E9FB40F233110720FDE341F28F01EC20C1
:103FD000FCF7E0FB41F23421EF20FCF7DBFB21464C
:103FE0000120FCF7D7FB41460220FCF7D3FB41F24E
:103FF00030010320FCF7CEFB00210420FCF7CAFBB4
:1040000049460820FCF7C6FB00210920FCF7C2FB4B
:1040100000210A20FCF7BEFB01210C20FCF7BAFBB3
:1040200000210D20FCF7B6FB00210F20FCF7B2FBAE
:1040300000211020FCF7AEFB07211120FCF7AAFBA2
:1040400000211220FCF7A6FB00211320FCF7A2FBA5
:1040500001210720FCF79EFB322003F080FA41F299
:1040600090411020FCF796FB40F227211120FCF72D
:1040700091FB322003F073FA8A211220FCF78AFBAD
:10408000322003F06CFA4FF4D0511320FCF782FB7E
:1040900006212920FCF77EFB0D212B20FCF77AFB63
:1040A000322003F05CFA00212020FCF773FB002192
:1040B0002120FCF76FFB322003F051FA0021302061
:1040C000FCF768FB40F204613120FCF763FB40F22F
:1040D00005313220FCF75EFB00213520FCF75AFB4E
:1040E00040F609413620FCF755FB51463720FCF7D6
:1040F00051FB40F201313820FCF74CFB39463920A6
:10410000FCF748FB00213C20FCF744FB40F60A2169
:104110003D20FCF73FFB322003F021FA3BE1002178
:104120000846FCF737FB21460120FCF733FB4146EC
:104130000220FCF72FFB41F230010320FCF72AFBA1
:1041400000210420FCF726FB49460820FCF722FB4F
:1041500000210920FCF71EFB00210A20FCF71AFBB6
:1041600001210C20FCF716FB00210D20FCF712FBAF
:1041700000210F20FCF70EFB322003F0F0F940F293
:1041800001110720FCF706FB322003F0E8F94FF499
:1041900086511020FCF7FEFA07211120FCF7FAFAED
:1041A0004FF4887421461220FCF7F4FA4FF4306182
:1041B0001320FCF7EFFA00212920FCF7EBFA44F278
:1041C00010012B20FCF7E6FA00215020FCF7E2FA60
:1041D000EF215120FCF7DEFA00215220FCF7DAFA39
:1041E00031465320FCF7D6FA59466020FCF7D2FA44
:1041F00001216120FCF7CEFA00216A20FCF7CAFAFF
:1042000000218020FCF7C6FA00218120FCF7C2FAC9
:1042100000218220FCF7BEFA00218320FCF7BAFAC5
:1042200000218420FCF7B6FA00218520FCF7B2FAC1
:1042300010219020FCF7AEFA00219220FCF7AAFA98
:1042400001219320FCF7A6FA21469520FCF7A2FA5B
:1042500000219720FCF79EFA00219820FCF79AFA9B
:1042600040F2731107207EE341F21401E720FCF7CE
:1042700091FA21460120FCF78DFA4FF400710220DB
:10428000FCF788FA41F238010320FCF783FA49462B
:104290000820FCF77FFA00210920FCF77BFA0021B7
:1042A0000A20FCF777FA00210C20FCF773FA0021B2
:1042B0000D20FCF76FFA00210F20FCF76BFA0021AC
:1042C0001020FCF767FA07211120FCF763FA0021A0
:1042D0001220FCF75FFA00211320FCF75BFAC820DC
:1042E00003F03DF941F290611020FCF753FA40F2DF
:1042F00027211120FCF74EFA322003F030F90C216F
:104300001220FCF747FA322003F029F94FF400613C
:104310001320FCF73FFA11212920FCF73BFA0B216F
:104320002B20FCF737FA322003F019F90021202066
:10433000FCF730FA31462120FCF72CFA002130201E
:10434000FCF728FA4FF4837421463120FCF722FA57
:1043500000213220FCF71EFA51463520FCF71AFAEC
:1043600041F20A613620FCF715FA39463720FCF78E
:1043700011FA21463820FCF70DFA39463920FCF7AE
:1043800009FA40F202413C20FCF704FA40F60F41E2
:104390003D20FCF7FFF900215020FCF7FBF9EF214D
:1043A0005120FCF7F7F900215220FCF7F3F93146D0
:1043B0005320FCF7EFF959466020FCF7EBF9012197
:1043C0006120FCF7E7F900216A20FCF7E3F90021FE
:1043D0008020FCF7DFF900218120FCF7DBF90021C8
:1043E0008220FCF7D7F900218320FCF7D3F90021C4
:1043F0008420FCF7CFF900218520FCF7CBF91021B0
:104400009020FCF7C7F94FF4C0619220FEE32146EB
:104410000120FCF7BFF941460220FCF7BBF941F24D
:1044200030010320FCF7B6F900210420FCF7B2F9B3
:1044300040F207210820FCF7ADF900210920FCF724
:10444000A9F900210A20FCF7A5F900210C20FCF7AE
:10445000A1F900210D20FCF79DF900210F20FCF7A8
:1044600099F9142003F07BF841F2B0611020FCF7B9
:1044700091F901211120FCF78DF901211720FCF79A
:1044800089F94FF49C711220FCF784F94FF4006114
:104490001320FCF77FF909212920FCF77BF909217A
:1044A0002A20FCF777F90021A420FCF773F90021FA
:1044B0005020FCF76FF9EF215120FCF76BF9002138
:1044C0005220FCF767F931465320FCF763F959464F
:1044D0006020FCF75FF901216120FCF75BF9002106
:1044E0006A20FCF757F900218020FCF753F90021DE
:1044F0008120FCF74FF900218220FCF74BF90021C5
:104500008320FCF747F900218420FCF743F90021C0
:104510008520FCF73FF913219020FCF73BF900219F
:104520009220FCF737F903219320FCF733F94FF47D
:1045300088719520FCF72EF940F273110720FCF7E3
:1045400029F9322011E100210720FCF723F932205C
:1045500003F005F84FF48E711220FCF71BF90121CE
:10456000A420FCF717F90F210820FCF713F9082104
:104570000A20FCF70FF908210D20FCF70BF9BA46C9
:1045800039463020FCF706F907213120FCF702F903
:1045900040F203613220FCF7FDF84746414600E057
:1045A000FDE33320FCF7F6F849463420FCF7F2F837
:1045B00002213520FCF7EEF841F60F713620FCF7AA
:1045C000E9F851463720FCF7E5F800213820FCF7E0
:1045D000E1F800213920FCF7DDF851463A20FCF7DC
:1045E000D9F800213B20FCF7D5F807213C20FCF747
:1045F000D1F800213D20FCF7CDF8322002F0AFFFCA
:1046000001210720FCF7C6F801211720FCF7C2F8AA
:10461000322002F0A4FF4FF4BD511020FCF7BAF88D
:1046200040F217211120FCF7B5F84FF48F711220DA
:10463000FCF7B0F84FF470611320FCF7ABF80021E1
:104640002A20FCF7A7F80A212920FCF7A3F84FF449
:104650009F711220FCF79EF800215020FCF79AF879
:10466000EF215120FCF796F800215220FCF792F838
:1046700031465320FCF78EF859466020FCF78AF843
:1046800001216120FCF786F800216A20FCF782F8FE
:1046900000218020FCF77EF800218120FCF77AF8C9
:1046A00000218220FCF776F800218320FCF772F8C5
:1046B00000218420FCF76EF800218520FCF76AF8C1
:1046C00013219020FCF766F84FF440719220FCF71C
:1046D00061F802E04CE047E10FE205219320FCF78E
:1046E00059F800219520FCF755F800219720FCF798
:1046F00051F800219820FCF74DF821460120FCF7E5
:1047000049F839460220FCF745F841F2380101E04A
:10471000A7E268E30320FCF73DF800210420FCF742
:1047200039F800210C20FCF735F800210F20FCF7A8
:1047300031F800212020FCF72DF800212120FCF782
:1047400029F821210720FCF725F8142002F007FFA3
:1047500061210720FCF71EF8142002F000FF40F250
:1047600073110720FCF716F8142002F0F8FE2EE370
:1047700000210846FCF70EF800210846FCF70AF86D
:1047800000210846FCF706F800210846FCF702F86D
:104790000121A420FBF7FEFF142002F0E0FE5946A1
:1047A0006020FBF7F7FF4F4649460820FBF7F2FF72
:1047B0004FF405713020FBF7EDFF43F21571312006
:1047C000FBF7E8FF00E0CAE040F204613220FBF7AB
:1047D000E1FF40F616613320FBF7DCFF42F21121C6
:1047E0003420FBF7D7FF4FF4A8513520FBF7D2FF59
:1047F00048F207513620FBF7CDFF41F20741372041
:10480000FBF7C8FF41F203413820FBF7C3FF20212B
:104810003920FBF7BFFF1A219020FBF7BBFF0021D7
:104820001020FBF7B7FF07211120FBF7B3FF002192
:104830001220FBF7AFFF00211320FBF7ABFF142082
:1048400002F08DFE4FF4E6611020FBF7A3FF40F26B
:1048500037111120FBF79EFF142002F080FE4FF469
:10486000DC711220FBF796FF142002F078FE4FF463
:1048700070611320FBF78EFF80212A20FBF78AFF4F
:1048800048212920FBF786FF142002F068FE21460C
:104890000120FBF77FFF41460220FBF77BFF41F23F
:1048A00038010320FBF776FF39460820FBF772FF3B
:1048B00000210A20FBF76EFF00210C20FBF76AFFA6
:1048C00000210D20FBF766FF30210E20FBF762FF71
:1048D00000215020FBF75EFFEF215120FBF75AFF2C
:1048E00000215220FBF756FF31465320FBF752FFC1
:1048F00059466020FBF74EFF01216120FBF74AFF7C
:1049000000216A20FBF746FF11219020FBF742FFB0
:104910004FF4C0619220FBF73DFF40F2024193202B
:10492000FBF738FF02219420FBF734FF142002F03C
:1049300016FE01210720FBF72DFF142002F00FFEC9
:1049400061210720FBF726FF40F273110720FBF7D8
:1049500021FF00212020FBF71DFF00212120FBF774
:1049600019FF2221002030E200210846FBF712FF48
:1049700000210846FBF70EFF142002F0F0FD002195
:104980000846FBF707FF00210846FBF703FF00215D
:104990000846FBF7FFFE00210846FBF7FBFE01215E
:1049A000A420FBF7F7FE142002F0D9FD5946602041
:1049B000FBF7F0FE40F606010820FBF7EBFE40F2A5
:1049C000037841463020FBF7E5FE01213120FBF75B
:1049D000E1FE04213220FBF7DDFE4FF4817133202C
:1049E000FBF7D8FE4FF4407739463420FBF7D2FE70
:1049F00040F203113520FBF7CDFE1F213620FBF7D7
:104A0000C9FE41463720FBF7C5FE01213820FBF7E0
:104A1000C1FE04213920FBF7BDFE15219020FBF7D4
:104A2000B9FE4FF482611020FBF7B4FE40F247213B
:104A30001120FBF7AFFE4FF4DE711220FBF7AAFE48
:104A40004FF460611320FBF7A5FE782002F087FD8C
:104A500021460120FBF79EFE4FF400710220FBF778
:104A600099FE41F230010320FBF794FE08210A2051
:104A7000FBF790FE00210C20FBF78CFE20210E207E
:104A8000FBF788FE00210F20FBF784FE0021202089
:104A9000FBF780FE00212120FBF77CFE3D212A2030
:104AA000FBF778FE142002F05AFD2D212920FBF798
:104AB00071FE00215020FBF76DFE4DF2EF015120F9
:104AC000FBF768FE00215220FBF764FE31465320BD
:104AD000FBF760FE00216120FBF75CFE00216A20ED
:104AE000FBF758FE39469220FBF754FE0521932030
:104AF000FBF750FE2146FFF7B5BB01210020FBF775
:104B000049FE4AF6A4010320FBF744FE00210C20D5
:104B1000FBF740FE40F60C010D20FBF73BFE4FF487
:104B20002C510E20FBF736FEB0211E20FBF732FE83
:104B300042F63F310120FBF72DFE4FF4C061022009
:104B4000FBF728FE00211020FBF724FE46F2780137
:104B50001120FBF71FFE00210520FBF71BFE0021A3
:104B60000620FBF717FE4EF61C711620FBF712FE0F
:104B700003211720FBF70EFE40F233210720FBF73D
:104B800009FE00210B20FBF705FE00210F20FBF79B
:104B900001FE00214120FBF7FDFD00214220FBF733
:104BA000F9FD00214820FBF7F5FD31464920FBF7D0
:104BB000F1FD00214A20FBF7EDFD00214B20FBF722
:104BC000E9FD4FF46F414420FBF7E4FD002145204F
:104BD000FBF7E0FD31464620FBF7DCFD394630208F
:104BE000FBF7D8FD544651463120FBF7D3FD214653
:104BF0003220FBF7CFFD40F2025631463320FBF75F
:104C0000C9FD711D3420FBF7C5FD00E08EE1214692
:104C10003520FBF7BFFD21463620FBF7BBFD3146B3
:104C20003720FBF7B7FD40F2023421463A20FBF76C
:104C3000B1FD21463B20FBF7ADFD00212320FBF712
:104C4000A9FD00212420FBF7A5FD4FF400412520FC
:104C5000FBF7A0FD00214F20FBF79CFD00214E201B
:104C6000B3E001210020FBF795FD0A2002F077FC5C
:104C700041F228611020FBF78DFD0E211220FBF779
:104C800089FD40F639211320FBF784FD0A2002F04C
:104C900066FC40211120FBF77DFD50211520FBF71C
:104CA00079FD0A2002F05BFC1E211220FBF772FD49
:104CB0000A2002F054FC4FF4B1511020FBF76AFDBA
:104CC00042F639211320FBF765FD0A2002F047FC6C
:104CD00021460120FBF75EFD4FF440710220FBF7F7
:104CE00059FD41F238010320FBF754FD49460820E5
:104CF000FBF750FD08210A20FBF74CFD0021302076
:104D0000FBF748FD40F202413120FBF743FD4FF431
:104D100083713220FBF73EFD40F203513320FBF755
:104D200039FD4FF482713420FBF734FD40F201313C
:104D30003520FBF72FFD39463620FBF72BFD40F2DF
:104D400005313720FBF726FD4FF402713820FBF7C1
:104D500021FD40F60B713920FBF71CFD022141209B
:104D6000FBF718FD59466020FBF714FD0121612077
:104D7000FBF710FD4FF404719020FBF70BFD4FF48F
:104D800085719220FBF706FD04219320FBF702FDBD
:104D90002146A020FBF7FEFC0121072000E016E0E1
:104DA000FBF7F8FC21210720FBF7F4FC2321072067
:104DB000FBF7F0FC33210720FBF7ECFC40F233114A
:104DC0000720FBF7E7FC0021A020FBF7E3FC002015
:104DD000FCF742FBFE490120C1F8A8012846FCF778
:104DE00021FEBDE8F88F30211520FBF7D3FC102100
:104DF0009A20FBF7CFFC20211120FBF7CBFC43F2DC
:104E000028411020FBF7C6FC02211220FBF7C2FC50
:104E100041F238011320FBF7BDFC282002F09FFB74
:104E200012210846FBF7B6FC282002F098FB43F25B
:104E300020411020FBF7AEFC43F238011320FBF7B2
:104E4000A9FC462002F08BFB00213020FBF7A2FCDE
:104E500040F202413120FBF79DFC40F20731322045
:104E6000FBF798FC4FF441713320FBF793FC0421CE
:104E70003420FBF78FFC40F201413520FBF78AFC20
:104E800039463620FBF786FC40F205313720FBF728
:104E900081FC4FF4C26631463820FBF77BFC31467B
:104EA0003920FBF777FC21460120FBF773FC4FF418
:104EB00040710220FBF76EFC41F230010320FBF74A
:104EC00069FC40F608010820FBF764FC08210A2071
:104ED000FBF760FC59466020FBF75CFC0121612078
:104EE000FBF758FC4FF49F719020FBF753FC2146D1
:104EF0009220FBF74FFC21469320FBF74BFC4FF42D
:104F00004051A020FBF746FC1021A320FBF742FCF8
:104F100001210720FBF73EFC21210720FBF73AFC8B
:104F200023210720FBF736FC33210720FBF732FC57
:104F300040F23311DFE52DE9F84FA64C9946824641
:104F4000A388A3F5D040043802D1A07901280AD063
:104F5000A2EB0A00401CA04E1FFA80F80D464FF449
:104F6000807B77153EE023880846991A0025A571B5
:104F70002A2565812B26A3EB0A03A681491E5B1E09
:104F80000A9F89B24A469BB20097FFF7D4FF0120DF
:104F9000A0716681A58124E729465046FBF74CFCA9
:104FA000FBF71FFC002419E05946304602F05FFD74
:104FB0003946304602F05DFD88480A9902F060FDEE
:104FC0008021304602F055FD8021304602F04FFD31
:104FD0003946304602F04BFD641CA4B24445E3D38D
:104FE0006D1CADB24D45D7D9FBE62DE9FF5F894673
:104FF0000098DDF838B0101A401C86B2A3EB090007
:10500000401C1FFA80FA00252EE009EB050081B252
:105010000098FBF711FCFBF7E4FB00246E4F4FF404
:1050200000781DE04FF48071384602F020FD4146C3
:10503000384602F01EFD05FB064168483BF811109A
:1050400002F01EFD8021384602F013FD8021384613
:1050500002F00DFD4146384602F009FD641CA4B281
:10506000B442DFD36D1CADB25545CED3BDE8FF9F32
:105070002DE9FE4F0026A2EB000882465F1A701E43
:1050800035468946B8F1000F02DD4FF0010102E01C
:1050900003D14FF00001019102E0C8F10008019036
:1050A000002F02DD4FF0010002E003D14FF00000BD
:1050B000009002E0C7F1000700904046B84501DDCE
:1050C000044600E03C46601C4FF0000B029015E0E7
:1050D0001FFA89F11FFA8AF0FCF760F846443D4454
:1050E000A64202DD0199361B8A44A54202DD0099E1
:1050F0002D1B89440BF101001FFA80FB02998B459F
:10510000E6DDBDE8FE8F2DE9F0411C4615460E4652
:1051100007460B46FFF7ACFF3A462346314610469A
:10512000FFF7A6FF23462A4619463846FFF7A0FF99
:105130002A4623463146BDE8F041104698E72DE95E
:10514000FC5F80460024154603200F46A0EB450671
:1051500061E0A7EB0409A8EB050A1FFA89F11FFA21
:105160008AF0FCF71BF808EB050001901FFA89F1A3
:1051700080B2FCF713F8781981B2A8EB040B009009
:105180001FFA8BF0FCF70AF81FFA89F11FFA8AF070
:10519000FCF704F8A7EB05091FFA89F11FFA8BF059
:1051A000FBF7FCFF019807EB040B1FFA8BF180B2B1
:1051B000FBF7F4FF1FFA89F108EB04091FFA89F0E5
:1051C000FBF7ECFF009881B21FFA89F008E00000BD
:1051D000000022426821002000100140000C014024
:1051E000FBF7DCFF1FFA8BF11FFA8AF0FBF7D6FF03
:1051F000641C002E03DA06EB8406B61D04E0601B77
:1052000006EB80066D1E0A36781981B208EB0400A1
:1052100080B2FBF7C3FFAC429BDDBDE8FC9F2DE9EC
:10522000F84F81461E460F468B46580700D0012096
:1052300000EBD60071084843203AC0B202F0FF0AE2
:105240000025009041E00C2E10D0102E12D0182E08
:105250003ED176490AEBCA0001EB80004FF000080E
:10526000445D20060AD5724802880BE00AEB4A002A
:105270007049F1E7704901EB0A10EFE70A9828B985
:105280006B48428839464846FBF7ABFF6006040E80
:105290006A487F1CBFB20188494519D9A7EB0B00AA
:1052A000B04209D109F101001FFA80F963485F4655
:1052B000018849450CD906E008F1010000F0FF081B
:1052C000B8F1080FCDD36D1CEDB200988542BAD36A
:1052D00087E50346012000E05843491EC9B2FBD2CE
:1052E00070472DE9FF4F81B00027DDF838B01D462B
:1052F000924680463C46B9464FEA5B0627E0281BAB
:10530000401EC1B20A20FFF7E4FFBAFBF0F00A2109
:10531000B0FBF1F201FB120027B9691E8C4201DAE1
:1053200048B101273030C2B206FB048080B25B4630
:10533000CDF8009006E006FB048080B25B46202298
:10534000CDF800900299FFF76AFF641CE4B2AC420A
:10535000D5D305B0BDE8F08F2DE9FF4F81B0804671
:10536000DDF83CA00E984FF000091F4693464C46CE
:105370000AF0010546082BE0381B401EC1B20A2086
:10538000FFF7A7FFBBFBF0F00A21B0FBF1F201FB36
:105390001200B9F1000F05D1791E8C4202DA48B132
:1053A0004FF001093030C2B206FB048080B2009594
:1053B0000E9B08E05FEA0A6006FB04800E9B80B249
:1053C000009508D530220299FFF729FF641CE4B24A
:1053D000BC42D1D3BDE72022F5E72DE9F84F0446C2
:1053E00000F0FF0810190D46DDE90A761FFA80FA71
:1053F00058191FFA80F94FF0000B11E0544502D301
:10540000E819444685B24D450FD23B462946204611
:10541000CDF800B0FFF703FF04EB570084B2761C11
:105420003278A2F120005E28E8D9DAE4E27B0208B3
:10543000160000207E710208F27502086821002023
:105440004E48416941F480714161816941F0200118
:105450008161816941F040018161816941F0800190
:105460008161816941F48071816145480168002151
:105470000160026842F0BB320260001F026802F065
:10548000FF220260026842F0BB1202603D480268DF
:105490000160026842F0BB320260001F02683A4BB2
:1054A0001A4002600268394B1A43026038480268A9
:1054B00092B202600268374B1A430260001F026812
:1054C00002F07F4202600368334A134303603348AB
:1054D000436823F470634360436843F4306343607C
:1054E000036803F07F4303600368134303604FF0D6
:1054F000204001614161C0F81411016941F48051FB
:105500000161016941F010010161416941F440719B
:10551000416141694161416941616FF07041C0F889
:105520001411016941F001010161704710B5002AB1
:1055300007D04FF0D04310F8014B5C54491C521E69
:10554000F7D110BD002A07D04FF0D0435B5C491C57
:1055500000F8013B521EF7D1704703B50146012206
:1055600001A8FFF7E3FF0CBD08B50146012268461C
:10557000FFF7E8FF9DF8000008BD000000100240A2
:10558000041401400418014000FFFF0FBB0000B0ED
:10559000041C01400000BBBBBBBBBB0000200140A2
:1055A00008B50121102002F0E0FB4FF4C050ADF827
:1055B000000010208DF8030003208DF802006946DA
:1055C0007F4802F0EAF97F480121C0F8B011C0F825
:1055D000AC1108BD70B57A48416821F47041416052
:1055E000416841F440514160764C0120C4F8AC015F
:1055F000C4F8B001042004F5D67401F091FF002531
:105600002560042001F08CFF656070BD6C4810B50A
:10561000416821F470414160416841F4405141606A
:10562000684C0020C4F8B001C4F8AC01042004F5B3
:10563000D67401F075FF012060602060BDE8104065
:10564000042001F06DBF70B55D480024416821F46D
:1056500070414160416841F400414160594D01266B
:10566000C5F8AC61304601F05BFFC5F8B0610120C0
:1056700001F056FF07E0641CE4B2FA2C03D9FFF7EF
:10568000C5FF012070BDD5F82C010028F3D1C5F865
:10569000B00170BD70B54B4C0025C4F8B0514848FE
:1056A000416821F470414160416841F440514160DA
:1056B000C4F8AC51022004F5D67401F031FF01208A
:1056C0006060022001F02CFF656070BD70B53D4C3C
:1056D0000026C4F8B0613A48416821F47041416045
:1056E000416841F4405141600125C4F8AC510220A9
:1056F00004F5D67401F014FF6560022001F010FF7C
:10570000666070BD2DE9F04105462D48416821F4E1
:1057100070414160416841F440514160294E002789
:10572000C6F8B0713C464FF00108E809C6F8AC0174
:105730006806050E022001F0F3FEC6F8B0810220D3
:1057400001F0EEFEC6F8B071022001F0E9FE641C23
:10575000E4B2082CE9D3BDE8F0812DE9F047814699
:1057600017480024416821F470414160416841F4C8
:1057700000414160134E254627464FF00108C6F808
:10578000B071022001F0CCFEC6F8B0816006040EB4
:10579000D6F82C0108B1641CE4B2012001F0C0FE6F
:1057A0006D1CEDB2082DEAD3B9F1000F04D0FFF75C
:1057B00071FF2046BDE8F087FFF788FFF9E700009A
:1057C0000010014000002242FFF7EABE10B5044677
:1057D000FFF700FF200AA02101EB4000C0B2FFF755
:1057E00091FFFFF730FFE0B2FFF78CFFFFF72BFFD1
:1057F000FFF7F0FEA120FFF785FFFFF724FF002051
:10580000FFF7ABFF0446FFF701FF204610BD70B560
:105810000D460446FFF7DEFE200AA02101EB400002
:10582000C0B2FFF76FFFFFF70EFFE0B2FFF76AFFAE
:10583000FFF709FF2846FFF765FFFFF704FFFFF7B3
:10584000E5FEBDE870400A2001F089BE2DE9F04177
:1058500016460D460746002409E0E00025FA00F050
:10586000C1B2381980B2FFF7D2FF641CE4B2B4426F
:10587000F3D3BDE8F0812DE9F0410D46014600204B
:1058800004464E1908E00702301B401E80B2FFF7A5
:105890009DFF641C3844E4B2AC42F4D3E9E710B590
:1058A000FF20FFF793FF55280AD05521FF20FFF76F
:1058B000AEFFFF20FFF78AFF552801D0012010BD61
:1058C000002010BD70B515460E46044608E020467F
:1058D000641CA4B2FFF77AFF6D1E06F8010BADB28F
:1058E000002DF4D170BD70B514460D46064606E095
:1058F00029783046FFF78BFF761CB6B26D1C641E0C
:10590000A4B2F5D270BD000070B506460024334D38
:1059100003E0641CE4B2C82C0FD80221284602F030
:105920007FFB0028F5D03146284602F035FB0024E5
:1059300005E0641CE4B2C82C01D9002070BD01212F
:10594000284602F06DFB0028F3D0284602F026FB23
:10595000C0B270BD38B5012141F2040002F005FA71
:10596000E020ADF8000018208DF8030003201C4C47
:105970008DF802006946204602F00FF8E02120462B
:1059800002F075F8174800214FF4827201804280BE
:1059900081800222C2800122028152024281382289
:1059A0008281C181072101820C4C0146204602F010
:1059B0004FFA0121204602F0C7FAFF20FFF7A4FFAB
:1059C00038BD10B50749054C8881204602F040FAE1
:1059D0002046BDE81040012102F0B6BA0030014077
:1059E00000080140762100200A2001F099BD83487B
:1059F000816941F010018161814801684FF20F0215
:105A000091430160016843F2030211430160C168E0
:105A100041F00201C160C16841F00801C1607047F6
:105A200070B57748016821F470410160016841F464
:105A300040510160734C0120C4F88C01C4F880010E
:105A40000A2004F5C07401F06BFD0025E5600A2012
:105A500001F066FD256070BD70B56948016821F4EC
:105A600070410160016841F440510160654C0020C3
:105A7000C4F88001C4F88C010A2004F5C07401F058
:105A80004FFD012525600A2001F04AFDE56070BD4B
:105A900070B55B480024016821F470410160016821
:105AA00041F400410160574D0126C5F88C61304634
:105AB00001F036FDC5F88061012001F031FD07E0FD
:105AC000641CE4B2FA2C03D9FFF7C6FF012070BDB5
:105AD000D5F80C010028F3D1C5F8800170BD70B570
