:020000040800F2
:1000000020BF002035780008550500085705000876
:10001000590500085B0500085D05000800000000A8
:100020000000000000000000000000005F05000864
:100030006105000800000000B74A010825760008A5
:100040004F7800084F7800084F7800084F78000874
:100050004F7800084F7800084F7800084F78000864
:100060004F7800084F7800084F7800084F78000854
:100070004F7800084F7800084F7800084F78000844
:100080004F7800084F7800084F7800084F78000834
:100090004F7800084F7800084F7800084F78000824
:1000A0004F7800084F7800084F7800084F78000814
:1000B000D5320108A36D00084F7800084F7800087A
:1000C0004F7800084F7800084F7800084F780008F4
:1000D0004F780008CD7700084F7800084F78000867
:1000E0004F7800084F7800084F7800084F780008D4
:1000F0004F7800084F7800084F7800084F780008C4
:100100004F7800084F7800084F7800084F780008B3
:100110004F7800084F780008156E00084F780008E7
:100120004F7800084F7800084F7800084F78000893
:1001300000F002F800F06BF80AA090E8000C82448E
:100140008344AAF10107DA4501D100F060F8AFF26B
:10015000090EBAE80F0013F0010F18BFFB1A43F0A5
:100160000103184734970200549702000A444FF0E5
:10017000000C10F8013B13F0070408BF10F8014B06
:100180001D1108BF10F8015B641E05D010F8016B4B
:10019000641E01F8016BF9D113F0080F1EBF10F8AF
:1001A000014BAD1C0C1B09D16D1E58BF01F801CBD2
:1001B000FAD505E014F8016B01F8016B6D1EF9D555
:1001C0009142D6D37047000000230024002500266A
:1001D000103A28BF78C1FBD8520728BF30C148BFAA
:1001E0000B607047642914F06580752914F06280F3
:1001F000782914F09B80632914F07283732914F01A
:100200007783002070471FB51FBD10B510BD14F0D7
:1002100009FC1146FFF7F7FF00F0EDF814F027FC9A
:1002200003B4FFF7F2FF03BC07F078FA0EB5A24C57
:1002300002AD08264FF4FA77D4F8A00158B1002097
:10024000C4F8A0010022CDE900653B4611461046E6
:100250000EF001F9F0E70120F2E70EB502AD082437
:1002600016F01CFE0022052311461046CDE900457C
:100270000EF0F1F8F4E7ADF50E7D4FF4706007F085
:100280007CFB01228DA168460FF017FE13F02FFEB4
:100290004FF47A7015F078FC914D4FF066348AA8CF
:1002A00016F0ACFB8B981EF000FD22462B461EF08C
:1002B00027FD06D28A98BF2803DD0022114689A0B7
:1002C0001EE08B986E38322803D20022114686A099
:1002D00016E08B98A038342803D20022114683A060
:1002E0000EE08B98D438322803D80022114680A023
:1002F00006E08B98B0F5837F04DB002211467DA0D9
:1003000015F0FAFC642015F03FFCC8E72DE9F04336
:100310008BB009F0A4FE09A80CF05BFD012109AA2D
:1003200008460AF01AF90121402007F0D9FD15F01E
:10033000BFFE09F071FE704D2978491C297009F043
:100340006FFE00240327CDE9064709AE4FF4806015
:1003500066210896CDE90210684A05940520CDE98A
:10036000000204942346AFF2F102644864A1C43849
:100370000CF0C5FFCDE9064704204FF00C09644A94
:10038000089605948DE805024FF080080023AFF22F
:1003900035125F48CDE903845EA1C4380CF0AFFF8D
:1003A000CDE9064736205E4A089605948DE8050299
:1003B0000023AFF287125A48CDE9038459A1C4380B
:1003C0000CF09DFF09A95A480DF093FD09F024FE99
:1003D0002978491E11F0FF01297009D15549098872
:1003E00031B109F01DFE0AF031FC0BB0BDE8F0831D
:1003F00009F016FEF9E78AB007F022F94FF4A06081
:1004000007F0E0FA4FF4E13007F092F900F056F906
:1004100001F009FC00F07CF907F03AFA11F06CFAEF
:10042000454C012245A120680FF022FD012244A184
:1004300060680FF01DFD11F05EFC06F01BFC4148EA
:1004400041684820884709A809F019FF09F0E4FD30
:10045000294C2178491C217009F0E2FD002006ABEF
:1004600009AA0321059083E8070080220C23CDE927
:1004700002322F4D0490C4350346AFF26F12CDE91E
:10048000001531A12A480CF03AFF09F0C5FD21788A
:10049000491E11F0FF01217007D12649098821B1B9
:1004A00009F0BEFD0AF0D2FB01E009F0B9FD09A890
:1004B0000AF011F9FEE7000000002142303A2F5304
:1004C000595354454D2F53595349434F2F73797303
:1004D00074656D73657474696E672E62696E000071
:1004E00066E63140300000003100000032000000BC
:1004F000330000003400000008010020C80C002078
:10050000456D77696E64656D6F207461736B000073
:10051000040A0020546F756368207461736B0000D7
:100520008C1D00204C656430207461736B000000EA
:100530007C060020CC00002088010020303A00001A
:10054000313A00008C03002073746172742074616E
:10055000736B00007047FEE7FEE7FEE7FEE77047BB
:10056000704700000CB500224C48009201920168CF
:1005700041F4803101604FF4A063016801F400315F
:1005800001910099491C0091019911B90099994272
:10059000F3D10168890333D50121019140490A68EB
:1005A00042F010020A600A6822F003020A600A6838
:1005B00042F002020A60416841604168416041685E
:1005C00041F480614160416821F47C1141604168DF
:1005D00041F4E8114160016841F0807101600168F7
:1005E0008901FCD5416821F003014160416841F077
:1005F000020141604168C1F381010229FAD10CBDB9
:1006000001920CBD254810B5016841F0010101605F
:100610004168244A114041600168234A1140016049
:10062000016821F480210160416821F4FE014160EC
:100630004FF41F018160FFF795FF1C494FF00060E8
:10064000086010BD154A10B55068194B10F00C0128
:10065000184803D0042901D0082901D0036012E012
:100660005168536801F470114FF0020413F4803F95
:1006700004EB914102D053689B0301D50E4B00E07F
:100680000B4B5943016051680A4AC1F30311121D13
:10069000515C0268CA40026010BD000000100240B8
:1006A000002002400000FFF8FFFFF6FE08ED00E02A
:1006B00000127A000000002000093D0038B5012139
:1006C000242007F016FC4FF48074ADF80040102091
:1006D0008DF8030003200C4D8DF802006946284672
:1006E00007F01FFA2146284607F085FA0420074C38
:1006F000ADF800006946204607F013FA04212046B1
:1007000007F079FA38BD00000008014000140140EC
:1007100008B50121442007F0ECFB1C20ADF80000D7
:1007200048208DF803006946364807F0FAF90120A1
:10073000ADF8000028208DF803006946324807F024
:10074000F0F908BD2DE9F041304C2F4F2D4D012619
:1007500008B1267001E02078A0B11021284607F0EA
:1007600036FAB0B10821284607F031FA88B10421E1
:10077000284607F02CFA60B10121384607F027FA25
:10078000012806D01021284607F021FA012824D09C
:1007900035E00A2006F099FF00202070102128463D
:1007A00007F015FA80B10821284607F010FA70B159
:1007B0000421284607F00BFA58B10121384607F00A
:1007C00006FA012807D01AE00120BDE8F0810220D6
:1007D000FBE70320F9E70420F7E70821284607F0A4
:1007E000F6F901280BD10421284607F0F0F9012879
:1007F00005D10121384607F0EAF900B9267000203A
:10080000E3E7000000180140000801401400002048
:1008100070B506464FF48071FE4C204607F0EDF9A6
:1008200065152946204607F0E8F93146FA4807F0F1
:10083000EBF98021204607F0E0F98021204607F0FF
:10084000DAF929462046BDE8704007F0D4B970B502
:10085000F04C06464FF48071204607F0CCF9651540
:100860002946204607F0C9F93146EB4807F0CCF994
:100870008021204607F0C1F98021204607F0BBF90E
:1008800029462046BDE8704007F0B5B92DE9F0478C
:10089000E14F4FF0883038603D1D2860DE4E00206B
:1008A0000C363060DB4CA915204607F0A4F94FF454
:1008B00000794946204607F0A0F94021204607F07C
:1008C0009CF9D6488088A0F50941893902D10220D7
:1008D00006F0DCFE384607F081F9804640212046CC
:1008E00007F089F94946204607F085F94FF0333083
:1008F000386028604FF6FF7030604046BDE8F087F2
:1009000070B50E46FFF784FFC24C4FF4807120464D
:1009100007F071F965152946204607F06EF9314652
:10092000BD4807F071F98021204607F066F9802163
:10093000204607F060F929462046BDE8704007F0E0
:100940005AB910B5FFF764FFBDE810409EE7B34801
:1009500000895DE770B5AF4C06464FF480712046C4
:1009600007F049F965152946204607F046F9314652
:10097000A94807F049F98021204607F03EF9802177
:10098000204607F038F929462046BDE8704007F0B8
:1009900032B9C0F34511C20AC00200EB4110104445
:1009A00080B270472DE9F84F9C4E0D460446B18841
:1009B000280A00903046DFF85C82DFF85CA24089AC
:1009C000A1F513424FF480774FF400794FEA142BCE
:1009D000413A15D0A1F5A642103A11D03346A1F5FF
:1009E000D04C9A791B881B1B5B1EBCF1040C75D084
:1009F000A1F5A04CBCF5A26C6ED0012A6DD03FE1F0
:100A0000FFF706FF4FF480714646404607F0F3F8C3
:100A10004946304607F0F1F859465746504607F028
:100A2000F3F88021304607F0E8F88021304607F0DF
:100A3000E2F84946304607F0DEF84FF48071304660
:100A400007F0D9F84946304607F0D7F8E1B2384602
:100A500007F0DAF88021304607F0CFF880213046E1
:100A600007F0C9F84946304607F0C5F86B48808959
:100A7000FFF7CEFE4FF48071304607F0BCF84946D0
:100A8000304607F0BAF83846009907F0BDF88021E3
:100A9000304607F0B2F88021304607F0ACF84946FE
:100AA000304607F0A8F84FF48071304607F0A3F8FD
:100AB0004946304607F0A1F8E9B2384607F0A4F8F5
:100AC0008021304607F099F88021304607F093F8EE
:100AD00049463046CFE001E054E0D0E0012A00D1A1
:100AE0009CB2FFF795FEBB463946404607F083F8B7
:100AF0004946404607F081F8210A5746504607F01C
:100B000083F88021404607F078F88021404607F0BE
:100B100072F84946404607F06EF85946404607F0DD
:100B20006AF84946404607F068F8E1B2384607F0EF
:100B30006BF88021404607F060F88021404607F0BE
:100B40005AF84946404607F056F8B089FFF760FE6C
:100B50005946404607F04FF84946404607F04DF8E1
:100B60003846009907F050F88021404607F045F8D4
:100B70008021404607F03FF84946404607F03BF8E1
:100B8000594663E0FFF744FE4FF48071404607F09A
:100B900032F84946404607F030F859465746504625
:100BA00007F032F88021404607F027F880214046C0
:100BB00007F021F84946404607F01DF87089401CAF
:100BC00080B2FFF725FE4FF48071404607F013F81E
:100BD0004946404607F011F8E1B2384607F014F8EC
:100BE0008021404607F009F88021404607F003F8CD
:100BF0004946404606F0FFFFB089FFF709FE4FF473
:100C00008071404606F0F7FF4946404606F0F5FF82
:100C1000384605E000100140000C01408C1F002008
:100C2000009906F0F1FF8021404606F0E6FF8021A2
:100C3000404606F0E0FF4946404606F0DCFFB0893A
:100C4000401C80B2FFF7E4FD4FF48071404606F08F
:100C5000D2FF4946404606F0D0FFE9B2384606F0DA
:100C6000D3FF8021404606F0C8FF8021404606F0B1
:100C7000C2FF49464046BDE8F84F06F0BCBF9CB2F3
:100C80002146FFF73DFEB0892946BDE8F84F37E61B
:100C90002DE9F84FFE4D2A88824202D96A888A429D
:100CA00002D80020BDE8F88FFFF77CFEA888AA468E
:100CB00049F2413B45F2103545F21056584505D0F2
:100CC000A0F5D041043901D0A84201D12E2005E081
:100CD000B04202D14FF4385000E02220FFF798FDD7
:100CE000DFF8B0934FF08830C9F8000009F1040133
:100CF0000860E8494FF6FF780C31C1F80080E64FF4
:100D00008915384606F077FF7915384606F075FFE5
:100D10004021384606F071FF012006F0B7FC402163
:100D2000384606F068FF4021384606F066FF01208D
:100D300006F0ACFC484606F051FF8146402138469B
:100D400006F059FFBAF80400584503D0A84201D074
:100D5000B04210D14021384606F04FFFCD4806F092
:100D60003DFF00904021384606F045FF09F0FF00A6
:100D700008EA00240FE0A0F5D04104390BD140214E
:100D8000384606F03AFF4021384606F034FFC148A5
:100D900006F024FF81464FF40071384606F02BFF21
:100DA000BC494FF033300860091D0860B9490C3167
:100DB000C1F80080BAF80400A0F51341253920D00D
:100DC000A0F58A4135391CD0A0F58A41313918D0B7
:100DD000A0F50941893914D0A0F53541053910D065
:100DE000584503D0A84201D0B0420CD14FEAD920D7
:100DF0004FEAC020A10A40EA4111009841EAD02000
:100E000050E748464EE74846BDE8F84FC1E5A048E0
:100E10008088A0F5134141390FD0A0F5D0410439A5
:100E20000BD0A0F5A641103907D0A0F5AA41103982
:100E300005D040F27311072062E5292001E04FF44C
:100E40002450E5E492488088A0F5134141390ED042
:100E5000A0F5D04104390AD0A0F5A641103906D03A
:100E6000A0F5AA41103904D00021072048E5282028
:100E700001E04FF42050CBE42DE9F047844C0025ED
:100E80002146A379898846F60402012B18D19142A4
:100E900016D0082814D2DFE800F00406080A0C0E69
:100EA000101206200CE007200AE0042008E00520CC
:100EB00006E0012004E0002002E0032000E0022020
:100EC000A1F5134645F2103345F21058413E05D0C6
:100ED000914203D0994201D041457DD1082812D2D8
:100EE000DFE800F0110406080A0C0E1080250AE065
:100EF000402508E0C02506E0202504E0602502E04A
:100F0000A02500E0E025414502D14FF4585000E013
:100F10003620994203D0414501D045F00805914261
:100F200001D145F002052946FFF7EAFCA806208812
:100F3000618802D5884202D303E0884201D921802A
:100F40006080A0884FF480756E004045524FDFF8F6
:100F5000449160897ED1FFF75BFC2946B84638464C
:100F600006F049FE3146404606F047FE00214F4656
:100F7000484606F049FE8021404606F03EFE8021AC
:100F8000404606F038FE3146404606F034FE6089A1
:100F9000401C80B2FFF73CFC2946404606F02BFE81
:100FA0003146404606F029FE0021384606F02CFE68
:100FB0008021404606F021FE8021404606F01BFEBF
:100FC0003146404606F017FE6089801C80B2FFF76C
:100FD0001FFC2946404600E071E106F00CFE314658
:100FE000404606F00AFE2088401EC0F30F21384616
:100FF00006F00AFE8021404606F0FFFD80214046B3
:1010000006F0F9FD3146404606F0F5FD6089C01C4A
:1010100080B2FFF7FDFB2946404606F0ECFD314665
:10102000404606F0EAFD2078401EC1B2384606F080
:10103000EBFD8021404606F0E0FD8021404606F0B1
:10104000DAFD3146404606F0D6FDA089FFF7E0FB09
:10105000294600E060E0404606F0CDFD31464046BE
:1010600006F0CBFD0021384606F0CEFD802140463B
:1010700006F0C3FD8021404606F0BDFD31464046E6
:1010800006F0B9FDA089401C80B2FFF7C1FB05E066
:101090008C1F0020000C01400010014029464046F2
:1010A00006F0A9FD3146404606F0A7FD002138466E
:1010B00006F0AAFD8021404606F09FFD80214046B3
:1010C00006F099FD3146404606F095FDA089801C4A
:1010D00080B2FFF79DFB2946404606F08CFD314665
:1010E000404606F08AFD6088401EC0F30F21384656
:1010F00006F08AFD8021404606F07FFD80214046B3
:1011000006F079FD3146404606F075FDA089C01C09
:1011100080B2FFF77DFBB6E0FFF77AFB2946B846C1
:10112000384606F068FD3146404606F066FD00216F
:101130004F46484606F068FD8021404606F05DFDBA
:101140008021404606F057FD3146404606F053FDEB
:101150002946404606F04FFD3146404606F04DFD1B
:101160000021384606F050FD8021404606F045FD3E
:101170008021404606F03FFD3146404606F03BFDEB
:101180002946404606F037FD3146404606F035FD1B
:101190002088401EC0F30F21384606F035FD80211F
:1011A000404606F02AFD8021404606F024FD3146E7
:1011B000404606F020FD2946404606F01CFD31461B
:1011C000404606F01AFD2078401EC1B2384606F0AF
:1011D0001BFD8021404606F010FD8021404606F0B0
:1011E0000AFD3146404606F006FDA089FFF710FBD8
:1011F0002946404606F0FFFC3146404606F0FDFC1D
:101200000021384606F000FD8021404606F0F5FC3E
:101210008021404606F0EFFC3146404606F0EBFCEC
:101220002946404606F0E7FC3146404606F0E5FC1C
:101230000021384606F0E8FC8021404606F0DDFC3F
:101240008021404606F0D7FC3146404606F0D3FCEC
:101250002946404606F0CFFC3146404606F0CDFC1C
:101260006088401EC0F30F21384606F0CDFC802177
:10127000404606F0C2FC8021404606F0BCFC3146E8
:10128000404606F0B8FC2946404606F0B4FC31461C
:10129000404606F0B2FCA078401EC1B2384606F0C7
:1012A000B3FC8021404606F0A8FC8021404606F0B1
:1012B000A2FC31464046BDE8F04706F09CBC082839
:1012C00012D2DFE800F0040608110A0C0E103025D7
:1012D0000AE0102508E0202506E0382504E028254E
:1012E00002E0182500E00825A1F50940893806D05C
:1012F000032045F48051BDE8F047FFF701BB112002
:1013000046F240012943F6E770B5FFF74BFBFFF7C4
:101310001EFBFE4C4FF48071204606F06CFC6515F8
:101320002946204606F069FCF94AFA48118806F079
:101330006BFC8021204606F060FC8021204606F0F0
:101340005AFC29462046BDE8704006F054BC2DE901
:10135000F74FF14E044682B0B388080A0090304639
:101360000D46DFF8A883DFF8ACA34089A3F513414D
:101370004FF480774FF400794FEA142B413914D0A1
:10138000A3F5A641103910D0A3F5AA41103918D001
:101390003246A3F5D04C91791288121B521EBCF133
:1013A000040C66D001297CD0CFE0FFF731FA394632
:1013B000404606F020FC4946404606F01EFC5946D1
:1013C00065E0FFF725FA3946404606F014FC494629
:1013D000404606F012FC5946504606F015FC8021A6
:1013E000404606F00AFC8021404606F004FC4946CF
:1013F000404606F000FC7089401C80B2FFF708FAF6
:101400003946404606F0F7FB4946404606F0F5FBF4
:10141000E1B2504606F0F8FB8021404606F0EDFBB5
:101420008021404606F0E7FB4946404606F0E3FBD4
:10143000B089FFF7EDF93946404606F0DCFB494636
:10144000404606F0DAFB5046009906F0DDFB8021AD
:10145000404606F0D2FB8021404606F0CCFB4946D0
:10146000404606F0C8FBB089401C80B2FFF7D0F9B7
:1014700051E0012900D194B2FFF7CAF9394640463C
:1014800006F0B9FB4946404606F0B7FB210A504634
:1014900006F0BAFB8021404606F0AFFB80214046B3
:1014A00000E051E006F0A7FB4946404606F0A3FBEA
:1014B0003946404606F09FFB4946404606F09DFBF4
:1014C000E1B2504606F0A0FB8021404606F095FBB5
:1014D0008021404606F08FFB4946404606F08BFBD4
:1014E000B089FFF795F93946404606F084FB494636
:1014F000404606F082FB5046009906F085FB8021AD
:10150000404606F07AFB8021404606F074FB4946CF
:10151000404606F070FB3946404606F06CFB4946F3
:10152000404606F06AFBE9B2504606F06DFB8021AA
:10153000404606F062FB8021404606F05CFB4946CF
:10154000404606F058FB07E094B22146FFF7D8F971
:10155000B0892946FFF7D4F939464446404606F09B
:101560004CFB4D464946204606F047FB318956461E
:10157000504606F049FB8021204606F03EFB8021C4
:10158000204606F038FB2946204606F034FB394653
:10159000204606F030FB2946204606F02EFB30465A
:1015A000049906F031FB8021204606F026FB8021BD
:1015B000204606F020FB05B029462046BDE8F04F46
:1015C00006F019BB2DE9F05F53492C232A242B2563
:1015D00022222126898848F689194FF04E0A4FF0B9
:1015E0004F0B45F2105EF02749F24138F8B14A48F6
:1015F0004FF0010C414580F806C04FF4A07CA0F8E4
:1016000000C047800FD0A1F5A647103F0BD0A1F531
:10161000D047043F4ED0494550D10281A0F80AB0CE
:10162000A0F80CA060E00381448185815CE03A4829
:101630004FF0000C414580F806C007804FF4A077BA
:10164000478011D0A1F5D04CBCF1040C0CD0A1F511
:10165000A04CBCF5447C07D0494514D10281A0F8C8
:101660000AA0A0F80CB04CE003814481A1F5D0425F
:101670008581043A03D0A1F5A642103A41D10780F2
:101680004FF4F0710FE071450FD14FF430510181EB
:101690004FF4285141814FF42C5181814FF4F07166
:1016A00001804FF4487141802BE00281202141816B
:1016B000868126E003814581848115E071450FD143
:1016C0004FF4305202814FF4285242814FF42C5291
:1016D00082814FF4487202804FF4F072428003E03E
:1016E0000281468120228281A1F5D042043A03D0B2
:1016F000A1F5A642103A04D14FF4F0710180A0F890
:1017000002C0BDE8F05F0020FFF7B6BB001001404B
:1017100016000020000C01408C1F00202DE9F05F16
:1017200007461044401E85B2C818401E0E4684B2BB
:10173000FE4A4FEA112A114690884989A0F51343C1
:101740004FF4807B4FEA1729413B30D0A0F5A643E8
:10175000103B2CD0A0F5D043043B28D0A0F5AA43E1
:10176000103B7DD0917901297BD0A846394635467A
:10177000A0F50942893A75D050204FF0510B4FF037
:10178000520A53229146FFF7BBF841465846FFF7ED
:10179000B7F829465046FFF7B3F821464846FFF709
:1017A000AFF831463846BDE8F05FFFF7FBB80846B2
:1017B000FFF72EF84FF48071DD4806F01CFA4FF465
:1017C000007B5946DA4806F018FADFF86883494684
:1017D000404606F019FA8021D54806F00EFA80211D
:1017E000D34806F008FA5946D14806F004FA4FF4F7
:1017F0008071CF4806F0FFF95946CD4806F0FDF953
:10180000F9B2404606F000FA8021C94806F0F5F921
:101810008021C74806F0EFF95946C54806F0EBF9B4
:101820004FF48071C24806F0E6F95946C04806F008
:10183000E4F9290A404606F0E7F98021BC4806F0A1
:10184000DCF98021BA4806F0D6F95946B84806F0C6
:10185000D2F94FF48071B64806F0CDF9594602E04E
:101860007AE08BE180E1B24806F0C7F9E9B2404680
:1018700006F0CAF98021AE4806F0BFF98021AC48D5
:1018800006F0B9F95946AA4806F0B5F9A748808983
:10189000FEF7BEFF4FF48071A54806F0ACF959463B
:1018A000A34806F0AAF95146404606F0ADF980215A
:1018B0009F4806F0A2F980219D4806F09CF9594600
:1018C0009B4806F098F94FF48071994806F093F917
:1018D0005946974806F091F9F1B2404606F094F95E
:1018E0008021934806F089F98021914806F083F918
:1018F00059468F4806F07FF94FF480718C4806F006
:101900007AF959468A4806F078F9210A404606F0E5
:101910007BF98021864806F070F98021844806F022
:101920006AF95946824806F066F94FF4807180489A
:1019300006F061F959467E4806F05FF9E1B240468B
:1019400006F062F980217A4806F057F9802178483C
:1019500006F051F9594602E190460846FEF758FF55
:101960005946734806F047F94FF40071704806F085
:1019700044F94946DFF8BC91484606F045F9802114
:101980006B4806F03AF98021694806F034F94FF4C3
:101990000071674806F02FF9B8F80A00401C80B2C1
:1019A000FEF736FF5946624806F025F94FF40071FC
:1019B0005F4806F022F9F9B2484606F025F9802181
:1019C0005B4806F01AF98021594806F014F94FF4E3
:1019D0000071574806F00FF9B8F80A00801C80B271
:1019E000FEF716FF5946524806F005F94FF400710C
:1019F0004F4806F002F9290A484606F005F9802109
:101A00004B4806F0FAF88021494806F0F4F84FF404
:101A10000071474806F0EFF8B8F80A00C01C80B221
:101A2000FEF7F6FE5946424806F0E5F84FF400711D
:101A30003F4806F0E2F8E9B2484606F0E5F88021B2
:101A40003B4806F0DAF88021394806F0D4F84FF424
:101A50000071374806F0CFF8B8F80C00FEF7D8FE52
:101A60005946334806F0C7F84FF40071304806F085
:101A7000C4F85146484606F0C7F880212C4806F0C5
:101A8000BCF880212A4806F0B6F84FF400712848C7
:101A900006F0B1F8B8F80C00401C80B2FEF7B8FEB2
:101AA0005946234806F0A7F84FF40071204806F085
:101AB000A4F8F1B2484606F0A7F880211C4806F0C9
:101AC0009CF880211A4806F096F84FF400711848E7
:101AD00006F091F8B8F80C00801C80B2FEF798FE72
:101AE0005946134806F087F84FF40071104806F085
:101AF00084F8210A484606F087F880210C4806F051
:101B00007CF880210A4806F076F84FF40071084806
:101B100006F071F8B8F80C00C01C80B2FEF778FE31
:101B20005946034806F067F806E000008C1F0020C5
:101B300000100140000C01404FF40071FE4806F017
:101B40005CF8E1B2484606F05FF88021FA4806F0FA
:101B500054F88021F84806F04EF84FF40071BDE8C3
:101B6000F05FF54806F047B8442041EA082189B201
:101B7000834688464FF0450A462203E61288A0466F
:101B8000531B5B1ED21B521E31469DB294B2EFE531
:101B90002DE9F047E94E8246002430887588454398
:101BA000B088A0F5D041043902D1B07901280CD019
:101BB00000210846FEF7F6FEFEF7C9FEDE4E4FF4A2
:101BC00080787715DFF8789329E00020B0712A2714
:101BD00077814FF02B08A6F80C800146FEF7E2FE55
:101BE0000120B071A6F80A80B781E5E7414630468A
:101BF00006F001F83946304605F0FFFF51464846E9
:101C000006F002F88021304605F0F7FF80213046CB
:101C100005F0F1FF3946304605F0EDFF641CAC429B
:101C2000E4D3BDE8F0872DE9F84F0121192006F033
:101C300060F90121C34805F0FFFF4FF4F864ADF8E7
:101C4000004010208DF803000320BB4D8DF80200EA
:101C50006946284605F065FF2146284605F0CBFF7A
:101C6000B74C4FF6FF75ADF800506946204605F0B9
:101C700058FF2946204605F0BEFF322005F025FD1D
:101C800001210020FEF73CFE322005F01EFD002061
:101C9000FEF757FEA94C49F2413646F60408A080EB
:101CA00045F2103945F21057FF2804D3A84202D05C
:101CB000B0F5134F56D1D320FEF7AAFDFEF7E6FD8F
:101CC000FEF7E4FDFEF7E2FD05EA0020A080FEF746
:101CD000DDFDA1880843A080B04243D0BF20FEF7BD
:101CE00097FDFEF7D3FDFEF7D1FDFEF7CFFDFEF722
:101CF000CDFD05EA0020A080FEF7C8FDA1880843BD
:101D0000A08040452ED0D420FEF782FDFEF7BEFD18
:101D1000FEF7BCFDFEF7BAFD05EA0020A080FEF745
:101D2000B5FDA1880843A08048451BD04FF45A4018
:101D3000FEF76EFDFEF7AAFD4FF45B40FEF768FD6F
:101D4000FEF7A4FD05EA0020A0804FF45C40FEF7FA
:101D50005FFDFEF79BFDA1880843A080B0F5004F12
:101D600000D1A780A18878A012F048FAA088B042DC
:101D70007ED1CF20FEF74CFD0020FEF768FDC1208C
:101D8000FEF765FD3020FEF762FDED20FEF740FD19
:101D90006420FEF75CFD0320FEF759FD1220FEF7DC
:101DA00056FD8120FEF753FDE820FEF731FD85202A
:101DB000FEF74DFD1020FEF74AFD7A20FEF747FDA5
:101DC000CB20FEF725FD3920FEF741FD2C20FEF744
:101DD0003EFD0020FEF73BFD3420FEF738FD0220DB
:101DE000FEF735FDF720FEF713FD2020FEF72FFD4F
:101DF000EA20FEF70DFD0020FEF729FD0020FEF78A
:101E000026FDC020FEF704FD1B20FEF720FDC120AB
:101E1000FEF7FEFC0120FEF71AFDC520FEF7F8FCD8
:101E20003020FEF714FD3020FEF711FDC720FEF72D
:101E3000EFFCB720FEF70BFD3620FEF7E9FC48204B
:101E4000FEF705FD3A20FEF7E3FC5520FEF7FFFC08
:101E5000B120FEF7DDFC0020FEF7F9FC1A20FEF7AA
:101E6000F6FCB620FEF7D4FC0A20FEF7F0FC00E0FA
:101E7000A2E0A220FEF7EBFCF220FEF7C9FC002056
:101E8000FEF7E5FC2620FEF7C3FC0120FEF7DFFC91
:101E9000E020FEF7BDFC0F20FEF7D9FC2A20FEF75C
:101EA000D6FC2820FEF7D3FC0820FEF7D0FC0E203D
:101EB000FEF7CDFC0820FEF7CAFC5420FEF7C7FC55
:101EC000A920FEF7C4FC4320FEF7C1FC0A20FEF760
:101ED000BEFC0F20FEF7BBFC0020FEF7B8FC002084
:101EE000FEF7B5FC0020FEF7B2FC0020FEF7AFFCC9
:101EF000E120FEF78DFC0020FEF7A9FC1520FEF77F
:101F0000A6FC1720FEF7A3FC0720FEF7A0FC11207B
:101F1000FEF79DFC0620FEF79AFC2B20FEF797FCAF
:101F20005620FEF794FC3C20FEF791FC0520FEF7BE
:101F30008EFC102010E00000001001408C1F0020DB
:101F4000000C014000023000204C43442049443A38
:101F500025780D0A00000000FEF779FC0F20FEF73F
:101F600076FC3F20FEF773FC3F20FEF770FC0F204D
:101F7000FEF76DFC2B20FEF74BFC0020FEF767FC04
:101F80000020FEF764FC0120FEF761FC3F20FEF715
:101F90005EFC2A20FEF73CFC0020FEF758FC0020E7
:101FA000FEF755FC0020FEF752FCEF20FEF74FFC39
:101FB0001120FEF72DFCA5E040457CD11120FEF755
:101FC00027FC142005F081FBD020FEF721FC072020
:101FD000FEF73DFC4220FEF73AFC1D20FEF737FCE1
:101FE000D120FEF715FC0020FEF731FC1A20FEF789
:101FF0002EFC0920FEF72BFCD220FEF709FC012065
:10200000FEF725FC2220FEF722FCC020FEF700FC94
:102010001020FEF71CFC3B20FEF719FC0020FEF709
:1020200016FC0220FEF713FC1120FEF710FCC52061
:10203000FEF7EEFB0320FEF70AFCC820FEF7E8FBE4
:102040000020FEF704FC2520FEF701FC2120FEF70E
:10205000FEFB0520FEF7FBFB0020FEF7F8FB0A2045
:10206000FEF7F5FB6520FEF7F2FB2520FEF7EFFB00
:102070007720FEF7ECFB5020FEF7E9FB0F20FEF780
:10208000E6FB0020FEF7E3FBF820FEF7C1FB012092
:10209000FEF7DDFBFE20FEF7BBFB0020FEF7D7FBC3
:1020A0000220FEF7D4FB2020FEF7B2FB3620FEF71D
:1020B000AFFB082000E02BE0FEF7C9FB3A20FEF75B
:1020C000A7FB5520FEF7C3FB2B20FEF7A1FB00204A
:1020D000FEF7BDFB0020FEF7BAFB0120FEF7B7FBC1
:1020E0003F20FEF7B4FB2A20FEF792FB0020FEF70C
:1020F000AEFB0020FEF7ABFB0120FEF7A8FBDF20C4
:10210000FEF7A5FB782005F0E0FA292001F0FCBEDF
:1021100048457CD1ED20FEF77BFB0120FEF797FBC5
:10212000FE20FEF794FBEE20FEF772FBDE20FEF7AA
:102130008EFB2120FEF78BFBF120FEF769FB0120CF
:10214000FEF785FBDF20FEF763FB1020FEF77FFB29
:10215000C420FEF75DFB8F20FEF779FBC620FEF75B
:1021600057FB0020FEF773FBE220FEF770FBE22036
:10217000FEF76DFBE220FEF76AFBBF20FEF748FB8F
:10218000AA20FEF764FBB020FEF742FB0D20FEF70D
:102190005EFB0020FEF75BFB0D20FEF758FB0020E6
:1021A000FEF755FB1120FEF752FB0020FEF74FFB18
:1021B0001920FEF74CFB0020FEF749FB2120FEF71B
:1021C00046FB0020FEF743FB2D20FEF740FB0020DE
:1021D000FEF73DFB3D20FEF73AFB0020FEF737FB04
:1021E0005D20FEF734FB0020FEF731FB5D20FEF79B
:1021F0002EFB0020FEF72BFBB120FEF709FB802011
:10220000FEF725FB0020FEF722FB8B2000E0FCE31D
:10221000FEF71DFB0020FEF71AFB9620FEF717FBCA
:102220000020FEF714FBB220FEF7F2FA0020FEF7C2
:102230000EFB0020FEF70BFB0220FEF708FB002040
:10224000FEF705FB0320FEF702FB0020FEF7FFFA76
:10225000B320FEF7DDFA0020FEF7F9FA0020FEF7C2
:10226000F6FA0020FEF7F3FA0020FEF7F0FA00205D
:10227000FEF7EDFA0020FEF7EAFA0020FEF7E7FA93
:102280000020FEF7E4FA0020FEF7E1FA0020FEF756
:10229000DEFA0020FEF7DBFA0020FEF7D8FA002075
:1022A000FEF7D5FA0020FEF7D2FA0020FEF7CFFAAB
:1022B0000020FEF7CCFA0020FEF7C9FA0020FEF756
:1022C000C6FA0020FEF7C3FA0020FEF7C0FA00208D
:1022D000FEF7BDFA0020FEF7BAFA0020FEF7B7FAC3
:1022E0000020FEF7B4FAB420FEF792FA8B20FEF736
:1022F000AEFA0020FEF7ABFA9620FEF7A8FA00200F
:10230000FEF7A5FAA120FEF7A2FA0020FEF79FFA39
:10231000B520FEF77DFA0220FEF799FA0020FEF7BD
:1023200096FA0320FEF793FA0020FEF790FA0420B5
:10233000FEF78DFA0020FEF78AFAB620FEF768FA5B
:102340000020FEF784FA0020FEF781FAB720FEF79E
:102350005FFA0020FEF77BFA0020FEF778FA3F20B4
:10236000FEF775FA0020FEF772FA5E20FEF76FFAAC
:102370000020FEF76CFA6420FEF769FA0020FEF7F1
:1023800066FA8C20FEF763FA0020FEF760FAAC20B4
:10239000FEF75DFA0020FEF75AFADC20FEF757FA46
:1023A0000020FEF754FA7020FEF751FA0020FEF7E5
:1023B0004EFA9020FEF74BFA0020FEF748FAEB2089
:1023C000FEF745FA0020FEF742FADC20FEF73FFA5E
:1023D0000020FEF73CFAB820FEF71AFA0020FEF7BC
:1023E00036FA0020FEF733FA0020FEF730FA00201C
:1023F000FEF72DFA0020FEF72AFA0020FEF727FA52
:102400000020FEF724FA0020FEF721FABA20FEF79A
:10241000FFF92420FEF71BFA0020FEF718FA00202F
:10242000FEF715FA0020FEF712FAC120FEF7F0F9C8
:102430002020FEF70CFA0020FEF709FA5420FEF7E0
:1024400006FA0020FEF703FAFF20FEF700FA00204C
:10245000FEF7FDF9C220FEF7DBF90A20FEF7F7F9D7
:102460000020FEF7F4F90420FEF7F1F90020FEF752
:10247000EEF9C320FEF7CCF93C20FEF7E8F9002086
:10248000FEF7E5F93A20FEF7E2F90020FEF7DFF962
:102490003920FEF7DCF90020FEF7D9F93720FEF7E6
:1024A000D6F90020FEF7D3F93C20FEF7D0F9002042
:1024B000FEF7CDF93620FEF7CAF90020FEF7C7F97E
:1024C0003220FEF7C4F90020FEF7C1F92F20FEF7F5
:1024D000BEF90020FEF7BBF92C20FEF7B8F900206A
:1024E000FEF7B5F92920FEF7B2F90020FEF7AFF9A3
:1024F0002620FEF7ACF90020FEF7A9F92420FEF70C
:10250000A6F90020FEF7A3F92420FEF7A0F9002089
:10251000FEF79DF92320FEF79AF90020FEF797F9C0
:102520003C20FEF794F90020FEF791F93620FEF7E3
:102530008EF90020FEF78BF93220FEF788F9002093
:10254000FEF785F92F20FEF782F90020FEF77FF9CC
:102550002C20FEF77CF90020FEF779F92920FEF700
:1025600076F90020FEF773F92620FEF770F90020B7
:10257000FEF76DF92420FEF76AF90020FEF767F9EF
:102580002420FEF764F90020FEF761F92320FEF70E
:102590005EF90020FEF75BF9C420FEF739F96220EE
:1025A000FEF755F90020FEF752F90520FEF74FF926
:1025B0000020FEF74CF98420FEF749F90020FEF7D1
:1025C00046F9F020FEF743F90020FEF740F9182005
:1025D000FEF73DF90020FEF73AF9A420FEF737F99F
:1025E0000020FEF734F91820FEF731F90020FEF73D
:1025F0002EF95020FEF72BF90020FEF728F90C20C9
:10260000FEF725F90020FEF722F91720FEF71FF943
:102610000020FEF71CF99520FEF719F90020FEF7BF
:1026200016F9F320FEF713F90020FEF710F9E62063
:10263000FEF70DF90020FEF70AF9C520FEF7E8F8CD
:102640003220FEF704F90020FEF701F94420FEF7DE
:10265000FEF80020FEF7FBF86520FEF7F8F80020F2
:10266000FEF7F5F87620FEF7F2F80020FEF7EFF817
:102670008820FEF7ECF80020FEF7E9F8C620FEF708
:10268000C7F82020FEF7E3F80020FEF7E0F8172057
:10269000FEF7DDF80020FEF7DAF80120FEF7D7F8A4
:1026A0000020FEF7D4F8C720FEF7B2F80020FEF7AE
:1026B000CEF80020FEF7CBF80020FEF7C8F8002087
:1026C000FEF7C5F8C820FEF7A3F80020FEF7BFF814
:1026D0000020FEF7BCF80020FEF7B9F80020FEF756
:1026E000B6F8C920FEF794F80020FEF7B0F80020F5
:1026F000FEF7ADF80020FEF7AAF80020FEF7A7F8D5
:102700000020FEF7A4F80020FEF7A1F80020FEF755
:102710009EF80020FEF79BF80020FEF798F80020B6
:10272000FEF795F80020FEF792F80020FEF78FF8EC
:102730000020FEF78CF80020FEF789F80020FEF755
:1027400086F80020FEF783F8E020FEF761F81620F7
:10275000FEF77DF80020FEF77AF81C20FEF777F8E8
:102760000020FEF774F82120FEF771F80020FEF734
:102770006EF83620FEF76BF80020FEF768F846206A
:10278000FEF765F80020FEF762F85220FEF75FF8CA
:102790000020FEF75CF86420FEF759F80020FEF7F1
:1027A00056F87A20FEF753F80020FEF750F88B20F9
:1027B000FEF74DF80020FEF74AF89920FEF747F89B
:1027C0000020FEF744F8A820FEF741F80020FEF7AD
:1027D0003EF8B920FEF73BF80020FEF738F8C42099
:1027E000FEF735F80020FEF732F8CA20FEF72FF882
:1027F0000020FEF72CF8D220FEF729F80020FEF783
:1028000026F8D920FEF723F80020FEF720F8E02074
:10281000FEF71DF80020FEF71AF8F320FEF717F870
:102820000020FEF714F8E120FDF7F2FF1620FEF776
:102830000EF80020FEF70BF81C20FEF708F8002029
:10284000FEF705F82220FEF702F80020FDF7FFFF53
:102850003620FDF7FCFF0020FDF7F9FF4520FDF7CE
:10286000F6FF0020FDF7F3FF5220FDF7F0FF0020F8
:10287000FDF7EDFF6420FDF7EAFF0020FDF7E7FF1D
:102880007A20FDF7E4FF0020FDF7E1FF8B20FDF744
:10289000DEFF0020FDF7DBFF9920FDF7D8FF0020C9
:1028A000FDF7D5FFA820FDF7D2FF0020FDF7CFFFF1
:1028B000B920FDF7CCFF0020FDF7C9FFC420FDF7CC
:1028C000C6FF0020FDF7C3FFCA20FDF7C0FF0020B0
:1028D000FDF7BDFFD220FDF7BAFF0020FDF7B7FFDF
:1028E000D820FDF7B4FF0020FDF7B1FFE020FDF791
:1028F000AEFF0020FDF7ABFFF320FDF7A8FF00209F
:10290000FDF7A5FFE220FDF783FF0520FDF79FFF00
:102910000020FDF79CFF0B20FDF799FF0020FDF73D
:1029200096FF1B20FDF793FF0020FDF790FF34205A
:10293000FDF78DFF0020FDF78AFF4420FDF787FF9C
:102940000020FDF784FF4F20FDF781FF0020FDF7F9
:102950007EFF6120FDF77BFF0020FDF778FF7920E7
:10296000FDF775FF0020FDF772FF8820FDF76FFF70
:102970000020FDF76CFF9720FDF769FF0020FDF7B1
:1029800066FFA620FDF763FF0020FDF760FFB7207C
:10299000FDF75DFF0020FDF75AFFC220FDF757FF4E
:1029A0000020FDF754FFC720FDF751FF0020FDF781
:1029B0004EFFD120FDF74BFF0020FDF748FFD6204A
:1029C000FDF745FF0020FDF742FFDD20FDF73FFF4B
:1029D0000020FDF73CFFF320FDF739FF0020FDF755
:1029E00036FFE320FDF714FF0520FDF730FF002040
:1029F000FDF72DFF0A20FDF72AFF0020FDF727FF36
:102A00001C20FDF724FF002000E0FDE2FDF71FFF82
:102A10003320FDF71CFF0020FDF719FF4420FDF7D0
:102A200016FF0020FDF713FF5020FDF710FF0020D8
:102A3000FDF70DFF6220FDF70AFF0020FDF707FFFD
:102A40007820FDF704FF0020FDF701FF8820FDF747
:102A5000FEFE0020FDF7FBFE9720FDF7F8FE0020AC
:102A6000FDF7F5FEA620FDF7F2FE0020FDF7EFFED4
:102A7000B720FDF7ECFE0020FDF7E9FEC220FDF7D0
:102A8000E6FE0020FDF7E3FEC720FDF7E0FE002094
:102A9000FDF7DDFED120FDF7DAFE0020FDF7D7FEC1
:102AA000D520FDF7D4FE0020FDF7D1FEDD20FDF797
:102AB000CEFE0020FDF7CBFEF320FDF7C8FE002080
:102AC000FDF7C5FEE420FDF7A3FE0120FDF7BFFEE4
:102AD0000020FDF7BCFE0120FDF7B9FE0020FDF748
:102AE000B6FE0220FDF7B3FE0020FDF7B0FE2A205F
:102AF000FDF7ADFE0020FDF7AAFE3C20FDF7A7FE86
:102B00000020FDF7A4FE4B20FDF7A1FE0020FDF7FD
:102B10009EFE5D20FDF79BFE0020FDF798FE7420D1
:102B2000FDF795FE0020FDF792FE8420FDF78FFE55
:102B30000020FDF78CFE9320FDF789FE0020FDF7B5
:102B400086FEA220FDF783FE0020FDF780FEB32065
:102B5000FDF77DFE0020FDF77AFEBE20FDF777FE33
:102B60000020FDF774FEC420FDF771FE0020FDF784
:102B70006EFECD20FDF76BFE0020FDF768FED32032
:102B8000FDF765FE0020FDF762FEDD20FDF75FFE2C
:102B90000020FDF75CFEF320FDF759FE0020FDF755
:102BA00056FEE520FDF734FE0020FDF750FE002024
:102BB000FDF74DFE0020FDF74AFE0020FDF747FE21
:102BC0000220FDF744FE0020FDF741FE2920FDF71D
:102BD0003EFE0020FDF73BFE3C20FDF738FE0020C6
:102BE000FDF735FE4B20FDF732FE0020FDF72FFEEE
:102BF0005D20FDF72CFE0020FDF729FE7420FDF777
:102C000026FE0020FDF723FE8420FDF720FE002095
:102C1000FDF71DFE9320FDF71AFE0020FDF717FEBD
:102C2000A220FDF714FE0020FDF711FEB320FDF7F2
:102C30000EFE0020FDF70BFEBE20FDF708FE002073
:102C4000FDF705FEC420FDF702FE0020FDF7FFFDA5
:102C5000CD20FDF7FCFD0020FDF7F9FDD320FDF7A9
:102C6000F6FD0020FDF7F3FDDC20FDF7F0FD002070
:102C7000FDF7EDFDF320FDF7EAFD0020FDF7E7FD90
:102C8000E620FDF7C5FD1120FDF7E1FD0020FDF771
:102C9000DEFD3420FDF7DBFD0020FDF7D8FD5620DA
:102CA000FDF7D5FD0020FDF7D2FD7620FDF7CFFD25
:102CB0000020FDF7CCFD7720FDF7C9FD0020FDF7D2
:102CC000C6FD6620FDF7C3FD0020FDF7C0FD88208E
:102CD000FDF7BDFD0020FDF7BAFD9920FDF7B7FD1A
:102CE0000020FDF7B4FDBB20FDF7B1FD0020FDF78E
:102CF000AEFD9920FDF7ABFD0020FDF7A8FD662095
:102D0000FDF7A5FD0020FDF7A2FD5520FDF79FFD75
:102D10000020FDF79CFD5520FDF799FD0020FDF7F3
:102D200096FD4520FDF793FD0020FDF790FD432023
:102D3000FDF78DFD0020FDF78AFD4420FDF787FD9E
:102D40000020FDF784FDE720FDF762FD3220FDF74E
:102D50007EFD0020FDF77BFD5520FDF778FD00206E
:102D6000FDF775FD7620FDF772FD0020FDF76FFD84
:102D70006620FDF76CFD0020FDF769FD6720FDF77B
:102D800066FD0020FDF763FD6720FDF760FD002074
:102D9000FDF75DFD8720FDF75AFD0020FDF757FD8B
:102DA0009920FDF754FD0020FDF751FDBB20FDF7F4
:102DB0004EFD0020FDF74BFD9920FDF748FD00205A
:102DC000FDF745FD7720FDF742FD0020FDF73FFDB3
:102DD0004420FDF73CFD0020FDF739FD5620FDF7AE
:102DE00036FD0020FDF733FD2320FDF730FD0020E8
:102DF000FDF72DFD3320FDF72AFD0020FDF727FD0F
:102E00004520FDF724FD0020FDF721FDE820FDF71A
:102E1000FFFC0020FDF71BFD0020FDF718FD9920A9
:102E2000FDF715FD0020FDF712FD8720FDF70FFDD2
:102E30000020FDF70CFD8820FDF709FD0020FDF7BF
:102E400006FD7720FDF703FD0020FDF700FD66205D
:102E5000FDF7FDFC0020FDF7FAFC8820FDF7F7FCEC
:102E60000020FDF7F4FCAA20FDF7F1FC0020FDF79F
:102E7000EEFCBB20FDF7EBFC0020FDF7E8FC992001
:102E8000FDF7E5FC0020FDF7E2FC6620FDF7DFFC26
:102E90000020FDF7DCFC5520FDF7D9FC0020FDF7F4
:102EA000D6FC5520FDF7D3FC0020FDF7D0FC4420D4
:102EB000FDF7CDFC0020FDF7CAFC4420FDF7C7FC60
:102EC0000020FDF7C4FC5520FDF7C1FC0020FDF7F4
:102ED000BEFCE920FDF79CFCAA20FDF7B8FC002011
:102EE000FDF7B5FC0020FDF7B2FC0020FDF7AFFCBC
:102EF0000020FDF78DFCAA20FDF7A9FCCF20FDF7EF
:102F000087FC0020FDF7A3FC0020FDF7A0FC0020BB
:102F1000FDF79DFC0020FDF79AFC0020FDF797FCD3
:102F20000020FDF794FC0020FDF791FC0020FDF748
:102F30008EFC0020FDF78BFC0020FDF788FC0020B4
:102F4000FDF785FC0020FDF782FC0020FDF77FFCEB
:102F50000020FDF77CFC0020FDF779FC0020FDF748
:102F600076FC0020FDF773FCF020FDF751FC0020FB
:102F7000FDF76DFC5020FDF76AFC0020FDF767FCB3
:102F80000020FDF764FC0020FDF761FCF320FDF755
:102F90003FFC0020FDF75BFCF920FDF739FC062023
:102FA000FDF755FC1020FDF752FC2920FDF74FFCE2
:102FB0000020FDF74CFC3A20FDF72AFC5520FDF7D8
:102FC00046FC1120FDF724FC642004F07EFB292040
:102FD000FDF71EFC3520FDF71BFC0020FDF737FC3C
:102FE0005120FDF715FCFF20FDF731FC5320FDF7C4
:102FF0000FFC2C20FDF72BFC5520FDF709FC82204F
:10300000FDF725FC2C20FCE3B8427DD14FF4704441
:1030100055212046FDF774FC661CAA213046FDF7B9
:103020006FFCA71C52213846FDF76AFC4FF20308DB
:1030300008214046FDF764FC4FF20409012148468F
:10304000FDF75EFC0D214FF43040FDF759FC0D21DA
:103050004BF20100FDF754FC0D214BF20200FDF78D
:103060004FFC4FF4364A34215046FDF749FC3421D9
:103070004BF20160FDF744FC34214BF20260FDF796
:103080003FFC4FF4314B0D215846FDF739FC0D2123
:103090004BF20110FDF734FC0D214BF20210FDF74D
:1030A0002FFC34214FF43740FDF72AFC34214BF23A
:1030B0000170FDF725FC34214BF20270FDF720FC76
:1030C00000214FF43240FDF71BFC00214BF20120A0
:1030D000FDF716FC00214BF20220FDF711FC242124
:1030E0004FF43840FDF70CFC24214BF60100FDF7AE
:1030F00007FC24214BF60200FDF702FC01214FF4EE
:103100003F40FDF7FDFB00E0FEE30F214FF43340AD
:10311000FDF7F6FB0F214BF20130FDF7F1FB0F211C
:103120004BF20230FDF7ECFB34214FF43940FDF750
:10313000E7FB34214BF60110FDF7E2FB34214BF69F
:103140000210FDF7DDFB08214FF43540FDF7D8FBF9
:1031500008214BF20150FDF7D3FB08214BF202503E
:10316000FDF7CEFB03214FF44240FDF7C9FB2421BC
:103170004FF43A40FDF7C4FB24214BF60120FDF744
:10318000BFFB24214BF60220FDF7BAFB00214FF4D0
:103190003C40FDF7B5FB78214BF60140FDF7B0FB55
:1031A00000214BF60240FDF7ABFB00214FF43D4000
:1031B000FDF7A6FB78214BF60150FDF7A1FB00219E
:1031C0004BF60250FDF79CFB00214FF43E40FDF70B
:1031D00097FB64214BF60160FDF792FB00214FF451
:1031E0005140FDF78DFB33214DF20110FDF788FBB7
:1031F00000214DF20210FDF783FB34214DF2031044
:10320000FDF77EFB00214DF20410FDF779FB3A211A
:103210004DF20510FDF774FB00214DF20610FDF78D
:103220006FFB4A214DF20710FDF76AFB00214DF2BA
:103230000810FDF765FB5C214DF20910FDF760FBFE
:1032400000214DF20A10FDF75BFB81214DF20B10BE
:10325000FDF756FB00214DF20C10FDF751FBA621A6
:103260004DF20D10FDF74CFB00214DF20E10FDF755
:1032700047FBE5214DF20F10FDF742FB01214DF216
:103280001010FDF73DFB13214DF21110FDF738FB37
:1032900001214DF21210FDF733FB54214DF21310B2
:1032A000FDF72EFB01214DF21410FDF729FB8221C1
:1032B0004DF21510FDF724FB01214DF21610FDF71C
:1032C0001FFBCA214DF21710FDF71AFB02214DF228
:1032D0001810FDF715FB00214DF21910FDF710FB3A
:1032E00002214DF21A10FDF70BFB01214DF21B10CC
:1032F000FDF706FB02214DF21C10FDF701FB342106
:103300004DF21D10FDF7FCFA02214DF21E10FDF7E3
:10331000F7FA67214DF21F10FDF7F2FA02214DF284
:103320002010FDF7EDFA84214DF22110FDF7E8FAA7
:1033300002214DF22210FDF7E3FAA4214DF22310F1
:10334000FDF7DEFA02214DF22410FDF7D9FAB7217C
:103350004DF22510FDF7D4FA02214DF22610FDF7AB
:10336000CFFACF214DF22710FDF7CAFA02214DF214
:103370002810FDF7C5FADE214DF22910FDF7C0FA3D
:1033800002214DF22A10FDF7BBFAF2214DF22B106B
:10339000FDF7B6FA02214DF22C10FDF7B1FAFE212D
:1033A0004DF22D10FDF7ACFA03214DF22E10FDF772
:1033B000A7FA10214DF22F10FDF7A2FA03214DF2CA
:1033C0003010FDF79DFA33214DF23110FDF798FAD8
:1033D00003214DF23210FDF793FA6D214DF23310B7
:1033E000FDF78EFA00214FF45240FDF789FA3321A0
:1033F0004DF20120FDF784FA00214DF20220FDF785
:103400007FFA34214DF20320FDF77AFA00214DF2C4
:103410000420FDF775FA3A214DF20520FDF770FA08
:1034200000214DF20620FDF76BFA4A214DF20720EC
:10343000FDF766FA00214DF20820FDF761FA5C21E4
:103440004DF20920FDF75CFA00214DF20A20FDF74C
:1034500057FA81214DF20B20FDF752FA00214DF26F
:103460000C20FDF74DFAA6214DF20D20FDF748FA8C
:1034700000214DF20E20FDF743FAE5214DF20F2019
:10348000FDF73EFA01214DF21020FDF739FA132124
:103490004DF21120FDF734FA01214DF21220FDF713
:1034A0002FFA54214DF21320FDF72AFA01214DF293
:1034B0001420FDF725FA82214DF21520FDF720FAA0
:1034C00001214DF21620FDF71BFACA214DF21720FB
:1034D000FDF716FA02214DF21820FDF711FA00212E
:1034E0004DF21920FDF70CFA02214DF21A20FDF7DA
:1034F00007FA01214DF21B20FDF702FA02214DF2DD
:103500001C20FDF7FDF934214DF21D20FDF7F8F9DF
:1035100002214DF21E20FDF7F3F967214DF21F2025
:10352000FDF7EEF902214DF22020FDF7E9F98421A3
:103530004DF22120FDF7E4F902214DF22220FDF7A2
:10354000DFF9A4214DF22320FDF7DAF902214DF233
:103550002420FDF7D5F9B7214DF22520FDF7D0F94C
:1035600002214DF22620FDF7CBF9CF214DF2272085
:10357000FDF7C6F902214DF22820FDF7C1F9DE2141
:103580004DF22920FDF7BCF902214DF22A20FDF76A
:10359000B7F9F2214DF22B20FDF7B2F902214DF2DD
:1035A0002C20FDF7ADF9FE214DF22D20FDF7A8F9F5
:1035B00003214DF22E20FDF7A3F910214DF22F200B
:1035C000FDF79EF903214DF23020FDF799F93321E3
:1035D0004DF23120FDF794F903214DF23220FDF731
:1035E0008FF96D214DF23320FDF78AF900214FF458
:1035F0005340FDF785F933214DF20130FDF780F995
:1036000000214DF20230FDF77BF934214DF20330F9
:10361000FDF776F900214DF20430FDF771F93A21FA
:103620004DF20530FDF76CF900214DF20630FDF743
:1036300067F94A214DF20730FDF762F900214DF29A
:103640000830FDF75DF95C214DF20930FDF758F9BE
:1036500000214DF20A30FDF753F981214DF20B3074
:10366000FDF74EF900214DF20C30FDF749F9A62186
:103670004DF20D30FDF744F900214DF20E30FDF70B
:103680003FF9E5214DF20F30FDF73AF901214DF2F6
:103690001030FDF735F913214DF21130FDF730F9F7
:1036A00001214DF21230FDF72BF954214DF2133068
:1036B000FDF726F901214DF21430FDF721F98221A1
:1036C0004DF21530FDF71CF901214DF21630FDF7D2
:1036D00017F9CA214DF21730FDF712F902214DF208
:1036E0001830FDF70DF900214DF21930FDF708F9FA
:1036F00002214DF21A30FDF703F901214DF21B3082
:10370000FDF7FEF802214DF21C30FDF7F9F83421E7
:103710004DF21D30FDF7F4F802214DF21E30FDF799
:10372000EFF867214DF21F30FDF7EAF802214DF264
:103730002030FDF7E5F884214DF22130FDF7E0F867
:1037400002214DF22230FDF7DBF8A4214DF22330A7
:10375000FDF7D6F802214DF22430FDF7D1F8B7215C
:103760004DF22530FDF7CCF802214DF22630FDF761
:10377000C7F8CF214DF22730FDF7C2F802214DF2F4
:103780002830FDF7BDF8DE214DF22930FDF7B8F8FD
:1037900002214DF22A30FDF7B3F8F2214DF22B3021
:1037A000FDF7AEF802214DF22C30FDF7A9F8FE210D
:1037B0004DF22D30FDF7A4F803214DF22E30FDF728
:1037C0009FF810214DF22F30FDF79AF803214DF2AA
:1037D0003030FDF795F833214DF23130FDF790F898
:1037E00003214DF23230FDF78BF86D214DF233306D
:1037F000FDF786F800214FF45440FDF781F833219E
:1038000000E081E34DF20140FDF77AF800214DF22E
:103810000240FDF775F834214DF20340FDF770F8D2
:1038200000214DF20440FDF76BF83A214DF20540BE
:10383000FDF766F800214DF20640FDF761F84A21D8
:103840004DF20740FDF75CF800214DF20840FDF70E
:1038500057F85C214DF20940FDF752F800214DF276
:103860000A40FDF74DF881214DF20B40FDF748F875
:1038700000214DF20C40FDF743F8A6214DF20D401A
:10388000FDF73EF800214DF20E40FDF739F8E52135
:103890004DF20F40FDF734F801214DF21040FDF7D5
:1038A0002FF813214DF21140FDF72AF801214DF2B6
:1038B0001240FDF725F854214DF21340FDF720F892
:1038C00001214DF21440FDF71BF882214DF2154005
:1038D000FDF716F801214DF21640FDF711F8CA2147
:1038E0004DF21740FDF70CF802214DF21840FDF79C
:1038F00007F800214DF21940FDF702F802214DF2C0
:103900001A40FCF7FDFF00E001E301214DF21B40EE
:10391000FCF7F6FF02214DF21C40FCF7F1FF3421C9
:103920004DF21D40FCF7ECFF02214DF21E40FCF76A
:10393000E7FF67214DF21F40FCF7E2FF02214DF245
:103940002040FCF7DDFF84214DF22140FCF7D8FF39
:1039500002214DF22240FCF7D3FFA4214DF2234077
:10396000FCF7CEFF02214DF22440FCF7C9FFB7213E
:103970004DF22540FCF7C4FF02214DF22640FCF732
:10398000BFFFCF214DF22740FCF7BAFF02214DF2D5
:103990002840FCF7B5FFDE214DF22940FCF7B0FFCF
:1039A00002214DF22A40FCF7ABFFF2214DF22B40F1
:1039B000FCF7A6FF02214DF22C40FCF7A1FFFE21EF
:1039C0004DF22D40FCF79CFF03214DF22E40FCF7F9
:1039D00097FF10214DF22F40FCF792FF03214DF28B
:1039E0003040FCF78DFF33214DF23140FCF788FF6A
:1039F00003214DF23240FCF783FF6D214DF233403D
:103A0000FCF77EFF00214FF45540FCF779FF33218E
:103A10004DF20150FCF774FF00214DF20250FCF70B
:103A20006FFF34214DF20350FCF76AFF00214DF285
:103A30000450FCF765FF3A214DF20550FCF760FF9A
:103A400000214DF20650FCF75BFF4A214DF2075072
:103A5000FCF756FF00214DF20850FCF751FF5C21A6
:103A60004DF20950FCF74CFF00214DF20A50FCF7D3
:103A700047FF81214DF20B50FCF742FF00214DF230
:103A80000C50FCF73DFFA6214DF20D50FCF738FF1E
:103A900000214DF20E50FCF733FFE5214DF20F509F
:103AA000FCF72EFF01214DF21050FCF729FF1321E6
:103AB0004DF21150FCF724FF01214DF21250FCF79A
:103AC0001FFF54214DF21350FCF71AFF01214DF254
:103AD0001450FCF715FF82214DF21550FCF710FF32
:103AE00001214DF21650FCF70BFFCA214DF2175081
:103AF000FCF706FF02214DF21850FCF701FF0021F0
:103B00004DF21950FCF7FCFE02214DF21A50FCF761
:103B1000F7FE01214DF21B50FCF7F2FE02214DF29F
:103B20001C50FCF7EDFE34214DF21D50FCF7E8FE71
:103B300002214DF21E50FCF7E3FE67214DF21F50AB
:103B4000FCF7DEFE02214DF22050FCF7D9FE842165
:103B50004DF22150FCF7D4FE02214DF22250FCF729
:103B6000CFFEA4214DF22350FCF7CAFE02214DF2F4
:103B70002450FCF7C5FEB7214DF22550FCF7C0FEDE
:103B800002214DF22650FCF7BBFECF214DF227500B
:103B9000FCF7B6FE02214DF22850FCF7B1FEDE2103
:103BA0004DF22950FCF7ACFE02214DF22A50FCF7F1
:103BB000A7FEF2214DF22B50FCF7A2FE02214DF29E
:103BC0002C50FCF79DFEFE214DF22D50FCF798FE87
:103BD00003214DF22E50FCF793FE10214DF22F5091
:103BE000FCF78EFE03214DF23050FCF789FE3321A5
:103BF0004DF23150FCF784FE03214DF23250FCF7B8
:103C00007FFE6D214DF23350FCF77AFE00214FF418
:103C10005640FCF775FE33214DF20160FCF770FE53
:103C200000214DF20260FCF76BFE34214DF203607F
:103C3000FCF766FE00214DF20460FCF761FE3A21BC
:103C40004DF20560FCF75CFE00214DF20660FCF7CA
:103C500057FE4A214DF20760FCF752FE00214DF25B
:103C60000860FCF74DFE5C214DF20960FCF748FE50
:103C700000214DF20A60FCF743FE81214DF20B60FA
:103C8000FCF73EFE00214DF20C60FCF739FEA62148
:103C90004DF20D60FCF734FE00214DF20E60FCF792
:103CA0002FFEE5214DF20F60FCF72AFE01214DF2B7
:103CB0001060FCF725FE13214DF21160FCF720FE89
:103CC00001214DF21260FCF71BFE54214DF21360EE
:103CD000FCF716FE01214DF21460FCF711FE822163
:103CE0004DF21560FCF70CFE01214DF21660FCF759
:103CF00007FECA214DF21760FCF702FE02214DF2C9
:103D00001860FCF7FDFD00214DF21960FCF7F8FD8D
:103D100002214DF21A60FCF7F3FD01214DF21B6008
:103D2000FCF7EEFD02214DF21C60FCF7E9FD3421A9
:103D30004DF21D60FCF7E4FD02214DF21E60FCF720
:103D4000DFFD67214DF21F60FCF7DAFD02214DF225
:103D50002060FCF7D5FD84214DF22160FCF7D0FDF9
:103D600002214DF22260FCF7CBFDA4214DF223602D
:103D7000FCF7C6FD02214DF22460FCF7C1FDB7211E
:103D80004DF22560FCF7BCFD02214DF22660FCF7E8
:103D9000B7FDCF214DF22760FCF7B2FD02214DF2B5
:103DA0002860FCF7ADFDDE214DF22960FCF7A8FD8F
:103DB00002214DF22A60FCF7A3FDF2214DF22B60A7
:103DC000FCF79EFD02214DF22C60FCF799FDFE21CF
:103DD0004DF22D60FCF794FD03214DF22E60FCF7AF
:103DE0008FFD10214DF22F60FCF78AFD03214DF26B
:103DF0003060FCF785FD33214DF23160FCF780FD2A
:103E000003214DF23260FCF77BFD6D214DF23360F2
:103E1000FCF776FD55212046FCF772FDAA213046BD
:103E2000FCF76EFD52213846FCF76AFD082140463A
:103E3000FCF766FD00214846FCF762FDCC215846A0
:103E4000FCF75EFD00214BF20110FCF759FD052146
:103E50005046FCF755FD70214FF43740FCF750FDFC
:103E600070214BF20170FCF74BFD01214FF43840FB
:103E7000FCF746FD03214BF60100FCF741FD032151
:103E80004BF60200FCF73CFD03214BF60300FCF768
:103E900037FD02214FF43C40FCF732FD00214BF688
:103EA0000140FCF72DFD00214BF60240FCF728FDF8
:103EB000D0214FF44940FCF723FD02214CF60110BC
:103EC000FCF71EFD50214CF60210FCF719FD5021A5
:103ED0004CF60310FCF714FD50214CF60410FCF7CF
:103EE0000FFD00214FF45450FCF70AFD55214FF40B
:103EF0006850FCF705FD4FF48850FCF789FC7820EA
:103F000003F0C4FB4FF42450FCF782FCFEE3A0F561
:103F100013414FF480744FF4E06840F2022940F2FC
:103F20003F164FF4274B25392ED0A0F513414FF4FF
:103F3000017A40F2077728397ED0A0F513414FF47B
:103F40001C5B203979D0A0F51341313976D0A0F52A
:103F5000A841083973D0A0F5A851053970D0A0F553
:103F6000354105396DD0A0F5454105396AD0A0F538
:103F70000941893967D0A0F58A4131397ED0A0F551
:103F80008A4135397BD0C1E747F6F001E520FCF7DF
:103F9000B7FC21460120FCF7B3FC41460220FCF7A8
:103FA000AFFC41F230010320FCF7AAFC0021042001
:103FB000FCF7A6FC49460820FCF7A2FC00210920DA
:103FC000FCF79EFC00210A20FCF79AFC00210C2043
:103FD000FCF796FC00210D20FCF792FC00210F203D
:103FE000FCF78EFC00211020FCF78AFC0721112031
:103FF000FCF786FC00211220FCF782FC0021132034
:10400000FCF77EFC00210720FCF77AFC41F290616E
:104010001020FCF775FC40F227211120FCF770FC02
:104020009D211220FCF76CFC4FF4C8511320FCF7C3
:1040300067FC2521292007E07DE026E1CAE19CE21A
:1040400037E3FDE3FDE3FDE3FCF75AFC0D212B20F4
:10405000FCF756FC07213020FCF752FC40F20331FC
:104060003120FCF74DFC03213220FCF749FC40F2E3
:1040700006213520FCF744FC082101E0FEE3FEE3C5
:104080003620FCF73DFC40F206413720FCF738FCB7
:104090004FF441713820FCF733FC07213920FCF73D
:1040A0002FFC40F202613C20FCF72AFC08213D2055
:1040B000FCF726FC00215020FCF722FCEF215120C8
:1040C000FCF71EFC00215220FCF71AFC314653205D
:1040D000FCF716FC59466020FCF712FC0121612018
:1040E000FCF70EFC00216A20FCF70AFC002180206E
:1040F000FCF706FC00218120FCF702FC0021822055
:10410000FCF7FEFB00218320FCF7FAFB0021842052
:10411000FCF7F6FB00218520FCF7F2FB1021902034
:10412000FCF7EEFB4FF4C0619220FCF7E9FB40F294
:1041300033110720FDE341F28F01EC20FCF7E0FB97
:1041400041F23421EF20FCF7DBFB21460120FCF794
:10415000D7FB41460220FCF7D3FB41F2300103209C
:10416000FCF7CEFB00210420FCF7CAFB49460820DF
:10417000FCF7C6FB00210920FCF7C2FB00210A2046
:10418000FCF7BEFB01210C20FCF7BAFB00210D203F
:10419000FCF7B6FB00210F20FCF7B2FB002110203A
:1041A000FCF7AEFB07211120FCF7AAFB002112202F
:1041B000FCF7A6FB00211320FCF7A2FB012107203E
:1041C000FCF79EFB322003F080FA41F29041102070
:1041D000FCF796FB40F227211120FCF791FB3220DF
:1041E00003F073FA8A211220FCF78AFB322003F0D5
:1041F0006CFA4FF4D0511320FCF782FB06212920E2
:10420000FCF77EFB0D212B20FCF77AFB322003F01C
:104210005CFA00212020FCF773FB00212120FCF731
:104220006FFB322003F051FA00213020FCF768FBCD
:1042300040F204613120FCF763FB40F2053132208B
:10424000FCF75EFB00213520FCF75AFB40F60941E4
:104250003620FCF755FB51463720FCF751FB40F266
:1042600001313820FCF74CFB39463920FCF748FB7C
:1042700000213C20FCF744FB40F60A213D20FCF7DE
:104280003FFB322003F021FA3BE100210846FCF716
:1042900037FB21460120FCF733FB41460220FCF7A7
:1042A0002FFB41F230010320FCF72AFB0021042000
:1042B000FCF726FB49460820FCF722FB00210920D9
:1042C000FCF71EFB00210A20FCF71AFB01210C2041
:1042D000FCF716FB00210D20FCF712FB00210F203C
:1042E000FCF70EFB322003F0F0F940F20111072039
:1042F000FCF706FB322003F0E8F94FF4865110205A
:10430000FCF7FEFA07211120FCF7FAFA4FF4887443
:1043100021461220FCF7F4FA4FF430611320FCF729
:10432000EFFA00212920FCF7EBFA44F210012B20D0
:10433000FCF7E6FA00215020FCF7E2FAEF215120C9
:10434000FCF7DEFA00215220FCF7DAFA314653205E
:10435000FCF7D6FA59466020FCF7D2FA0121612019
:10436000FCF7CEFA00216A20FCF7CAFA002180206F
:10437000FCF7C6FA00218120FCF7C2FA0021822056
:10438000FCF7BEFA00218320FCF7BAFA0021842052
:10439000FCF7B6FA00218520FCF7B2FA1021902034
:1043A000FCF7AEFA00219220FCF7AAFA0121932033
:1043B000FCF7A6FA21469520FCF7A2FA00219720E7
:1043C000FCF79EFA00219820FCF79AFA40F273114C
:1043D00007207EE341F21401E720FCF791FA214621
:1043E0000120FCF78DFA4FF400710220FCF788FAE7
:1043F00041F238010320FCF783FA49460820FCF714
:104400007FFA00210920FCF77BFA00210A20FCF743
:1044100077FA00210C20FCF773FA00210D20FCF73D
:104420006FFA00210F20FCF76BFA00211020FCF737
:1044300067FA07211120FCF763FA00211220FCF72C
:104440005FFA00211320FCF75BFAC82003F03DF966
:1044500041F290611020FCF753FA40F2272111201D
:10446000FCF74EFA322003F030F90C211220FCF751
:1044700047FA322003F029F94FF400611320FCF7CA
:104480003FFA11212920FCF73BFA0B212B20FCF7E6
:1044900037FA322003F019F900212020FCF730FA16
:1044A00031462120FCF72CFA00213020FCF728FAB5
:1044B0004FF4837421463120FCF722FA0021322088
:1044C000FCF71EFA51463520FCF71AFA41F20A6150
:1044D0003620FCF715FA39463720FCF711FA214649
:1044E0003820FCF70DFA39463920FCF709FA40F27A
:1044F00002413C20FCF704FA40F60F413D20FCF756
:10450000FFF900215020FCF7FBF9EF215120FCF7C7
:10451000F7F900215220FCF7F3F931465320FCF75C
:10452000EFF959466020FCF7EBF901216120FCF717
:10453000E7F900216A20FCF7E3F900218020FCF76D
:10454000DFF900218120FCF7DBF900218220FCF754
:10455000D7F900218320FCF7D3F900218420FCF750
:10456000CFF900218520FCF7CBF910219020FCF732
:10457000C7F94FF4C0619220FEE321460120FCF709
:10458000BFF941460220FCF7BBF941F2300103209C
:10459000FCF7B6F900210420FCF7B2F940F207213C
:1045A0000820FCF7ADF900210920FCF7A9F900214A
:1045B0000A20FCF7A5F900210C20FCF7A1F9002145
:1045C0000D20FCF79DF900210F20FCF799F914202C
:1045D00003F07BF841F2B0611020FCF791F9012162
:1045E0001120FCF78DF901211720FCF789F94FF410
:1045F0009C711220FCF784F94FF400611320FCF742
:104600007FF909212920FCF77BF909212A20FCF7F1
:1046100077F90021A420FCF773F900215020FCF762
:104620006FF9EF215120FCF76BF900215220FCF7C4
:1046300067F931465320FCF763F959466020FCF7CF
:104640005FF901216120FCF75BF900216A20FCF78A
:1046500057F900218020FCF753F900218120FCF755
:104660004FF900218220FCF74BF900218320FCF751
:1046700047F900218420FCF743F900218520FCF74D
:104680003FF913219020FCF73BF900219220FCF721
:1046900037F903219320FCF733F94FF48871952003
:1046A000FCF72EF940F273110720FCF729F93220AC
:1046B00011E100210720FCF723F9322003F005F86F
:1046C0004FF48E711220FCF71BF90121A420FCF796
:1046D00017F90F210820FCF713F908210A20FCF72D
:1046E0000FF908210D20FCF70BF9BA4639463020A6
:1046F000FCF706F907213120FCF702F940F20361CB
:104700003220FCF7FDF84746414600E0FDE3332048
:10471000FCF7F6F849463420FCF7F2F80221352080
:10472000FCF7EEF841F60F713620FCF7E9F8514638
:104730003720FCF7E5F800213820FCF7E1F80021EC
:104740003920FCF7DDF851463A20FCF7D9F8002172
:104750003B20FCF7D5F807213C20FCF7D1F80021DD
:104760003D20FCF7CDF8322002F0AFFF01210720F9
:10477000FCF7C6F801211720FCF7C2F8322002F03E
:10478000A4FF4FF4BD511020FCF7BAF840F21721F6
:104790001120FCF7B5F84FF48F711220FCF7B0F838
:1047A0004FF470611320FCF7ABF800212A20FCF7CE
:1047B000A7F80A212920FCF7A3F84FF49F711220D3
:1047C000FCF79EF800215020FCF79AF8EF215120C9
:1047D000FCF796F800215220FCF792F8314653205E
:1047E000FCF78EF859466020FCF78AF80121612019
:1047F000FCF786F800216A20FCF782F8002180206F
:10480000FCF77EF800218120FCF77AF80021822055
:10481000FCF776F800218320FCF772F80021842051
:10482000FCF76EF800218520FCF76AF81321902030
:10483000FCF766F84FF440719220FCF761F802E053
:104840004CE047E10FE205219320FCF759F80021E5
:104850009520FCF755F800219720FCF751F800212E
:104860009820FCF74DF821460120FCF749F839461D
:104870000220FCF745F841F2380101E0A7E268E3C5
:104880000320FCF73DF800210420FCF739F8002153
:104890000C20FCF735F800210F20FCF731F800213F
:1048A0002020FCF72DF800212120FCF729F82121F8
:1048B0000720FCF725F8142002F007FF61210720EC
:1048C000FCF71EF8142002F000FF40F273110720DD
:1048D000FCF716F8142002F0F8FE2EE3002108463B
:1048E000FCF70EF800210846FCF70AF800210846FC
:1048F000FCF706F800210846FCF702F80121A42085
:10490000FBF7FEFF142002F0E0FE59466020FBF7A3
:10491000F7FF4F4649460820FBF7F2FF4FF40571B9
:104920003020FBF7EDFF43F215713120FBF7E8FF74
:1049300000E0CAE040F204613220FBF7E1FF40F6FC
:1049400016613320FBF7DCFF42F211213420FBF724
:10495000D7FF4FF4A8513520FBF7D2FF48F207519B
:104960003620FBF7CDFF41F207413720FBF7C8FFA8
:1049700041F203413820FBF7C3FF20213920FBF728
:10498000BFFF1A219020FBF7BBFF00211020FBF78F
:10499000B7FF07211120FBF7B3FF00211220FBF71F
:1049A000AFFF00211320FBF7ABFF142002F08DFEB8
:1049B0004FF4E6611020FBF7A3FF40F237111120FE
:1049C000FBF79EFF142002F080FE4FF4DC711220F2
:1049D000FBF796FF142002F078FE4FF4706113206D
:1049E000FBF78EFF80212A20FBF78AFF4821292030
:1049F000FBF786FF142002F068FE21460120FBF73A
:104A00007FFF41460220FBF77BFF41F23801032084
:104A1000FBF776FF39460820FBF772FF00210A20DA
:104A2000FBF76EFF00210C20FBF76AFF00210D2031
:104A3000FBF766FF30210E20FBF762FF00215020BC
:104A4000FBF75EFFEF215120FBF75AFF00215220B8
:104A5000FBF756FF31465320FBF752FF59466020C3
:104A6000FBF74EFF01216120FBF74AFF00216A207E
:104A7000FBF746FF11219020FBF742FF4FF4C06186
:104A80009220FBF73DFF40F202419320FBF738FFF5
:104A900002219420FBF734FF142002F016FE0121BE
:104AA0000720FBF72DFF142002F00FFE61210720E5
:104AB000FBF726FF40F273110720FBF721FF0021CF
:104AC0002020FBF71DFF00212120FBF719FF2221E9
:104AD000002030E200210846FBF712FF00210846C3
:104AE000FBF70EFF142002F0F0FD00210846FBF753
:104AF00007FF00210846FBF703FF00210846FBF7EC
:104B0000FFFE00210846FBF7FBFE0121A420FBF776
:104B1000F7FE142002F0D9FD59466020FBF7F0FEA5
:104B200040F606010820FBF7EBFE40F20378414611
:104B30003020FBF7E5FE01213120FBF7E1FE0421E7
:104B40003220FBF7DDFE4FF481713320FBF7D8FEF6
:104B50004FF4407739463420FBF7D2FE40F2031180
:104B60003520FBF7CDFE1F213620FBF7C9FE41465D
:104B70003720FBF7C5FE01213820FBF7C1FE0421D9
:104B80003920FBF7BDFE15219020FBF7B9FE4FF44D
:104B900082611020FBF7B4FE40F247211120FBF7A1
:104BA000AFFE4FF4DE711220FBF7AAFE4FF46061F6
:104BB0001320FBF7A5FE782002F087FD2146012097
:104BC000FBF79EFE4FF400710220FBF799FE41F2C5
:104BD00030010320FBF794FE08210A20FBF790FE2A
:104BE00000210C20FBF78CFE20210E20FBF788FE15
:104BF00000210F20FBF784FE00212020FBF780FE20
:104C000000212120FBF77CFE3D212A20FBF778FEC6
:104C1000142002F05AFD2D212920FBF771FE0021FE
:104C20005020FBF76DFE4DF2EF015120FBF768FEBF
:104C300000215220FBF764FE31465320FBF760FE53
:104C400000216120FBF75CFE00216A20FBF758FE83
:104C500039469220FBF754FE05219320FBF750FEC6
:104C60002146FFF7B5BB01210020FBF749FE4AF6BC
:104C7000A4010320FBF744FE00210C20FBF740FEBB
:104C800040F60C010D20FBF73BFE4FF42C510E209B
:104C9000FBF736FEB0211E20FBF732FE42F63F3115
:104CA0000120FBF72DFE4FF4C0610220FBF728FE28
:104CB00000211020FBF724FE46F278011120FBF7BB
:104CC0001FFE00210520FBF71BFE00210620FBF73D
:104CD00017FE4EF61C711620FBF712FE032117205B
:104CE000FBF70EFE40F233210720FBF709FE0021FF
:104CF0000B20FBF705FE00210F20FBF701FE002132
:104D00004120FBF7FDFD00214220FBF7F9FD0021CA
:104D10004820FBF7F5FD31464920FBF7F1FD002166
:104D20004A20FBF7EDFD00214B20FBF7E9FD4FF496
:104D30006F414420FBF7E4FD00214520FBF7E0FD37
:104D400031464620FBF7DCFD39463020FBF7D8FD25
:104D5000544651463120FBF7D3FD21463220FBF764
:104D6000CFFD40F2025631463320FBF7C9FD711DDD
:104D70003420FBF7C5FD00E08EE121463520FBF72E
:104D8000BFFD21463620FBF7BBFD31463720FBF740
:104D9000B7FD40F2023421463A20FBF7B1FD21462F
:104DA0003B20FBF7ADFD00212320FBF7A9FD0021EF
:104DB0002420FBF7A5FD4FF400412520FBF7A0FDC3
:104DC00000214F20FBF79CFD00214E20B3E0012184
:104DD0000020FBF795FD0A2002F077FC41F22861E4
:104DE0001020FBF78DFD0E211220FBF789FD40F608
:104DF00039211320FBF784FD0A2002F066FC4021D4
:104E00001120FBF77DFD50211520FBF779FD0A20CD
:104E100002F05BFC1E211220FBF772FD0A2002F05B
:104E200054FC4FF4B1511020FBF76AFD42F63921D2
:104E30001320FBF765FD0A2002F047FC2146012004
:104E4000FBF75EFD4FF440710220FBF759FD41F284
:104E500038010320FBF754FD49460820FBF750FDBD
:104E600008210A20FBF74CFD00213020FBF748FD0C
:104E700040F202413120FBF743FD4FF483713220B1
:104E8000FBF73EFD40F203513320FBF739FD4FF4B1
:104E900082713420FBF734FD40F201313520FBF7FD
:104EA0002FFD39463620FBF72BFD40F20531372028
:104EB000FBF726FD4FF402713820FBF721FD40F689
:104EC0000B713920FBF71CFD02214120FBF718FD77
:104ED00059466020FBF714FD01216120FBF710FD0E
:104EE0004FF404719020FBF70BFD4FF48571922075
:104EF000FBF706FD04219320FBF702FD2146A020CD
:104F0000FBF7FEFC0121072000E016E0FBF7F8FCB0
:104F100021210720FBF7F4FC23210720FBF7F0FCFD
:104F200033210720FBF7ECFC40F233110720FBF79D
:104F3000E7FC0021A020FBF7E3FC0020FCF742FB8C
:104F4000FE490120C1F8A8012846FCF721FEBDE872
:104F5000F88F30211520FBF7D3FC10219A20FBF7A6
:104F6000CFFC20211120FBF7CBFC43F2284110207D
:104F7000FBF7C6FC02211220FBF7C2FC41F238010C
:104F80001320FBF7BDFC282002F09FFB12210846EE
:104F9000FBF7B6FC282002F098FB43F220411020DA
:104FA000FBF7AEFC43F238011320FBF7A9FC4620C7
:104FB00002F08BFB00213020FBF7A2FC40F2024103
:104FC0003120FBF79DFC40F207313220FBF798FCC3
:104FD0004FF441713320FBF793FC04213420FBF79D
:104FE0008FFC40F201413520FBF78AFC3946362020
:104FF000FBF786FC40F205313720FBF781FC4FF4CC
:10500000C26631463820FBF77BFC31463920FBF77E
:1050100077FC21460120FBF773FC4FF4407102201E
:10502000FBF76EFC41F230010320FBF769FC40F610
:1050300008010820FBF764FC08210A20FBF760FC4C
:1050400059466020FBF75CFC01216120FBF758FC0E
:105050004FF49F719020FBF753FC21469220FBF701
:105060004FFC21469320FBF74BFC4FF44051A0200E
:10507000FBF746FC1021A320FBF742FC012107208F
:10508000FBF73EFC21210720FBF73AFC23210720F8
:10509000FBF736FC33210720FBF732FC40F23311DB
:1050A000DFE52DE9F84FA64C99468246A388A3F583
:1050B000D040043802D1A07901280AD0A2EB0A001E
:1050C000401CA04E1FFA80F80D464FF4807B7715E8
:1050D0003EE023880846991A0025A5712A25658196
:1050E0002B26A3EB0A03A681491E5B1E0A9F89B2E9
:1050F0004A469BB20097FFF7D4FF0120A07166815A
:10510000A58124E729465046FBF74CFCFBF71FFC22
:10511000002419E05946304602F06DFD394630460C
:1051200002F06BFD88480A9902F06EFD802130463E
:1051300002F063FD8021304602F05DFD39463046C5
:1051400002F059FD641CA4B24445E3D36D1CADB21A
:105150004D45D7D9FBE62DE9FF5F89460098DDF87C
:1051600038B0101A401C86B2A3EB0900401C1FFA8D
:1051700080FA00252EE009EB050081B20098FBF7CC
:1051800011FCFBF7E4FB00246E4F4FF400781DE0A8
:105190004FF48071384602F02EFD4146384602F049
:1051A0002CFD05FB064168483BF8111002F02CFD70
:1051B0008021384602F021FD8021384602F01BFD97
:1051C0004146384602F017FD641CA4B2B442DFD356
:1051D0006D1CADB25545CED3BDE8FF9F2DE9FE4F06
:1051E0000026A2EB000882465F1A701E35468946EB
:1051F000B8F1000F02DD4FF0010102E003D14FF0E2
:105200000001019102E0C8F100080190002F02DDC9
:105210004FF0010002E003D14FF00000009002E0E7
:10522000C7F1000700904046B84501DD044600E0A4
:105230003C46601C4FF0000B029015E01FFA89F10C
:105240001FFA8AF0FCF760F846443D44A64202DDAE
:105250000199361B8A44A54202DD00992D1B894421
:105260000BF101001FFA80FB02998B45E6DDBDE8DA
:10527000FE8F2DE9F0411C4615460E4607460B46AB
:10528000FFF7ACFF3A46234631461046FFF7A6FF2C
:1052900023462A4619463846FFF7A0FF2A462346EA
:1052A0003146BDE8F041104698E72DE9FC5F8046A5
:1052B0000024154603200F46A0EB450661E0A7EB4E
:1052C0000409A8EB050A1FFA89F11FFA8AF0FCF716
:1052D0001BF808EB050001901FFA89F180B2FCF77A
:1052E00013F8781981B2A8EB040B00901FFA8BF029
:1052F000FCF70AF81FFA89F11FFA8AF0FCF704F8A4
:10530000A7EB05091FFA89F11FFA8BF0FBF7FCFFE9
:10531000019807EB040B1FFA8BF180B2FBF7F4FF47
:105320001FFA89F108EB04091FFA89F0FBF7ECFF7B
:10533000009881B21FFA89F008E0000000002242C4
:105340008C1F002000100140000C0140FBF7DCFF27
:105350001FFA8BF11FFA8AF0FBF7D6FF641C002EB0
:1053600003DA06EB8406B61D04E0601B06EB80063C
:105370006D1E0A36781981B208EB040080B2FBF783
:10538000C3FFAC429BDDBDE8FC9F2DE9F84F814691
:105390001E460F468B46580700D0012000EBD60072
:1053A00071084843203AC0B202F0FF0A002500907D
:1053B00041E00C2E10D0102E12D0182E3ED176497E
:1053C0000AEBCA0001EB80004FF00008445D2006A4
:1053D0000AD5724802880BE00AEB4A007049F1E7EF
:1053E000704901EB0A10EFE70A9828B96B48428828
:1053F00039464846FBF7ABFF6006040E6A487F1C3F
:10540000BFB20188494519D9A7EB0B00B04209D1B9
:1054100009F101001FFA80F963485F460188494598
:105420000CD906E008F1010000F0FF08B8F1080F00
:10543000CDD36D1CEDB200988542BAD387E5034603
:10544000012000E05843491EC9B2FBD270472DE944
:10545000FF4F81B00027DDF838B01D4692468046E8
:105460003C46B9464FEA5B0627E0281B401EC1B206
:105470000A20FFF7E4FFBAFBF0F00A21B0FBF1F2DB
:1054800001FB120027B9691E8C4201DA48B10127DD
:105490003030C2B206FB048080B25B46CDF800908B
:1054A00006E006FB048080B25B462022CDF8009027
:1054B0000299FFF76AFF641CE4B2AC42D5D305B091
:1054C000BDE8F08F2DE9FF4F81B08046DDF83CA0AC
:1054D0000E984FF000091F4693464C460AF001050E
:1054E00046082BE0381B401EC1B20A20FFF7A7FF79
:1054F000BBFBF0F00A21B0FBF1F201FB1200B9F1A5
:10550000000F05D1791E8C4202DA48B14FF0010933
:105510003030C2B206FB048080B200950E9B08E0DA
:105520005FEA0A6006FB04800E9B80B2009508D5F6
:1055300030220299FFF729FF641CE4B2BC42D1D3A8
:10554000BDE72022F5E72DE9F84F044600F0FF08FB
:1055500010190D46DDE90A761FFA80FA58191FFA6C
:1055600080F94FF0000B11E0544502D3E81944468E
:1055700085B24D450FD23B4629462046CDF800B0B6
:10558000FFF703FF04EB570084B2761C3278A2F1D8
:1055900020005E28E8D9DAE496040208160000200C
:1055A00032FA0108A6FE01088C1F00204E4841690E
:1055B00041F480714161816941F02001816181691B
:1055C00041F040018161816941F08001816181691F
:1055D00041F48071816145480168002101600268E1
:1055E00042F0BB320260001F026802F0FF2202603C
:1055F000026842F0BB1202603D4802680160026826
:1056000042F0BB320260001F02683A4B1A4002604F
:105610000268394B1A4302603848026892B202604D
:105620000268374B1A430260001F026802F07F4293
:1056300002600368334A134303603348436823F42A
:1056400070634360436843F430634360036803F06E
:105650007F4303600368134303604FF02040016100
:105660004161C0F81411016941F48051016101697F
:1056700041F010010161416941F4407141614169AA
:105680004161416941616FF07041C0F814110169D5
:1056900041F001010161704710B5002A07D04FF0B9
:1056A000D04310F8014B5C54491C521EF7D110BD79
:1056B000002A07D04FF0D0435B5C491C00F8013B47
:1056C000521EF7D1704703B50146012201A8FFF72A
:1056D000E3FF0CBD08B5014601226846FFF7E8FF6D
:1056E0009DF8000008BD00000010024004140140B5
:1056F0000418014000FFFF0FBB0000B0041C014074
:105700000000BBBBBBBBBB000020014008B50121B2
:10571000102002F0EEFB4FF4C050ADF80000102056
:105720008DF8030003208DF8020069467F4802F0DF
:10573000F8F97F480121C0F8B011C0F8AC1108BDDC
:1057400070B57A48416821F470414160416841F484
:1057500040514160764C0120C4F8AC01C4F8B0015E
:10576000042004F5D67401F091FF00252560042083
:1057700001F08CFF656070BD6C4810B5416821F484
:1057800070414160416841F440514160684C0020E3
:10579000C4F8B001C4F8AC01042004F5D67401F0DB
:1057A00075FF012060602060BDE81040042001F01A
:1057B0006DBF70B55D480024416821F470414160BF
:1057C000416841F400414160594D0126C5F8AC6182
:1057D000304601F05BFFC5F8B061012001F056FFD3
:1057E00007E0641CE4B2FA2C03D9FFF7C5FF0120DF
:1057F00070BDD5F82C010028F3D1C5F8B00170BDFB
:1058000070B54B4C0025C4F8B0514848416821F4AC
:1058100070414160416841F440514160C4F8AC516D
:10582000022004F5D67401F031FF012060600220EF
:1058300001F02CFF656070BD70B53D4C0026C4F8CA
:10584000B0613A48416821F470414160416841F4D7
:10585000405141600125C4F8AC51022004F5D674D2
:1058600001F014FF6560022001F010FF666070BD5A
:105870002DE9F04105462D48416821F47041416011
:10588000416841F440514160294E0027C6F8B0718B
:105890003C464FF00108E809C6F8AC016806050E61
:1058A000022001F0F3FEC6F8B081022001F0EEFE06
:1058B000C6F8B071022001F0E9FE641CE4B2082CC5
:1058C000E9D3BDE8F0812DE9F0478146174800246F
:1058D000416821F470414160416841F400414160F8
:1058E000134E254627464FF00108C6F8B071022036
:1058F00001F0CCFEC6F8B0816006040ED6F82C018B
:1059000008B1641CE4B2012001F0C0FE6D1CEDB2D0
:10591000082DEAD3B9F1000F04D0FFF771FF20463C
:10592000BDE8F087FFF788FFF9E7000000100140AD
:1059300000002242FFF7EABE10B50446FFF700FF61
:10594000200AA02101EB4000C0B2FFF791FFFFF752
:1059500030FFE0B2FFF78CFFFFF72BFFFFF7F0FE01
:10596000A120FFF785FFFFF724FF0020FFF7ABFF23
:105970000446FFF701FF204610BD70B50D460446F2
:10598000FFF7DEFE200AA02101EB4000C0B2FFF7C6
:105990006FFFFFF70EFFE0B2FFF76AFFFFF709FFA7
:1059A0002846FFF765FFFFF704FFFFF7E5FEBDE8B8
:1059B00070400A2001F089BE2DE9F04116460D46DF
:1059C0000746002409E0E00025FA00F0C1B23819CA
:1059D00080B2FFF7D2FF641CE4B2B442F3D3BDE857
:1059E000F0812DE9F0410D460146002004464E1994
:1059F00008E00702301B401E80B2FFF79DFF641CC9
:105A00003844E4B2AC42F4D3E9E710B5FF20FFF725
:105A100093FF55280AD05521FF20FFF7AEFFFF2046
:105A2000FFF78AFF552801D0012010BD002010BDCE
:105A300070B515460E46044608E02046641CA4B224
:105A4000FFF77AFF6D1E06F8010BADB2002DF4D101
:105A500070BD70B514460D46064606E029783046FE
:105A6000FFF78BFF761CB6B26D1C641EA4B2F5D294
:105A700070BD000070B506460024334D03E0641C81
:105A8000E4B2C82C0FD80221284602F08DFB002872
:105A9000F5D03146284602F043FB002405E0641CA3
:105AA000E4B2C82C01D9002070BD0121284602F0C3
:105AB0007BFB0028F3D0284602F034FBC0B270BD57
:105AC00038B5012141F2040002F013FAE020ADF8EC
:105AD000000018208DF8030003201C4C8DF80200F4
